:1000000046EF1FF00000000000EF00F000000000CD
:0A0010000000000000000000F3D71C
:08001C000AAE029E000E120064
:100024000B820BAE1CEF00F00368026801680068E5
:080034000A360232FF0E120031
:0E003C00026A016A006A086A036A000E120076
:10004A000B840BAE30EF00F0010E036E026A016AF8
:0A005A00006A0A360232FF0E12009F
:100064000CB074EF00F00CA21AEF01F00E6A000E4F
:1000740002648BEF00F0F00E0214D8A456EF00F0E7
:10008400023A01380F0B02260138F00B016E0038DA
:100094000F0B01260038F00B006E08380F0B0026FA
:1000A4000838F00B086E0E84D89002BE6FEF00F093
:1000B40008360036013602360E2A02BE6FEF00F013
:1000C40008360036013602360E2A02BE6FEF00F003
:1000D40008360036013602360E2A0E50036410EF3D
:1000E40001F0035E0BBC08AE15EF01F0D880800E62
:1000F40008640030000E002201220222D8A015EF6D
:1001040001F0023201320032034A1AEF01F015EF16
:1001140001F001C002F000C001F008C000F0086A5C
:10012400000E0E860264C2EF00F0F00E0214D8A492
:10013400AAEF00F0023A01380F0B02260138F00B47
:10014400016E00380F0B01260038F00B006E0E8490
:10015400D89002BE6FEF00F00036013602360E2A48
:1001640002BE6FEF00F00036013602360E2A02BEE0
:100174006FEF00F00036013602360E2A6FEF00F002
:1001840001C002F000C001F0006A000E0E960E8855
:100194000264EFEF00F0F00E0214D8A4DAEF00F0DE
:1001A400023A01380F0B02260138F00B016E0E845F
:1001B400D89002BE6FEF00F0013602360E2A02BE5E
:1001C4006FEF00F0013602360E2A02BE6FEF00F028
:1001D400013602360E2A6FEF00F001C002F0016A08
:1001E400000E0E8602641FEF01F0F00E0214D8A474
:1001F400FEEF00F0023A0E84D89002BE6FEF00F0DA
:1002040002360E2A02BE6FEF00F002360E2A02BE3C
:100214006FEF00F002360E2A6FEF00F0010E0C6E45
:1002240012DF22EF01F0020E0C6EF6DE22EF01F077
:10023400040E0C6EF5DE22EF01F0080E0C6EFCDEEF
:020244001200A6
:080246000B6A0B86FF0E12008B
:10024E00086A080E0C6E003408360450085ED8B0EA
:0E025E0002D00826D89000360C2EF5D71200DC
:10026C00025006180E6E086A096A0B6A035007647E
:10027C0029EF02F006500A6E068E028E03500B6EAA
:10028C000750036E000E0B6479EF01F00B50075E04
:10029C00D8B41AEF02F0070E0764E8EF01F0075E1E
:1002AC0000C008F001C000F002C001F0026A074E65
:1002BC001AEF02F00764BDEF01F0075E00C008F012
:1002CC0001C000F0016A074E1AEF02F007649BEFC1
:1002DC0001F0075E00C008F0006A074E1AEF02F04A
:1002EC00076482EF01F00AC002F005C001F004C0FF
:1002FC0000F0086A43EF03F0030E07648DEF01F082
:10030C00075E08380F0B086E074E1AEF02F0D890F4
:10031C000832074E1AEF02F0D8900832074E1AEF47
:10032C0002F0D89008321AEF02F0030E0764ACEF1B
:10033C0001F0075E08380F0B086E0038F00B08262A
:10034C0000380F0B006E074E1AEF02F0D8900032F7
:10035C000832074E1AEF02F0D89000320832074EDE
:10036C001AEF02F0D890003208321AEF02F0030EA6
:10037C000764D4EF01F0075E08380F0B086E0038E5
:10038C00F00B082600380F0B006E0138F00B00261E
:10039C0001380F0B016E074E1AEF02F0D8900132A4
:1003AC0000320832074E1AEF02F0D89001320032B8
:1003BC000832074E1AEF02F0D890013200320832A0
:1003CC001AEF02F0030E076405EF02F0075E08381F
:1003DC000F0B086E0038F00B082600380F0B006E60
:1003EC000138F00B002601380F0B016E0238F00BB0
:1003FC00012602380F0B026E074E1AEF02F0D8904E
:10040C000232013200320832074E1AEF02F0D89055
:10041C000232013200320832074E1AEF02F0D89045
:10042C000232013200320832096A000E0EAE0EEFB3
:10043C0003F0081E001E011E021E082A00220122C3
:10044C0002220EEF03F00750D8A42FEF02F043EF77
:10045C0003F0096A02C00AF0028E068E0750035C94
:10046C00076ED8B401EF03F0070E0764CFEF02F06C
:10047C00075E0450096E0550046E0650056E066A40
:10048C00074E01EF03F0070E0764A4EF02F0075EBE
:10049C000450096E0550046E056A074E01EF03F017
:1004AC00070E076482EF02F0075E0450096E046ABF
:1004BC00074E01EF03F0070E076469EF02F00AC064
:1004CC0002F043EF03F0030E076474EF02F0075ED3
:1004DC0009380F0B096E074E01EF03F0D890093263
:1004EC00074E01EF03F0D8900932074E01EF03F0ED
:1004FC00D890093201EF03F0030E076493EF02F07A
:10050C00075E09380F0B096E0438F00B0926043806
:10051C000F0B046E074E01EF03F0D8900432093232
:10052C00074E01EF03F0D89004320932074E01EF69
:10053C0003F0D8900432093201EF03F0030E076484
:10054C00BBEF02F0075E09380F0B096E0438F00B95
:10055C00092604380F0B046E0538F00B04260538F9
:10056C000F0B056E074E01EF03F0D89005320432E5
:10057C000932074E01EF03F0D890053204320932EC
:10058C00074E01EF03F0D89005320432093201EF27
:10059C0003F0030E0764ECEF02F0075E09380F0B53
:1005AC00096E0438F00B092604380F0B046E05385D
:1005BC00F00B042605380F0B056E0638F00B0526DC
:1005CC0006380F0B066E074E01EF03F0D89006327B
:1005DC00053204320932074E01EF03F0D89006328F
:1005EC00053204320932074E01EF03F0D89006327F
:1005FC00053204320932086A000E0EAE0EEF03F01B
:10060C00091E041E051E061E092A042205220622A6
:10061C0009500826045000220550012206500222DF
:10062C000EBE25EF03F0D8A034EF03F002320132F6
:10063C0000320832033E34EF03F03EEF03F0D8B043
:10064C0039EF03F0000E081E001E011E021E082AC0
:10065C000022012202220A7E39EF03F0010E0C6EF9
:10066C00FBDC45EF03F0020E0C6EF6DC45EF03F0FD
:10067C00040E0C6ED1DC45EF03F0000E0C6E120074
:10068C000B800BAE52EF03F0026A0AAEFF0E026E45
:0C069C00016E006E0A360232FF0E1200E2
:1006A8000D6A086A0050D8B4000C04180A6E0ABE15
:1006B8000D1E0B6A04AE02D0041E042A00A002D04C
:1006C800001E002A005004100A6E0ABE1FD00450F3
:1006D800085E003600340836045008260036060E38
:1006E8000C6E00340836045000B0085E00A00826DE
:1006F80000360C2EF6D700A008260BB015D00DAE8C
:10070800000C001E002A081E082A000C04AE09D09E
:1007180000BE04D00050086E006AF1D7006A002AB3
:10072800000C001E0B2AD3D7082A0450085CD8A452
:0E073800E6D7086A002A00AEE2D7FF0C1200D6
:100746000134083609360450085E0550D8A0053C29
:10075600095E003601360F0E0C6E01340836093676
:10076600045000A006D0085E0550D8A0053C095EDE
:1007760005D008260550D8B0053C092600360136B6
:100786000C2EEBD700B006D0045008260550D8B082
:08079600053C092600001200D9
:10079E00086A096A000E0762036454EF04F00250FF
:1007AE0006180A6E075003267E0ED8A0E5EF03F05A
:1007BE00035ED8B059EF04F0E9EF03F0035ED8A062
:1007CE005EEF04F0028E068E02C00EF001C00BF03A
:1007DE0000C00DF000500402F4CF0CF001500502E1
:1007EE00F4CF00F0F3CF08F00402F3500C26F450CF
:1007FE000822000E00220D500502F3500C26F45074
:10080E000822000E002202500402F3500826F45073
:10081E00002202500502016A000E0122F35000264A
:10082E00F45001220D500602F3500826F450002217
:10083E00026A000E012202220B500602F35000261D
:10084E00F4500122000E02220E500602F350012631
:10085E00F450022202BE3CEF04F008360036013698
:10086E0002360306D8B45EEF04F04FEF04F0D880E2
:10087E00800E08640030000E002201220222D8A051
:10088E004FEF04F0023201320032034A59EF04F006
:10089E000AAE029E000E61EF04F0010E1EEC00F097
:1008AE0061EF04F0020E12EC00F061EF04F0040EA2
:0608BE0025EC00F0120021
:1008C4000B6A0C6A086A0350D8B4E6EF04F002C05D
:1008D4000AF0028E9E0E035E03AED6EF04F0036CA4
:1008E400080E035CD8A0A3EF04F0036E083600C022
:1008F40008F001C000F002C001F0026A080E035CB7
:10090400D8A0A3EF04F0036E083600C008F001C0BD
:1009140000F0016A080E035CD8A0A3EF04F0036E94
:10092400083600C008F0006A080E035CD8A0A3EFE4
:1009340004F0036E0836086A0350D8A4D890AFEFC9
:1009440004F00350D8B4AFEF04F0D890023201326F
:1009540000320832032EA7EF04F00BBC08A0C0EF4E
:1009640004F0D8A0C0EF04F0082AD8B4002AD8B400
:10097400012AD8B4022A02BEEAEF04F00AAEE6EF76
:1009840004F0021E011E001E081E082AD8B4002A04
:10099400D8B4012AD8B4022AE6EF04F0026A016A44
:1009A400006A086AE6EF04F00B800BAEF0EF04F087
:1009B400026A0AAEF0EF04F0026E016E006E086E79
:1009C4000A360232F0EF04F00C6A000EF1EF04F084
:1009D400010E0C6E000E58DEF1EF04F0FF0E025013
:1009E400036E0150026E0050016E0850006E12003A
:0609F400067E3ADC120051
:1009FA0001013C51390806E3300E3C5D03E3010E68
:080A0A00006E01D0006A120029
:100A12000450000A08E10550000A05E1FF0E006ECD
:100A22007F0E016E12000D6A096A086A01500010F9
:100A3200D8B4000C015005180A6E0ABE0D1E0B6ACE
:100A420005AE05D0041E051E042AD8B4052A01AE3F
:100A520005D0001E011E002AD8B4012A015005103B
:100A62000A6E0ABE10D06EDE0BB020D00DAE000CA6
:100A7200001E011E002AD8B4012A081E091E082AD7
:100A8200D8B4092A000C05AE0DD001BE07D0015022
:100A9200096E0050086E016A006AE8D7016A006AAE
:100AA200002A000C011E001E0B2ADDD7082AD8B42A
:100AB200092A0450085CD8A4D9D70550095CD8A4E7
:100AC200D5D7096A086A002AD8B4012A01AECED75E
:060AD2000000FF0C120001
:100AD8000050086E0150006E0250016E0350026E05
:100AE800036A0B6A0C6A9E0E036E0A6A020E0C6E8B
:060AF80032EC00F01200D8
:100AFE006E0E01013C5DD8A0C7D0640E046E3CC1E1
:100B0E0000F027EC01F0120E0024056E066A000EAE
:100B1E00062205C000F006C001F0000E06BEFF0E54
:100B2E00026E036E00360090013602360336003632
:100B3E000090013602360336940E0024F66E400EF7
:100B4E000120F76E000E0220F86E0900F5CF00F0BE
:100B5E000900F5CF01F00900F5CF02F00900F5CF3D
:100B6E0003F0000E046E000E056E000E066E7E0E75
:100B7E00076E0EDE00C03DF101C03EF102C03FF136
:100B8E0003C040F1640E046E3CC100F027EC01F08E
:100B9E0008C000F00A0E046E27EC01F0090E0024C6
:100BAE00056E066A000E062205C000F006C001F0B2
:100BBE00000E06BEFF0E026E036E0036009001366A
:100BCE000236033600360090013602360336940E96
:100BDE000024F66E400E0120F76E000E0220F86E15
:100BEE000900F5CF00F00900F5CF01F00900F5CFAF
:100BFE0002F00900F5CF03F03DC104F03EC105F04F
:100C0E003FC106F040C107F0C3DD00C03DF101C099
:100C1E003EF102C03FF103C040F10A0E046E3CC12A
:100C2E0000F027EC01F008C000F000C001F0000E4B
:100C3E00026E036E046E01360190023603360436E0
:100C4E0001360190023603360436940E0124F66EF8
:100C5E00400E0220F76E000E0320F86E0900F5CF4D
:100C6E0000F00900F5CF01F00900F5CF02F0090000
:100C7E00F5CF03F03DC104F03EC105F03FC106F0D3
:100C8E0040C107F085DD12003C510A087CE20A0ED5
:100C9E00046E3CC100F027EC01F0090E0024056E35
:100CAE00066A000E062205C000F006C001F0000E16
:100CBE0006BEFF0E026E036E00360090013602363F
:100CCE00033600360090013602360336940E0024A9
:100CDE00F66E400E0120F76E000E0220F86E09002F
:100CEE00F5CF00F00900F5CF01F00900F5CF02F0C5
:100CFE000900F5CF03F0000E046E000E056E000E17
:100D0E00066E7E0E076E44DD00C03DF101C03EF161
:100D1E0002C03FF103C040F10A0E046E3CC100F068
:100D2E0027EC01F008C000F000C001F0000E026ECA
:100D3E00036E046E01360190023603360436013618
:100D4E000190023603360436940E0124F66E400EE0
:100D5E000220F76E000E0320F86E0900F5CF00F0AA
:100D6E000900F5CF01F00900F5CF02F00900F5CF2B
:100D7E0003F03DC104F03EC105F03FC106F040C195
:100D8E0007F006DD12003CC100F0000E016E026E8F
:100D9E00036E0036009001360236033600360090A0
:100DAE00013602360336940E0024F66E400E0120F4
:100DBE00F76E000E0220F86E0900F5CF00F0090064
:100DCE00F5CF01F00900F5CF02F00900F5CF03F0E1
:100DDE00000E046E000E056E000E066E7E0E076E81
:040DEE00D7DC12003C
:100DF2000B6A0A6A096A086A0E6A033408360450E2
:100E0200085E0550D8A0053C095E0650D8A0063CF5
:100E12000A5E0750D8A0073C0B5EE86AD8A0010E14
:100E22000E5E0336070E0C6E0334083609360A3698
:100E32000B360E36045003A012D0085E0550D8A01F
:100E4200053C095E0650D8A0063C0A5E0750D8A0B1
:100E5200073C0B5EE86AD8A0010E0E5E11D0082690
:100E62000550D8B0053C09260650D8B0063C0A26E3
:100E72000750D8B0073C0B26E86AD8B0010E0E2600
:100E820003360C2ED1D70234083609360A360B3611
:100E92000E36045003A012D0085E0550D8A0053CBF
:100EA200095E0650D8A0063C0A5E0750D8A0073C4F
:100EB2000B5EE86AD8A0010E0E5E11D0082605501E
:100EC200D8B0053C09260650D8B0063C0A26075081
:100ED200D8B0073C0B26E86AD8B0010E0E260236BF
:100EE200070E0C6E0234083609360A360B360E36F9
:100EF200045002A012D0085E0550D8A0053C095E3D
:100F02000650D8A0063C0A5E0750D8A0073C0B5EEC
:100F1200E86AD8A0010E0E5E11D008260550D8B09E
:100F2200053C09260650D8B0063C0A260750D8B020
:100F3200073C0B26E86AD8B0010E0E2602360C2EAC
:100F4200D1D70134083609360A360B360E3604502C
:100F520002A012D0085E0550D8A0053C095E0650DA
:100F6200D8A0063C0A5E0750D8A0073C0B5EE86A90
:100F7200D8A0010E0E5E11D008260550D8B0053C4F
:100F820009260650D8B0063C0A260750D8B0073CBE
:100F92000B26E86AD8B0010E0E260136070E0C6E3B
:100FA2000134083609360A360B360E36045001A0D3
:100FB20012D0085E0550D8A0053C095E0650D8A0A4
:100FC200063C0A5E0750D8A0073C0B5EE86AD8A030
:100FD200010E0E5E11D008260550D8B0053C092638
:100FE2000650D8B0063C0A260750D8B0073C0B265C
:100FF200E86AD8B0010E0E2601360C2ED1D7003485
:10100200083609360A360B360E36045001A012D0C5
:10101200085E0550D8A0053C095E0650D8A0063CE3
:101022000A5E0750D8A0073C0B5EE86AD8A0010E02
:101032000E5E11D008260550D8B0053C0926065090
:10104200D8B0063C0A260750D8B0073C0B26E86AFF
:10105200D8B0010E0E260036070E0C6E003408368C
:1010620009360A360B360E36045000A012D0085E3E
:101072000550D8A0053C095E0650D8A0063C0A5E81
:101082000750D8A0073C0B5EE86AD8A0010E0E5E9E
:1010920011D008260550D8B0053C09260650D8B014
:1010A200063C0A260750D8B0073C0B26E86AD8B09F
:1010B200010E0E2600360C2ED1D700B00ED00450F1
:1010C20008260550D8B0053C09260650D8B0063C83
:0C10D2000A260750D8B0073C0B2612007D
:1010DE000450000A12E10550000A0FE10650000A02
:1010EE000CE10750000A09E1FF0E006EFF0E016EC3
:1010FE007F0E026EFF0E036E1200086A096A075019
:10110E00D8B41AEF09F00350D8B41FEF09F002500B
:10111E0006180A6E028E068E0E6A02C008F001C014
:10112E000CF000C00DF004500D5E0550D8A0053C2B
:10113E000C5E0650D8A0063C085E086A0C6A0D6A62
:10114E00D8A0B1EF08F0D890023201320032083246
:10115E00010E0E6E0750035ED8A0BEEF08F07E0E95
:10116E000E240326D8B024EF09F0C4EF08F07E0E4B
:10117E000E240326D8A029EF09F0180E0B6E0D369B
:10118E000C3608360036013602360E360450005E36
:10119E000550D8A0053C015E0650D8A0063C025E64
:1011AE0006340E120EA0DFEF08F00D80EAEF08F005
:1011BE00045000260550D8B0053C01260650D8B084
:1011CE00062802260D900B2EC6EF08F010EF09F040
:1011DE00D8900036013602360E360450005E0550A9
:1011EE00D8A0053C015E0650D8A0063C025E06342F
:1011FE000E10010B0D26D8B00C2AD8B4082AD8A48C
:10120E0010EF09F008320C320D32032AD8B424EF55
:10121E0009F00AAE089E0850026E0C50016E0D5079
:10122E00006E2CEF09F0010E23EC01F02CEF09F00B
:10123E00020E1EEC00F02CEF09F0040E12EC00F082
:0C124E002CEF09F0080E25EC00F0120057
:10125A00800E01013C19006E800E000A005CD8B0B5
:10126A006DD13C510008016E01C03CF1800E01189D
:10127A00006E800E6E0A005CD8A0C0D0640E046EA8
:10128A003CC100F054EC03F0120E0024056E000E6F
:10129A0000BEFF0E066E000E062205C000F006C054
:1012AA0001F0000E06BEFF0E026E036E00360090BD
:1012BA00013602360336003600900136023603360E
:1012CA00940E0024F66E400E0120F76E000E0220E6
:1012DA00F86E0900F5CF3DF10900F5CF3EF109009E
:1012EA00F5CF3FF10900F5CF40F1640E046E3CC121
:1012FA0000F054EC03F008C000F00A0E046E54EC3F
:10130A0003F0090E0024056E000E00BEFF0E066EE5
:10131A00000E062205C000F006C001F0000E06BE4F
:10132A00FF0E026E036E0036009001360236033657
:10133A0000360090013602360336940E0024F66E0B
:10134A00400E0120F76E000E0220F86E0900F5CF5C
:10135A0000F00900F5CF01F00900F5CF02F009000D
:10136A00F5CF03F03DC104F03EC105F03FC106F0E0
:10137A0040C107F0CFEC03F000C03DF101C03EF1DF
:10138A0002C03FF103C040F10A0E046E3CC100F0F6
:10139A0054EC03F008C000F000C001F0000E00BEDB
:1013AA00FF0E026E036E046E01360190023603369A
:1013BA00043601360190023603360436940E0124AF
:1013CA00F66E400E0220F76E000E0320F86E09003A
:1013DA00F5CF00F00900F5CF01F00900F5CF02F0D2
:1013EA000900F5CF03F03DC104F03EC105F03FC14D
:1013FA0006F040C107F0CFEC03F01200800E0A0A93
:10140A00006E800E3C19005C71E20A0E046E3CC14B
:10141A0000F054EC03F0090E0024056E000E00BE25
:10142A00FF0E066E000E062205C000F006C001F08F
:10143A00000E06BEFF0E026E036E003600900136E5
:10144A000236033600360090013602360336940E11
:10145A000024F66E400E0120F76E000E0220F86E90
:10146A000900F5CF3DF10900F5CF3EF10900F5CFAE
:10147A003FF10900F5CF40F10A0E046E3CC100F0BD
:10148A0054EC03F008C000F000C001F0000E00BEEA
:10149A00FF0E026E036E046E0136019002360336A9
:1014AA00043601360190023603360436940E0124BE
:1014BA00F66E400E0220F76E000E0320F86E090049
:1014CA00F5CF00F00900F5CF01F00900F5CF02F0E1
:1014DA000900F5CF03F03DC104F03EC105F03FC15C
:1014EA0006F040C107F0CFEC03F012003CC100F057
:1014FA00000E3CBFFF0E016E026E036E00360090B6
:10150A0001360236033600360090013602360336BB
:10151A00940E0024F66E400E0120F76E000E022093
:10152A00F86E0900F5CF00F00900F5CF01F00900C7
:10153A00F5CF02F00900F5CF03F01200800E3C1936
:10154A00006E800E6E0A005CD8A0C0D0640E046ED5
:10155A003CC100F054EC03F0120E0024056E000E9C
:10156A0000BEFF0E066E000E062205C000F006C081
:10157A0001F0000E06BEFF0E026E036E00360090EA
:10158A00013602360336003600900136023603363B
:10159A00600E0024F66E400E0120F76E000E022047
:1015AA00F86E0900F5CF3DF10900F5CF3EF10900CB
:1015BA00F5CF3FF10900F5CF40F1640E046E3CC14E
:1015CA0000F054EC03F008C000F00A0E046E54EC6C
:1015DA0003F0090E0024056E000E00BEFF0E066E13
:1015EA00000E062205C000F006C001F0000E06BE7D
:1015FA00FF0E026E036E0036009001360236033685
:10160A0000360090013602360336600E0024F66E6C
:10161A00400E0120F76E000E0220F86E0900F5CF89
:10162A0000F00900F5CF01F00900F5CF02F009003A
:10163A00F5CF03F03DC104F03EC105F03FC106F00D
:10164A0040C107F0CFEC03F000C03DF101C03EF10C
:10165A0002C03FF103C040F10A0E046E3CC100F023
:10166A0054EC03F008C000F000C001F0000E00BE08
:10167A00FF0E026E036E046E0136019002360336C7
:10168A00043601360190023603360436600E012410
:10169A00F66E400E0220F76E000E0320F86E090067
:1016AA00F5CF00F00900F5CF01F00900F5CF02F0FF
:1016BA000900F5CF03F03DC104F03EC105F03FC17A
:1016CA0006F040C107F0CFEC03F01200800E0A0AC0
:1016DA00006E800E3C19005C71E20A0E046E3CC179
:1016EA0000F054EC03F0090E0024056E000E00BE53
:1016FA00FF0E066E000E062205C000F006C001F0BD
:10170A00000E06BEFF0E026E036E00360090013612
:10171A000236033600360090013602360336600E72
:10172A000024F66E400E0120F76E000E0220F86EBD
:10173A000900F5CF3DF10900F5CF3EF10900F5CFDB
:10174A003FF10900F5CF40F10A0E046E3CC100F0EA
:10175A0054EC03F008C000F000C001F0000E00BE17
:10176A00FF0E026E036E046E0136019002360336D6
:10177A00043601360190023603360436600E01241F
:10178A00F66E400E0220F76E000E0320F86E090076
:10179A00F5CF00F00900F5CF01F00900F5CF02F00E
:1017AA000900F5CF03F03DC104F03EC105F03FC189
:1017BA0006F040C107F0CFEC03F012003CC100F084
:1017CA00000E3CBFFF0E016E026E036E00360090E3
:1017DA0001360236033600360090013602360336E9
:1017EA00600E0024F66E400E0120F76E000E0220F5
:1017FA00F86E0900F5CF00F00900F5CF01F00900F5
:0C180A00F5CF02F00900F5CF03F012004A
:101816000B6A0A6A096A00500402F4CF09F0F3CF92
:1018260008F001500502F4CF0BF0F3CF0AF0005098
:101836000502F3500926F4500A22E86A0B220150E9
:101846000402F3500926F4500A22E86A0B2208C063
:1018560000F009C001F00AC002F00BC003F012004C
:101866000B6A0C6A0A6A086A0350D8B4BBEF0CF01C
:10187600028E9E0E035E03BE46EF0CF0D8B446EF12
:101886000CF0ABEF0CF0036C080E035CD8A078EFFD
:101896000CF0036E083600C008F001C000F002C06C
:1018A60001F0026A080E035CD8A078EF0CF0036E14
:1018B600083600C008F001C000F0016A080E035C9B
:1018C600D8A078EF0CF0036E083600C008F0006A66
:1018D600080E035CD8A078EF0CF0036E0836086A91
:1018E6000350D8A4D89084EF0CF00350D8B484EFFA
:1018F6000CF0D8900232013200320832032E7CEF0F
:101906000CF00BBC08A095EF0CF0D8A095EF0CF0EE
:10191600082AD8B4002AD8B4012AD8B4022A02BEAA
:10192600BFEF0CF00AAEBBEF0CF0021E011E001E4C
:10193600081E082AD8B4002AD8B4012AD8B4022A24
:10194600BBEF0CF0026A016A006A086ABBEF0CF092
:101956000B800BAEC5EF0CF0026A0AAEC5EF0CF0B9
:10196600026E016E006E086E0A360232C5EF0CF08A
:10197600000E0C6AC6EF0CF0010E0C6E46EC03F07E
:10198600C6EF0CF0FF0E0250036E0150026E0050BF
:08199600016E0850006E120002
:10199E0003500718D8A4E3EF0CF002500618D8A491
:1019AE00E3EF0CF001500518D8A4E3EF0CF0005053
:0E19BE000418D8B4D8841200D8941200120075
:1019CC000A6A0350D8A40A800750D8A40A820A5085
:1019DC00D8B449EF0DF0030AD8B402EF0DF00AB0F9
:1019EC00FDEF0CF006AE47EF0DF045EF0DF002AE3B
:1019FC0045EF0DF047EF0DF00250800B0A6E029E82
:101A0C000650800B069E0A18D8B413EF0DF00A503E
:101A1C00D8B445EF0DF047EF0DF00750035CD8B488
:101A2C001DEF0DF0D8A039EF0DF03FEF0DF0065083
:101A3C00025CD8B427EF0DF0D8A039EF0DF03FEFD2
:101A4C000DF00550015CD8B431EF0DF0D8A039EF92
:101A5C000DF03FEF0DF00450005CD8B449EF0DF0E1
:101A6C00D8B03FEF0DF00A52D8B447EF0DF045EF68
:101A7C000DF00A52D8B445EF0DF047EF0DF0D880B9
:0E1A8C001200D8901200D880D88412001200E8
:101A9A000101346B356B216B226B17C100F018C141
:101AAA0001F019C102F0010E1727000E182319239D
:101ABA0000C0F6FF01C0F7FF02C0F8FF0900F5CF2A
:101ACA0000F000C01EF10052D8B45DEF1DF01E51A7
:101ADA00250A0BE015C1E1FF16C1E2FF1EC1E6FFB0
:101AEA00154B162B344B352BD8D71F6B206B216B1C
:101AFA00226B23D02187010E1727000E18231923E2
:101B0A0059D02181010E1727000E1823192352D00C
:101B1A002183010E1727000E182319234BD0228781
:101B2A00010E1727000E1823192344D02185010E10
:101B3A001727000E182319233DD017C1F6FF18C125
:101B4A00F7FF19C1F8FF0900F5CF01F001502D0A7E
:101B5A00D1E017C1F6FF18C1F7FF19C1F8FF090054
:101B6A00F5CF01F00150200ACCE017C1F6FF18C1E9
:101B7A00F7FF19C1F8FF0900F5CF01F001502B0A50
:101B8A00C7E017C1F6FF18C1F7FF19C1F8FF09002E
:101B9A00F5CF01F00150230AC2E017C1F6FF18C1C0
:101BAA00F7FF19C1F8FF0900F5CF01F00150300A1B
:101BBA00BDE001D09ED721A301D0219121A701D058
:101BCA00219517C1F6FF18C1F7FF19C1F8FF0900DF
:101BDA00F5CF00F0000E016E00C03CF1FDEC04F000
:101BEA00005235E01F6B206B1FC100F020C101F0CD
:101BFA000A0E046E000E056E09DE17C1F6FF18C143
:101C0A00F7FF19C1F8FF0900F5CF02F002500024CE
:101C1A001F6F000E0120206F300E1F5F000E205B29
:101C2A00010E1727000E1823192317C1F6FF18C132
:101C3A00F7FF19C1F8FF0900F5CF00F0000E016E99
:101C4A0000C03CF1FDEC04F00052CEE133D017C1E4
:101C5A00F6FF18C1F7FF19C1F8FF0900F5CF01F027
:101C6A0001502A0A27E11AC1E9FF1BC1EAFFEECF98
:101C7A0000F0EECF01F000C0E9FF01C0EAFFEECFAD
:101C8A001FF1EECF20F11AC1E9FF1BC1EAFF020ED4
:101C9A00EE24006E000EEE20016E1AC1E1FF1BC198
:101CAA00E2FF00C0E6FF01C0E6FF010E1727000EA3
:101CBA001823192317C1F6FF18C1F7FF19C1F8FF36
:101CCA000900F5CF01F001502E0A6FE1010E172726
:101CDA00000E1823192317C1F6FF18C1F7FF19C1FF
:101CEA00F8FF0900F5CF01F001502A0A28E11AC1CC
:101CFA00E9FF1BC1EAFFEECF00F0EECF01F000C012
:101D0A00E9FF01C0EAFFEECF1CF1EECF1DF11AC1C7
:101D1A00E9FF1BC1EAFF020EEE24006E000EEE2060
:101D2A00016E1AC1E1FF1BC1E2FF00C0E6FF01C05C
:101D3A00E6FF010E1727000E1823192335D01C6B56
:101D4A001D6B17C1F6FF18C1F7FF19C1F8FF09008B
:101D5A00F5CF00F0000E016E00C03CF1FDEC04F07E
:101D6A00005222E01CC100F01DC101F00A0E046EEF
:101D7A00000E056E4BDD17C1F6FF18C1F7FF19C13A
:101D8A00F8FF0900F5CF02F0025000241C6F000E84
:101D9A0001201D6F300E1C5F000E1D5B010E172700
:101DAA00000E18231923CDD703D01C6B1D6B228973
:101DBA0017C100F018C101F019C102F0010E17276E
:101DCA00000E1823192300C0F6FF01C0F7FF02C056
:101DDA00F8FF0900F5CF1EF105D134C100F035C175
:101DEA0001F012002189E4D7228537D1218B228183
:101DFA0034D1228332D1218D30D12FD1218B218F21
:101E0A002CD11AC1E9FF1BC1EAFFEECF00F0EECFD9
:101E1A0001F000C0E9FF01C0EAFFEECF29F1EECFE1
:101E2A002AF11AC1E9FF1BC1EAFF020EEE24006E75
:101E3A00000EEE20016E1AC1E1FF1BC1E2FF00C0D5
:101E4A00E6FF01C0E6FF000E2A1902E1000E291979
:101E5A0011E1280E2D6F6E0E2E6F750E2F6F6C0E00
:101E6A00306F6C0E316F290E326F336B2D0E296F66
:101E7A00010E2A6F2B6B2C6B2B512925E96E2C51E5
:101E8A002A21EA6EEE520BE0010E2B25006E000E9F
:101E9A002C21016E00C02BF101C02CF1EDD71C5191
:101EAA001D110AE02C511D5D02E12B511C5D04E25B
:101EBA001CC12BF11DC12CF120512C5D02E11F51D7
:101ECA002B5D05E22B511F5F2C51205B02D01F6B4B
:101EDA00206B21B716D01FC100F020C101F0010EFE
:101EEA001F5F000E205B005001100BE015C1E1FFDF
:101EFA0016C1E2FF200EE66E154B162B344B352B1E
:101F0A00EAD72BC102F02CC103F0010E2B5D006E43
:101F1A00000E2C59016E00C02BF101C02CF10250A9
:101F2A00031019E029C1E9FF2AC1EAFF15C1E1FF3F
:101F3A0016C1E2FFEECFE6FF154B162B010E29253F
:101F4A00006E000E2A21016E00C029F101C02AF19B
:101F5A00344B352BD6D721A716D01FC100F020C18C
:101F6A0001F0010E1F5F000E205B005001100BE014
:101F7A0015C1E1FF16C1E2FF200EE66E154B162BC6
:101F8A00344B352BEAD789D51AC1E9FF1BC1EAFFC1
:101F9A00EECF00F0EECF01F000C0E9FF01C0EAFF8A
:101FAA00EECF1EF11AC1E9FF1BC1EAFF020EEE24B1
:101FBA00006E000EEE20016E1AC1E1FF1BC1E2FFA6
:101FCA0000C0E6FF01C0E6FF1E0E296F010E2A6F50
:101FDA00010E2B6F000E2C6F62D7C00E2113000E5C
:101FEA0022133BD01E51000AD8B4F7D61E516C0AF0
:101FFA00D8B4F8D61E51660AD8B4F6D61E51450A88
:10200A00D8B4F4D61E51650AD8B4F1D61E51670A5F
:10201A00D8B4EFD61E516F0AD8B4EDD61E51640A51
:10202A00D8B4EBD61E51690AD8B4E7D61E51700A45
:10203A00D8B4E4D61E51580AD8B4E0D61E51780A4C
:10204A00D8B4DDD61E51730AD8B4DBD61E51630A42
:10205A009BE01E51750AC1E0B7D7000E2115006E2C
:10206A002251070B016E00500110D8B408EF19F085
:10207A0022A904D0060E1C6F000E1D6F1AC1E9FFBB
:10208A001BC1EAFFEECF00F0EECF01F000C0E9FF7E
:10209A0001C0EAFFEECF23F1EECF24F1EECF25F116
:1020AA00EECF26F11AC1E9FF1BC1EAFF040EEE24A6
:1020BA00006E000EEE20016E1AC1E1FF1BC1E2FFA5
:1020CA0000C0E6FF01C0E6FF046A056A066A076AFD
:1020DA0023C100F024C101F025C102F026C103F09A
:1020EA0070DC010ED8B0000E006E005205E0257FAC
:1020FA00030E2113000E2213276B286B23C100F055
:10210A0024C101F025C102F026C103F0046A056A60
:10211A00066A076A3FDC000ED8A4010E006E005260
:10212A00D8B48AD026C100F0016A026A036AFF0E97
:10213A000016000E01167E0E005E000E015A00C047
:10214A0027F101C028F1010E005E000E015A00C0FD
:10215A0027F101C028F1030E046E000E056E0BEC88
:10216A000CF000C027F101C028F10A0E046E000E1F
:10217A00056E09EC05F000C027F101C028F1800EB8
:10218A000118026E800E025C02E1000E005C05E29C
:10219A00010E0101275F000E285B0101275100088B
:1021AA003C6F2DEC09F023C104F024C105F025C1D0
:1021BA0006F026C107F0CFEC03F000C029F101C0F8
:1021CA002AF102C02BF103C02CF1000E046E000E9E
:1021DA00056E000E066E7F0E076E29C100F02AC139
:1021EA0001F02BC102F02CC103F0E6EC0CF0010E59
:1021FA00D8B0000E006E005205E0010E275F000EF7
:10220A00285B1AD0000E046E000E056E200E066EB4
:10221A00820E076E29C100F02AC101F02BC102F01B
:10222A002CC103F0E6EC0CF0000ED8B0010E006EE3
:10223A00005202E0274B282B800E006E800E2819D0
:10224A00005C02E12751000803E3010E1E6F02D071
:10225A0027C11EF122B118D022A315D0800E281949
:10226A00006E7F0E005C02E1FC0E275D0BE3800E20
:10227A002819006E800E1D19005C02E11C51275DB1
:10228A0001E201D001D0F1D31C511D1106E022A3B5
:10229A0004D0010E1C5F000E1D5B000E006E1D5166
:1022AA00005C02E11C51080803E2080E1E6F02D00E
:1022BA001CC11EF123C100F024C101F025C102F0A6
:1022CA0026C103F0046A056A066A076ACFEC0CF0B5
:1022DA00000ED8A4010E006E0052D8B44BD127C10B
:1022EA003CF12DEC09F000C004F001C005F002C079
:1022FA0006F003C007F023C100F024C101F025C194
:10230A0002F026C103F06FEC08F000C023F101C00F
:10231A0024F102C025F103C026F101011E51000873
:10232A003C6F2DEC09F000C004F001C005F002C0BA
:10233A0006F003C007F023C100F024C101F025C153
:10234A0002F026C103F06FEC08F000C036F101C0BC
:10235A0037F102C038F103C039F136C123F137C170
:10236A0024F138C125F139C126F136C100F037C14F
:10237A0001F038C102F039C103F033EC0CF06CEC17
:10238A0005F000C004F001C005F002C006F003C069
:10239A0007F036C100F037C101F038C102F039C187
:1023AA0003F0FAEC04F0000E046E000E056E000E47
:1023BA00066E7E0E076EE6EC0CF0000ED8B0010E2B
:1023CA00006E00521AE023C100F024C101F025C1B9
:1023DA0002F026C103F0000E046E000E056E000E18
:1023EA00066E7E0E076E36EC01F000C023F101C0C6
:1023FA0024F102C025F103C026F123C100F024C153
:10240A0001F025C102F026C103F033EC0CF0010102
:10241A001E51010F096E0A6A000E0A2209C004F051
:10242A000AC005F0000E0ABEFF0E066E076E0436DD
:10243A000490053606360736043604900536063605
:10244A000736F80E0424F66E400E0520F76E000ECD
:10245A000620F86E0900F5CF05F00900F5CF06F061
:10246A000900F5CF07F00900F5CF08F00850035C22
:10247A0008E10750025C05E10650015C02E10550E3
:10248A00005C1EE3010123C100F024C101F025C153
:10249A0002F026C103F0CD0E046ECC0E056E4C0E72
:1024AA00066E7B0E076ECFEC03F000C023F101C06D
:1024BA0024F102C025F103C026F1274B282B5AD05C
:1024CA0023C100F024C101F025C102F026C103F0A6
:1024DA0033EC0CF01EC104F0000E056E066E076E9A
:1024EA000436049005360636073604360490053657
:1024FA0006360736F80E0424F66E400E0520F76EEF
:10250A00000E0620F86E0900F5CF05F00900F5CF98
:10251A0006F00900F5CF07F00900F5CF08F00850DA
:10252A00035C08E10750025C05E10650015C02E128
:10253A000550005C1FE2010123C100F024C101F033
:10254A0025C102F026C103F0000E046E000E056ECE
:10255A00200E066E820E076ECFEC03F000C023F148
:10256A0001C024F102C025F103C026F1010E275F44
:10257A00000E285B010122A393D022B791D0800ECE
:10258A00000A006E800E1D19005C02E11C510A0847
:10259A0004E20A0E1C6F000E1D6F23C100F024C155
:1025AA0001F025C102F026C103F033EC0CF000C0A3
:1025BA0029F101C02AF102C02BF103C02CF12951E3
:1025CA002A112B112C1142E00A0E046E000E056E20
:1025DA00066E076E29C100F02AC101F02BC102F074
:1025EA002CC103F0F9EC06F008C000F009C001F0B4
:1025FA000AC002F00BC003F0000E046E031808E1D3
:10260A000450021805E10450011802E10050000AC2
:10261A001DE1010E1C5F000E1D5B0A0E046E000E0A
:10262A00056E066E076E29C100F02AC101F02BC1A2
:10263A0002F02CC103F0F9EC06F000C029F101C048
:10264A002AF102C02BF103C02CF1B9D7800E1D1953
:10265A00006E800E005C02E11E511C5D21E21C51DD
:10266A001E5D3C6F2DEC09F000C004F001C005F0BE
:10267A0002C006F003C007F023C100F024C101F034
:10268A0025C102F026C103F06FEC08F000C023F167
:10269A0001C024F102C025F103C026F11CC11EF1BC
:1026AA00050E01011C25006E000E1D21016E005051
:1026BA001F5F0150205B1C511D1103E122B701D09D
:1026CA0004D0010E1F5F000E205B030E2115006E61
:1026DA0022C101F0000E01160050011004E0010EA3
:1026EA001F5F000E205B21A539D021A312D021A1A2
:1026FA0003D02D0E006E02D02B0E006E15C1E1FF25
:10270A0016C1E2FF00C0E6FF154B162B344B352BE2
:10271A000CD021A10AD015C1E1FF16C1E2FF200E9B
:10272A00E66E154B162B344B352B800E006E800E41
:10273A002019005C02E11F5100080FE215C1E1FFF8
:10274A0016C1E2FF300EE66E154B162B344B352BB5
:10275A00010E1F5F000E205BE8D73AD021B718D0D0
:10276A00800E006E800E2019005C02E11F510008E5
:10277A000FE215C1E1FF16C1E2FF200EE66E154B0E
:10278A00162B344B352B010E1F5F000E205BE8D74A
:10279A0021A312D021A103D02D0E006E02D02B0E40
:1027AA00006E15C1E1FF16C1E2FF00C0E6FF154B3E
:1027BA00162B344B352B0CD021A10AD015C1E1FFC1
:1027CA0016C1E2FF200EE66E154B162B344B352B45
:1027DA0023C100F024C101F025C102F026C103F093
:1027EA0033EC0CF000C029F101C02AF102C02BF130
:1027FA0003C02CF11EC100F0000E016E026E036EC2
:10280A000036009001360236033600360090013653
:10281A0002360336F80E0024F66E400E0120F76EDB
:10282A00000E0220F86E0900F5CF04F00900F5CF7A
:10283A0005F00900F5CF06F00900F5CF07F029C128
:10284A0000F02AC101F02BC102F02CC103F0F9EC0F
:10285A0006F0300E002615C1E1FF16C1E2FF00C0E6
:10286A00E6FF154B162B344B352B1C511D1103E17A
:10287A0022B701D06FD015C1E1FF16C1E2FF2E0EBB
:10288A00E66E154B162B344B352B1E511C5F000E72
:10289A001D5B1E534DE01E071EC100F0000E016EA7
:1028AA00026E036E00360090013602360336003699
:1028BA000090013602360336F80E0024F66E400EFA
:1028CA000120F76E000E0220F86E0900F5CF04F021
:1028DA000900F5CF05F00900F5CF06F00900F5CF9C
:1028EA0007F029C100F02AC101F02BC102F02CC166
:1028FA0003F0F9EC06F00A0E046E000E056E066E81
:10290A00076EF9EC06F008C000F009C001F00AC031
:10291A0002F00BC003F0300E002615C1E1FF16C10C
:10292A00E2FF00C0E6FF154B162B344B352BB1D70F
:10293A001C511D110FE015C1E1FF16C1E2FF300E57
:10294A00E66E154B162B344B352B010E1C5F000E11
:10295A001D5BEED721AB0BD015C1E1FF16C1E2FF1B
:10296A00450EE66E154B162B344B352B0AD015C186
:10297A00E1FF16C1E2FF650EE66E154B162B344BCE
:10298A00352B800E2819006E800E005C02E1000EC5
:10299A00275D11E227510008276F2851000E28579A
:1029AA0015C1E1FF16C1E2FF2D0EE66E154B162B7F
:1029BA00344B352B0AD015C1E1FF16C1E2FF2B0EAD
:1029CA00E66E154B162B344B352B0A0E046E000E91
:1029DA00056E27C100F028C101F009EC05F0300EA0
:1029EA00002615C1E1FF16C1E2FF00C0E6FF0101A2
:1029FA00154B162B344B352B0A0E046E000E056E42
:102A0A0027C100F028C101F009EC05F008C000F068
:102A1A0009C001F0300E002615C1E1FF16C1E2FF20
:102A2A0000C0E6FF0101154B162B344B352B21A7AD
:102A3A001AD0800E006E800E2019005C02E11F5130
:102A4A00000811E215C1E1FF16C1E2FF200EE66E91
:102A5A00154B162B344B352B010E1F5F000E205BD6
:102A6A001F512011EFE152EF0DF022A3F3D0800E97
:102A7A002819006E800E005C02E1000E275D0AE252
:102A8A00010E275D006E000E2859016E00501C5F72
:102A9A0001501D5B23C100F024C101F025C102F0E1
:102AAA0026C103F033EC0CF000C029F101C02AF171
:102ABA0002C02BF103C02CF1010E1E6F1E510A0A2F
:102ACA0034E01EC100F0000E016E026E036E003685
:102ADA00009001360236033600360090013602367F
:102AEA000336F80E0024F66E400E0120F76E000E33
:102AFA000220F86E0900F5CF01F00900F5CF02F0C7
:102B0A000900F5CF03F00900F5CF04F004502C5D5D
:102B1A0008E103502B5D05E102502A5D02E10150F4
:102B2A00295D01E202D01E2BC9D71E511C5D3A6FE6
:102B3A00000E1D593B6F3AC11CF13BC11DF129C161
:102B4A0000F02AC101F02BC102F02CC103F06CEC99
:102B5A0005F000C004F001C005F002C006F003C091
:102B6A0007F023C100F024C101F025C102F026C1FB
:102B7A0003F0FAEC04F000C036F101C037F102C0EC
:102B8A0038F103C039F13AC13CF12DEC09F036C1F4
:102B9A0004F037C105F038C106F039C107F0CFECAF
:102BAA0003F0000E046E000E056E000E066E7E0E19
:102BBA00076E36EC01F033EC0CF000C029F101C0CD
:102BCA002AF102C02BF103C02CF11C511D1142E065
:102BDA000A0E046E000E056E066E076E29C100F01D
:102BEA002AC101F02BC102F02CC103F0F9EC06F066
:102BFA0008C000F009C001F00AC002F00BC003F0DF
:102C0A00000E046E031808E10450021805E104508E
:102C1A00011802E10050000A1DE10A0E046E000EBE
:102C2A00056E066E076E29C100F02AC101F02BC19C
:102C3A0002F02CC103F0F9EC06F000C029F101C042
:102C4A002AF102C02BF103C02CF1010E1C5F000E09
:102C5A001D5BBBD7800E006E800E1D19005C02E161
:102C6A001C510C0816E31CC13CF17FEC05F023C192
:102C7A0004F024C105F025C106F026C107F036ECA0
:102C8A0001F000C023F101C024F102C025F103C004
:102C9A0026F123C100F024C101F025C102F026C1AA
:102CAA0003F0046A056A066A076ACFEC0CF0000EA4
:102CBA00D8A4010E006E0052D8B477D023C100F018
:102CCA0024C101F025C102F026C103F033EC0CF057
:102CDA00000E046E031808E10450021805E10450BE
:102CEA00011802E10050000A60E1800E006E800EB9
:102CFA002819005C02E12751010857E227C13CF17B
:102D0A002DEC09F000C004F001C005F002C006F085
:102D1A0003C007F023C100F024C101F025C102F06D
:102D2A0026C103F06FEC08F05F0E046E700E056E9C
:102D3A00090E066E810E076EE6EC0CF0010ED8B095
:102D4A00000E006E005206E0090E0101275F000E18
:102D5A00285B05D00101080E275F000E285B27C1FA
:102D6A003CF12DEC09F000C004F001C005F002C0EE
:102D7A0006F003C007F023C100F024C101F025C109
:102D8A0002F026C103F06FEC08F033EC0CF000C03F
:102D9A0029F101C02AF102C02BF103C02CF1010173
:102DAA00236B246B256B266B38D023C100F024C11A
:102DBA0001F025C102F026C103F033EC0CF000C08B
:102DCA0029F101C02AF102C02BF103C02CF129C15B
:102DDA0000F02AC101F02BC102F02CC103F06CEC07
:102DEA0005F000C004F001C005F002C006F003C0FF
:102DFA0007F023C100F024C101F025C102F026C169
:102E0A0003F0FAEC04F000C023F101C024F102C07F
:102E1A0025F103C026F1276B286B010E1E6F1E5188
:102E2A000A0A34E01EC100F0000E016E026E036E43
:102E3A00003600900136023603360036009001361D
:102E4A0002360336F80E0024F66E400E0120F76EA5
:102E5A00000E0220F86E0900F5CF01F00900F5CF47
:102E6A0002F00900F5CF03F00900F5CF04F0045091
:102E7A002C5D08E103502B5D05E102502A5D02E159
:102E8A000150295D01E202D01E2BC9D71E511C2513
:102E9A00006E000E1D21016E2751002628510122C5
:102EAA0000501F5F0150205B22B704D01C511D1136
:102EBA0001E104D0010E1F5F000E205B030E2115F5
:102ECA00006E22C101F0000E01160050011004E04C
:102EDA00010E1F5F000E205B21A539D021A312D05D
:102EEA0021A103D02D0E006E02D02B0E006E15C14B
:102EFA00E1FF16C1E2FF00C0E6FF154B162B344B6B
:102F0A00352B0CD021A10AD015C1E1FF16C1E2FF71
:102F1A00200EE66E154B162B344B352B800E006EA9
:102F2A00800E2019005C02E11F5100080FE215C152
:102F3A00E1FF16C1E2FF300EE66E154B162B344B3D
:102F4A00352B010E1F5F000E205BE8D73AD021B760
:102F5A0018D0800E006E800E2019005C02E11F510D
:102F6A0000080FE215C1E1FF16C1E2FF200EE66E6E
:102F7A00154B162B344B352B010E1F5F000E205BB1
:102F8A00E8D721A312D021A103D02D0E006E02D0C2
:102F9A002B0E006E15C1E1FF16C1E2FF00C0E6FF6D
:102FAA00154B162B344B352B0CD021A10AD015C149
:102FBA00E1FF16C1E2FF200EE66E154B162B344BCD
:102FCA00352B1EC100F01E0700524CE01EC100F056
:102FDA00000E016E026E036E003600900136023654
:102FEA00033600360090013602360336F80E002406
:102FFA00F66E400E0120F76E000E0220F86E0900F0
:10300A00F5CF04F00900F5CF05F00900F5CF06F079
:10301A000900F5CF07F029C100F02AC101F02BC140
:10302A0002F02CC103F0F9EC06F00A0E046E000E51
:10303A00056E066E076EF9EC06F008C000F009C0CE
:10304A0001F00AC002F00BC003F0300E002615C1D1
:10305A00E1FF16C1E2FF00C0E6FF154B162B344B09
:10306A00352BAFD7800E006E800E2819005C02E166
:10307A00275100080FE215C1E1FF16C1E2FF300E29
:10308A00E66E154B162B344B352B010E275F000EBF
:10309A00285BE8D7800E000A006E800E1D19005CBE
:1030AA0002E11C51080803E2080E1E6F02D01CC17F
:1030BA001EF11E511C5F000E1D5B1E5303E122B759
:1030CA0001D00AD015C1E1FF16C1E2FF2E0EE66E4D
:1030DA00154B162B344B352B1EC13CF12DEC09F048
:1030EA0023C104F024C105F025C106F026C107F06A
:1030FA00CFEC03F062EC04F000C029F101C02AF120
:10310A0002C02BF103C02CF11E534DE01E071EC155
:10311A0000F0000E016E026E036E0036009001365A
:10312A000236033600360090013602360336F80EB0
:10313A000024F66E400E0120F76E000E0220F86E93
:10314A000900F5CF04F00900F5CF05F00900F5CF25
:10315A0006F00900F5CF07F029C100F02AC101F0F5
:10316A002BC102F02CC103F0F9EC06F00A0E046E32
:10317A00000E056E066E076EF9EC06F008C000F048
:10318A0009C001F00AC002F00BC003F0300E00269D
:10319A0015C1E1FF16C1E2FF00C0E6FF154B162B71
:1031AA00344B352BB1D71C511D110FE015C1E1FF6E
:1031BA0016C1E2FF300EE66E154B162B344B352B3B
:1031CA00010E1C5F000E1D5BEED721A71AD0800EE0
:1031DA00006E800E2019005C02E11F51000811E206
:1031EA0015C1E1FF16C1E2FF200EE66E154B162B44
:1031FA00344B352B010E1F5F000E205B1F5120112F
:10320A00EFE152EF0DF0C00E2115016E22C102F05E
:10321A00000E0216000E021802E1000E0118D8A4D0
:10322A007CD021A927D01AC1E9FF1BC1EAFFEECF42
:10323A0000F0EECF01F000C0E9FF01C0EAFFEECFD7
:10324A0029F1EECF2AF1EECF2BF1EECF2CF11AC1F4
:10325A00E9FF1BC1EAFF040EEE24006E000EEE2009
:10326A00016E1AC1E1FF1BC1E2FF00C0E6FF01C007
:10327A00E6FF2BD01AC1E9FF1BC1EAFFEECF00F02F
:10328A00EECF01F000C0E9FF01C0EAFFEECF00F087
:10329A00EECF01F000C029F101C02AF1000E01BEF3
:1032AA00FF0E2B6F2C6F1AC1E9FF1BC1EAFF020E3A
:1032BA00EE24006E000EEE20016E1AC1E1FF1BC162
:1032CA00E2FF00C0E6FF01C0E6FF800E2C19006E87
:1032DA00800E005C08E1000E2B5D05E1000E2A5D00
:1032EA0002E1000E295D18E2030E2113000E2213DB
:1032FA00006A016A026A036A2951005E2A51015A68
:10330A002B51025A2C51035A00C029F101C02AF14B
:10331A0002C02BF103C02CF14ED021A927D01AC12B
:10332A00E9FF1BC1EAFFEECF00F0EECF01F000C0CB
:10333A00E9FF01C0EAFFEECF29F1EECF2AF1EECF85
:10334A002BF1EECF2CF11AC1E9FF1BC1EAFF040EE3
:10335A00EE24006E000EEE20016E1AC1E1FF1BC1C1
:10336A00E2FF00C0E6FF01C0E6FF25D01AC1E9FF6F
:10337A001BC1EAFFEECF00F0EECF01F000C0E9FF7B
:10338A0001C0EAFFEECF29F1EECF2AF1000E2B6F32
:10339A002C6F1AC1E9FF1BC1EAFF020EEE24006E70
:1033AA00000EEE20016E1AC1E1FF1BC1E2FF00C050
:1033BA00E6FF01C0E6FF000E1D1902E1000E1C190E
:1033CA000FE1000E006E2C1908E100502B1905E1DF
:1033DA0000502A1902E12951000A02E11C4B1D2B57
:1033EA00C00E2115006E00C005F0AED0010E1E6F92
:1033FA001E510A0A34E01EC100F0000E016E026E70
:10340A00036E00360090013602360336003600900D
:10341A00013602360336F80E0024F66E400E0120FD
:10342A00F76E000E0220F86E0900F5CF01F00900D0
:10343A00F5CF02F00900F5CF03F00900F5CF04F04B
:10344A0004502C5D08E103502B5D05E102502A5D12
:10345A0002E10150295D01E202D01E2BC9D782D0B8
:10346A00010E1E6F1E51080A34E01EC100F0000E44
:10347A00016E026E036E0036009001360236033684
:10348A0000360090013602360336200E0024F66E0E
:10349A00410E0120F76E000E0220F86E0900F5CFEA
:1034AA0001F00900F5CF02F00900F5CF03F0090099
:1034BA00F5CF04F004502C5D08E103502B5D05E1C3
:1034CA0002502A5D02E10150295D01E202D01E2B61
:1034DA00C9D748D0010E1E6F1E510C0A34E01EC116
:1034EA0000F0000E016E026E036E00360090013687
:1034FA000236033600360090013602360336C80E0D
:10350A000024F66E400E0120F76E000E0220F86EBF
:10351A000900F5CF01F00900F5CF02F00900F5CF57
:10352A0003F00900F5CF04F004502C5D08E10350C4
:10353A002B5D05E102502A5D02E10150295D01E29D
:10354A0002D01E2BC9D70ED00550000AD8B44ED7C8
:10355A000550C00AD8B44AD70550800A81E0055000
:10356A00400AB8E0800E006E800E1D19005C02E170
:10357A001C511E5D03E21CC11EF10DD0800E1D19E7
:10358A00006E800E005C02E11E511C5D04E21EC149
:10359A001CF1000E1D6F1F5120110EE0030E2115A4
:1035AA00006E22C101F0000E01160050011004E065
:1035BA00010E1F5F000E205B800E1D19006E800E2B
:1035CA002019005C02E11F511C5D05E21C511F5FBE
:1035DA001D51205B02D01F6B206BC40E2115016E9A
:1035EA002251080B026E0250080A02E1400E01182D
:1035FA0008E11F51201104E0010E1F5F000E205B3D
:10360A001CD0C00E2115016E2251080B026E025009
:10361A00080A02E1800E011810E1800E006E800E89
:10362A002019005C02E11F51020805E2020E1F5F29
:10363A00000E205B02D01F6B206B21A55DD021A359
:10364A0012D021A103D02D0E006E02D02B0E006ED7
:10365A0015C1E1FF16C1E2FF00C0E6FF154B162BAC
:10366A00344B352B34D021A10BD015C1E1FF16C143
:10367A00E2FF200EE66E154B162B344B352B27D066
:10368A00C00E2115016E2251080B026E0250080A63
:10369A0002E1800E01181BE115C1E1FF16C1E2FF2C
:1036AA00300EE66E154B162B344B352B21AB03D05F
:1036BA00580E006E02D0780E006E15C1E1FF16C1D9
:1036CA00E2FF00C0E6FF154B162B344B352B1F517A
:1036DA00201111E015C1E1FF16C1E2FF300EE66EBE
:1036EA00154B162B344B352B010E1F5F000E205B3A
:1036FA001F512011EFE174D01F51201113E021B79F
:10370A0011D015C1E1FF16C1E2FF200EE66E154B7E
:10371A00162B344B352B010E1F5F000E205B1F51F9
:10372A002011EFE121A312D021A103D02D0E006EAA
:10373A0002D02B0E006E15C1E1FF16C1E2FF00C0D8
:10374A00E6FF154B162B344B352B0CD021A10AD092
:10375A0015C1E1FF16C1E2FF200EE66E154B162BCE
:10376A00344B352BC00E2115016E2251080B026E07
:10377A000250080A02E1400E01180BE115C1E1FFEF
:10378A0016C1E2FF300EE66E154B162B344B352B65
:10379A0027D0C00E2115016E2251080B026E02506D
:1037AA00080A02E1800E01181BE115C1E1FF16C1EA
:1037BA00E2FF300EE66E154B162B344B352B21AB40
:1037CA0003D0580E006E02D0780E006E15C1E1FFCC
:1037DA0016C1E2FF00C0E6FF154B162B344B352B02
:1037EA00800E006E800E1D19005C02E11C511E5DE8
:1037FA000BE215C1E1FF16C1E2FF300EE66E154B72
:10380A00162B344B352BECD71CC100F01DC101F02F
:10381A00010E1C5F000E1D5B00500110D8B42AD1A6
:10382A00C00E2115006E00C036F10AD11CC100F08D
:10383A001DC101F0000E1DBFFF0E026E036E0036A1
:10384A000090013602360336003600900136023601
:10385A000336F80E0024F66E400E0120F76E000EB5
:10386A000220F86E0900F5CF04F00900F5CF05F043
:10387A000900F5CF06F00900F5CF07F029C100F0DD
:10388A002AC101F02BC102F02CC103F0F9EC06F0B9
:10389A000A0E046E000E056E066E076EF9EC06F04F
:1038AA0008C000F009C001F00AC002F00BC003F022
:1038BA00300E00241E6FD3D021AB45D01CC100F0BE
:1038CA001DC101F0000E1DBFFF0E026E036E003611
:1038DA000090013602360336003600900136023671
:1038EA000336200E0024F66E410E0120F76E000EFC
:1038FA000220F86E0900F5CF04F00900F5CF05F0B3
:10390A000900F5CF06F00900F5CF07F029C100F04C
:10391A002AC101F02BC102F02CC103F0F9EC06F028
:10392A000F0E0016000E011602160316400E002492
:10393A00F66E410E0120F76E000E0220F86E0900A5
:10394A00F5CF1EF144D01CC100F01DC101F0000EDC
:10395A001DBFFF0E026E036E00360090013602365E
:10396A00033600360090013602360336200E002454
:10397A00F66E410E0120F76E000E0220F86E090065
:10398A00F5CF04F00900F5CF05F00900F5CF06F0F0
:10399A000900F5CF07F029C100F02AC101F02BC1B7
:1039AA0002F02CC103F0F9EC06F00F0E0016000E1F
:1039BA00011602160316510E0024F66E410E01205E
:1039CA00F76E000E0220F86E0900F5CF1EF147D0FF
:1039DA001CC100F01DC101F0000E1DBFFF0E026EDA
:1039EA00036E003600900136023603360036009028
:1039FA00013602360336C80E0024F66E400E012048
:103A0A00F76E000E0220F86E0900F5CF04F00900E7
:103A1A00F5CF05F00900F5CF06F00900F5CF07F05C
:103A2A0029C100F02AC101F02BC102F02CC103F018
:103A3A00F9EC06F0070E00141E6F300E1E270FD089
:103A4A003651000AD8B4F2D63651C00AD8B4EED6E6
:103A5A003651800AD8B430D73651400AB9E015C178
:103A6A00E1FF16C1E2FF1EC1E6FF154B162B344BD0
:103A7A00352BCAD621A71AD0800E006E800E2019C7
:103A8A00005C02E11F51000811E215C1E1FF16C1F5
:103A9A00E2FF200EE66E154B162B344B352B010E2A
:103AAA001F5F000E205B1F512011EFE152EF0DF056
:0A3ABA0034C100F035C101F0120024
:0E3AC400ACB202D00000FCD715C1ADFF12005D
:103AD2000EC100F001010E07005227E00AC1E9FF02
:103AE2000BC1EAFFEE50000A0CE00AC1E9FF0BC16C
:103AF200EAFF0CC1D9FF0DC1DAFFEE50DE1801E179
:103B02000FD00AC1E9FF0BC1EAFF0CC1D9FF0DC1F9
:103B1200DAFFDE50EE5C006E016A000E015A1200FE
:103B22000A4B0B2B0C4B0D2BD3D7006A016A1200E8
:103B32000AC102F00BC103F002C000F003C001F0A1
:103B4200024A032A00C0E9FF01C0EAFFEE5201E087
:103B5200F3D701010A51025C006E0B510358016E4A
:0A3B6200010E005E000E015A120071
:103B6C000F0E0101136F010E146F0AC115F10BC179
:103B7C0016F10CC117F10DC118F10EC119F1130E8C
:103B8C001A6F010E1B6F4DEC0DF000C011F101C04E
:103B9C0012F100500A25E16E01500B21E26EE66A2B
:0A3BAC0011C100F012C101F0120077
:103BB6000AC1E9FF0BC1EAFFEE5001010C1905E14C
:103BC6000AC100F00BC101F012000A4B0B2B0AC10F
:103BD600E9FF0BC1EAFFEECF00F00052E9E1006A0F
:043BE600016A12005E
:0A3BEA00000E9EBA010E006E1200DC
:103BF40001010D6B0AC1E9FF0BC1EAFFEECF0CF125
:103C04000C51000A0EE00CC115F15ADF01010D2B15
:103C14000D510A25E96E000E0B21EA6EEECF0CF170
:043C2400EFD71200C4
:103C2800AECFF5F0ABA202D0AB98AB88F5C000F0F0
:023C3800120078
:103C3A00C40E0001FA6F3A0EFB6F150EFC6F010EEF
:103C4A00FD6F280EF16F3C0EF26F000EF36F000E3F
:103C5A00F46FEA0EED6F3B0EEE6F000EEF6F000E83
:103C6A00F06FFF0EF66FFF0EF76F000EF86F000E83
:103C7A00F96FAC8A900EAB6E948E949C9EAA03D078
:083C8A00AECF00F0FBD71200E1
:103C92000900F5CFE6FF0006FBE10106F9E112009B
:103CA2000C0E0101156F0DDFFE0E01010A6F000EF1
:103CB2000B6F620E0C6F410E0D6F000E0E6FD6C0B1
:103CC2000FF1D7C010F151DFC20E0A6F000E0B6F59
:103CD20090DF000E0A6F010E0B6F8BDF000E0A6F72
:103CE200010E0B6F86DFDF0E0A6F000E0B6F81DF96
:103CF200000E0A6F010E0B6F7CDFD80E0A6F000EEA
:103D02000B6F77DF000E0A6F010E0B6F72DF5B0E17
:103D12000A6F000E0B6F6DDF000E0A6F010E0B6F44
:103D220068DF380E0A6F000E0B6F63DF000E0A6F3A
:103D3200010E0B6F5EDF7C0E0A6F000E0B6F59DFF8
:103D4200620E0A6F000E0B6F54DFFE0E0A6F000E3A
:103D52000B6F4FDF000E0A6F010E0B6F4ADF150E5D
:103D62000A6F000E0B6F45DF000E0A6F010E0B6F1C
:043D720040DF12001C
:103D76000101086B096B065342E00651FF0A01E098
:103D8600060730DF0050000A01E1FBD74ADF00C01A
:103D960007F1010108510225E16E000E0321E26ED2
:103DA60000C0E6FF082B09510425E96E000E052127
:103DB600EA6EEE50071902E1092B09D0096B04C11E
:103DC600E9FF05C1EAFFEE50071901E1092B095188
:103DD6000425E96E000E0521EA6EEE50000A0EE19A
:103DE6000951085D006E016A000E015A0050022555
:103DF600E16E01500321E26EE66A1200BCD702C1F1
:0A3E0600E1FF03C1E2FFE66A1200CB
:103E1000000E0101031902E1000E021934E002C193
:103E2000E9FF03C1EAFFEE522EE004C10AF105C129
:103E30000BF17FDE00C00EF102C10AF103C10BF1EC
:103E400004C10CF105C10DF144DE000E011802E1C0
:103E5000000E001805E102C100F003C101F01200DC
:103E60000101010E02250A6F000E03210B6F04C130
:103E7000E9FF05C1EAFFEECF0CF19DDE00C002F1C3
:0C3E800001C003F1C5D7006A016A1200FE
:103E8C00B3EC20F00D0E0101006F016B330EAF6E21
:103E9C00AC84CDDE020E0B6E040E0C6EBA0E0D6EE3
:103EAC000D2EFED70C2EFCD70B2EFAD700000001DE
:103EBC00E76BE86BF0DEEB0E026F000E036F000E8B
:103ECC00046F010E056F020E066F4FDF0001E96BE8
:103EDC00EA6B8B0E01010A6F000E0B6F24DE800E55
:103EEC000001EA19026E800E0118025C02E100501A
:103EFC00E95D18E28B0EE925E96E000EEA21EA6E07
:103F0C00EE50EB190CE17C0EE925E16E000EEA2176
:103F1C00E26EEBC0E6FF010EE76F000EE86FE94BB7
:103F2C00EA2BD7D7E751E81104E1010ED65F000E5A
:103F3C00D75BD651D71107E1AEDE9C0E0A6F000E8F
:103F4C000B6F52DE1DD001017C0E026F000E036F51
:103F5C009A0E046F000E056F55DF000E011802E17A
:103F6C00000E00180CE1A60E01010A6F000E0B6F7B
:103F7C003BDE8B0E0A6F000E0B6F36DE01D097D72F
:023F8C00FFD75D
:1041660010EE15F0D20E006E010E016E8E0EF66E7A
:0E4176003F0EF76E000EF86E49EC1EF01200C0
:103F8E002D2D2D2D2D2D2D2D2D2D2D2D2D2D2D2D53
:103F9E002D2D2D2D2D2D2D2D2D2D2D2D2D2D2D2D43
:033FAE002D2D00B6
:103FB1002D2D2D2D2D2D2D2D2D2D2D2D2D2D2D2D30
:103FC1002D2D2D2D2D2D2D2D2D2D2D2D2D2D2D2D20
:033FD1002D2D0093
:073FD4004C4D49444E4F0023
:103FDB00202D2054656E746174697661732072654F
:0A3FEB007374616E7465733A200070
:0F3FF5005F5F5F5F5F5F5F5F5F5F5F5F5F5F008B
:0F400400504152414C454C4550495045444F00A6
:024013005F004C
:0A40150047414D45204F564552002B
:10401F00564F43452056454E43455521204120508C
:0C402F00414C41565241204552412000B6
:10403B004A4F474F20444120464F524341202D20A9
:04404B00312E3000E2
:02404F0005006A
:07405100454A5048524100AE
:084058004C65747261733A00BB
:104060000000007F000020820000488500007A8860
:1040700000401C8C0050438F002474928096189648
:1040800020BC3E99286B6E9CF90215A0EC782DC1DE
:04409000CAF249E245
:104094000000007FCDCC4C7B0AD723786F120375C8
:1040A40017B75171ACC5276EBD37066B95BF566700
:1040B40077CC2B645F700961FFE65B5D08E53C3CEF
:0440C4006042221B19
:1040C800010000000800000040000000000200009D
:1040D8000010000000800000000004000000200024
:1040E800000000010000000800000040000000007F
:1040F800010000000A00000064000000E80300005E
:1041080010270000A086010040420F00809698000A
:0841180000E1F50500CA9A3B25
:10412000010000001000000000010000001000006D
:10413000000001000000100000000001000000105D
:1041400030313233343536373839414243444546CD
:01415000006E
:1041510030313233343536373839616263646566FC
:01416100005D
:03416200256400D1
:020000040030CA
:0D000100220F0EFF0181FF0FC00FE00F4026
:00000001FF
