:1000000063EF01F00000000000EF00F000000000CE
:0A0010000000000000000000F3D71C
:10001C00AECFBEF0ABA202D0AB98AB88BEC000F0A6
:02002C001200C0
:0A002E00000E9EBA010E006E1200D3
:0E003800ACB202D00000FCD7C9C0ADFF120070
:10004600CDC000F00001CD07005227E0C9C0E9FF8E
:10005600CAC0EAFFEE50000A0CE0C9C0E9FFCAC0F8
:10006600EAFFCBC0D9FFCCC0DAFFEE50DE1801E1C3
:100076000FD0C9C0E9FFCAC0EAFFCBC0D9FFCCC0C8
:10008600DAFFDE50EE5C006E016A000E015A1200C5
:10009600C94BCA2BCB4BCC2BD3D7006A016A1200B3
:1000A600C9C0E9FFCAC0EAFFEE500001CB1905E15D
:1000B600C9C000F0CAC001F01200C94BCA2BC9C0A2
:1000C600E9FFCAC0EAFFEECF00F00052E9E1006A9C
:0400D600016A1200A9
:1000DA00C9C002F0CAC003F002C000F003C001F0B8
:1000EA00024A032A00C0E9FF01C0EAFFEE5201E01A
:1000FA00F3D70001C951025C006ECA510358016E60
:0A010A00010E005E000E015A120003
:100114000900F5CFE6FF0006FBE10106F9E1120054
:10012400380E0001BA6F000EBB6FC90EBC6F000E13
:10013400BD6F1C0EAE6F000EAF6F000EB06F000EE1
:10014400B16F2E0EB26F000EB36F000EB46F000EBF
:10015400B56FFF0EB66FFF0EB76F000EB86F000ECF
:10016400B96FAC8A900EAB6E948E949C9EAA03D009
:08017400AECF00F0FBD7120032
:10017C000001C46BC1C0E9FFC2C0EAFFEECFC3F0FF
:10018C00C351000A0EE0C3C0C9F050DF0001C42BFC
:10019C00C451C125E96E000EC221EA6EEECFC3F048
:0401AC00EFD7120077
:1001B000000E0001C21902E1000EC11934E0C1C0F5
:1001C000E9FFC2C0EAFFEE522EE0C3C0C9F0C4C0CE
:1001D000CAF083DF00C0CDF0C1C0C9F0C2C0CAF010
:1001E000C3C0CBF0C4C0CCF02EDF000E011802E17A
:1001F000000E001805E1C1C000F0C2C001F01200FD
:100200000001010EC125C96F000EC221CA6FC3C013
:10021000E9FFC4C0EAFFEECFCBF045DF00C0C1F07C
:0C02200001C0C2F0C5D7006A016A1200DC
:10022C000001C76BC86BC55342E0C551FF0A01E022
:10023C00C507F7DE0050000A01E1FBD7E9DE00C07C
:10024C00C6F00001C751C125E16E000EC221E26E5D
:10025C0000C0E6FFC72BC851C325E96E000EC421B0
:10026C00EA6EEE50C61902E1C82B09D0C86BC3C0A8
:10027C00E9FFC4C0EAFFEE50C61901E1C82BC85112
:10028C00C325E96E000EC421EA6EEE50000A0EE1A1
:10029C00C851C75D006E016A000E015A0050C1259D
:1002AC00E16E0150C221E26EE66A1200BCD7C1C0F9
:0A02BC00E1FFC2C0E2FFE66A120093
:1002C60045EC02F00D0E0001BF6FC06B330EAF6E32
:1002D600AC8425DF020E0B6E040E0C6EBA0E0D6E8C
:1002E6000D2EFED70C2EFCD70B2EFAD70000980E3B
:1002F6000001C16F000EC26F3EDFBF0EC16F000E60
:10030600C26F39DFBF0EC16F000EC26F34DF690ED8
:10031600C16F000EC26F2FDFBF0EC16F000EC26F1E
:100326002ADF710EC16F000EC26F25DFBF0EC16FCF
:10033600000EC26F20DF780EC16F000EC26F1BDF8A
:10034600BF0EC16F000EC26F16DF460EC16F000EE4
:10035600C26F11DFBF0EC16F000EC26F0CDF150E2C
:10036600C16F000EC26F07DFBF0EC16F000EC26FF6
:1003760002DF230EC16F000EC26FFDDEBF0EC16F1E
:10038600000EC26FF8DEAC0EC16F000EC26FBF0E5C
:10039600C36F000EC46F020EC56F45DFAC0EC16F92
:1003A600000EC26FE8DE7F0EC16F000EC26FAC0E8C
:1003B600C36F000EC46FF9DE0150000A02E1000EA1
:1003C600001807E1870E0001C16F000EC26FD3DE71
:1003D60006D000018F0EC16F000EC26FCCDEBF0EBD
:0C03E600C16F000EC26FC7DECED7FFD77C
:10048A0010EE15F0970E006E010E016EF20EF66E6A
:0E049A00030EF76E000EF86E8AEC00F01200F2
:0E03F2005F205F205F205F205F205F205F00A4
:100400002D2D2D2D2D2D2D2D2D2D2D2D2D2D2D2D1C
:100410002D2D2D2D2D2D2D2D2D2D2D2D2D2D2D2D0C
:030420002D2D007F
:100423002D2D2D2D2D2D2D2D2D2D2D2D2D2D2D2DF9
:100433002D2D2D2D2D2D2D2D2D2D2D2D2D2D2D2DE9
:030443002D2D005C
:080446004C65747261733A0009
:07044E004541514F444900F4
:070455004F4E5A4D594B00B8
:08045C0044454D4F4E494F008D
:080464002065727261646F00F3
:09046C0020636F727265746F0069
:100475004A4F474F20444120464F524341202D20AB
:04048500312E3000E4
:020000040030CA
:0D000100220F0EFF0181FF0FC00FE00F4026
:00000001FF
