:1000000032EF01F00000000000EF00F000000000FF
:0A0010000000000000000000F3D71C
:0E001C00ACB202D00000FCD7D6C0ADFF12007F
:10002A000001D56BD2C0E9FFD3C0EAFFEECFD4F00E
:10003A00D451000A0EE0D4C0D6F0EBDF0001D52B74
:10004A00D551D225E96E000ED321EA6EEECFD4F057
:04005A00EFD71200CA
:0A005E00000E9EBA010E006E1200A3
:10006800AECFC7F0ABA202D0AB98AB88C7C000F048
:02007800120074
:10007A000001D06BD16BCE5342E0CE51FF0A01E0B2
:10008A00CE07E8DF0050000A01E1FBD7E8DF00C035
:10009A00CFF00001D051CA25E16E000ECB21E26EED
:1000AA0000C0E6FFD02BD151CC25E96E000ECD2140
:1000BA00EA6EEE50CF1902E1D12B09D0D16BCCC038
:1000CA00E9FFCDC0EAFFEE50CF1901E1D12BD151A2
:1000DA00CC25E96E000ECD21EA6EEE50000A0EE143
:1000EA00D151D05D006E016A000E015A0050CA2536
:1000FA00E16E0150CB21E26EE66A1200BCD7CAC09B
:0A010A00E1FFCBC0E2FFE66A12003D
:100114001C0E0001C16F000EC26FD60EC36F000E1D
:10012400C46F680EB56F000EB66F000EB76F000E89
:10013400B86F5E0EB96F000EBA6F000EBB6F000E83
:10014400BC6FFF0EBD6FFF0EBE6F000EBF6F000EC3
:10015400C06FAC8A900EAB6E948E949C9EAA03D012
:08016400AECF00F0FBD7120042
:10016C000900F5CFE6FF0006FBE10106F9E11200FC
:10017C00CAC002F0CBC003F002C000F003C001F013
:10018C00024A032A00C0E9FF01C0EAFFEE5201E077
:10019C00F3D70001CA51025C006ECB510358016EBB
:0A01AC00010E005E000E015A120061
:1001B6008E0E0001D26F000ED36F34DFC80ED26FE1
:1001C600000ED36F2FDFC80ED26F000ED36F2ADF5B
:1001D600A90ED26F000ED36F25DFC80ED26F000EA8
:1001E600D36F20DFA20ED26F000ED36F1BDFC80EB7
:1001F600D26F000ED36F16DF540ED26F000ED36F80
:1002060011DFC80ED26F000ED36F0CDF5B0ED26FFC
:10021600000ED36F07DFC80ED26F000ED36F02DF5A
:100226007E0ED26F000ED36FFDDE3A0ED26F000E39
:10023600D36FF8DE15C0D2F016C0D3F0F3DEC80EC9
:10024600D26F000ED36FEEDE170ED26F000ED36F95
:0E025600E9DEC80ED26F000ED36FE4DE120098
:10026400E4EC01F00D0E0001C86FC96B330EAF6EE4
:10027400AC844EDF020E0B6E040E0C6EBA0E0D6EC5
:100284000D2EFED70C2EFCD70B2EFAD70000800EB5
:10029400006E800E1618005C02E11550000843E25F
:1002A4000001B16BB26B85DFB30ECA6F000ECB6F6A
:1002B400C80ECC6F000ECD6F020ECE6FDCDEC56BA8
:1002C400C66B860ECA6F000ECB6F56DF800EC61942
:1002D400026E800E0118025C02E10050C55D18E256
:1002E400860EC525E96E000EC621EA6EEE50B319DE
:1002F4000CE17E0EC525E16E000EC621E26EB3C090
:10030400E6FF010EB16F000EB26FC54BC62BD9D7F5
:10031400000EB21902E1000EB11904E1010E155EDE
:08032400000E165AB4D7FFD7F2
:1003C80010EE15F09C0E006E010E016E2C0EF66EEE
:0E03D800030EF76E000EF86EB6EC00F0120089
:02032C000500CA
:10032E002D2D2D2D2D2D2D2D2D2D2D2D2D2D2D2DEF
:10033E002D2D2D2D2D2D2D2D2D2D2D2D2D2D2D2DDF
:03034E002D2D0052
:10035100202D2054656E7461746976617320726515
:0A0361007374616E7465733A200036
:07036B004F4E5A4D594B00A3
:100372002D2D2D2D2D2D2D2D2D2D2D2D2D2D2D2DAB
:100382002D2D2D2D2D2D2D2D2D2D2D2D2D2D2D2D9B
:030392002D2D000E
:080395005F5F5F5F5F5F5F00C7
:08039D0044454D4F4E494F004D
:1003A5004A4F474F20444120464F524341202D207C
:0403B500312E3000B5
:0703B9004541514F4449008A
:0803C0004C65747261733A0090
:020000040030CA
:0D000100220F0EFF0181FF0FC00FE00F4026
:00000001FF
