:10000000F6EF1FF00000000000EF00F0000000001D
:0A0010000000000000000000F3D71C
:08001C000AAE029E000E120064
:100024000B820BAE1CEF00F00368026801680068E5
:080034000A360232FF0E120031
:0E003C00026A016A006A086A036A000E120076
:10004A000B840BAE30EF00F0010E036E026A016AF8
:0A005A00006A0A360232FF0E12009F
:100064000CB074EF00F00CA21AEF01F00E6A000E4F
:1000740002648BEF00F0F00E0214D8A456EF00F0E7
:10008400023A01380F0B02260138F00B016E0038DA
:100094000F0B01260038F00B006E08380F0B0026FA
:1000A4000838F00B086E0E84D89002BE6FEF00F093
:1000B40008360036013602360E2A02BE6FEF00F013
:1000C40008360036013602360E2A02BE6FEF00F003
:1000D40008360036013602360E2A0E50036410EF3D
:1000E40001F0035E0BBC08AE15EF01F0D880800E62
:1000F40008640030000E002201220222D8A015EF6D
:1001040001F0023201320032034A1AEF01F015EF16
:1001140001F001C002F000C001F008C000F0086A5C
:10012400000E0E860264C2EF00F0F00E0214D8A492
:10013400AAEF00F0023A01380F0B02260138F00B47
:10014400016E00380F0B01260038F00B006E0E8490
:10015400D89002BE6FEF00F00036013602360E2A48
:1001640002BE6FEF00F00036013602360E2A02BEE0
:100174006FEF00F00036013602360E2A6FEF00F002
:1001840001C002F000C001F0006A000E0E960E8855
:100194000264EFEF00F0F00E0214D8A4DAEF00F0DE
:1001A400023A01380F0B02260138F00B016E0E845F
:1001B400D89002BE6FEF00F0013602360E2A02BE5E
:1001C4006FEF00F0013602360E2A02BE6FEF00F028
:1001D400013602360E2A6FEF00F001C002F0016A08
:1001E400000E0E8602641FEF01F0F00E0214D8A474
:1001F400FEEF00F0023A0E84D89002BE6FEF00F0DA
:1002040002360E2A02BE6FEF00F002360E2A02BE3C
:100214006FEF00F002360E2A6FEF00F0010E0C6E45
:1002240012DF22EF01F0020E0C6EF6DE22EF01F077
:10023400040E0C6EF5DE22EF01F0080E0C6EFCDEEF
:020244001200A6
:080246000B6A0B86FF0E12008B
:10024E00086A080E0C6E003408360450085ED8B0EA
:0E025E0002D00826D89000360C2EF5D71200DC
:10026C00025006180E6E086A096A0B6A035007647E
:10027C0029EF02F006500A6E068E028E03500B6EAA
:10028C000750036E000E0B6479EF01F00B50075E04
:10029C00D8B41AEF02F0070E0764E8EF01F0075E1E
:1002AC0000C008F001C000F002C001F0026A074E65
:1002BC001AEF02F00764BDEF01F0075E00C008F012
:1002CC0001C000F0016A074E1AEF02F007649BEFC1
:1002DC0001F0075E00C008F0006A074E1AEF02F04A
:1002EC00076482EF01F00AC002F005C001F004C0FF
:1002FC0000F0086A43EF03F0030E07648DEF01F082
:10030C00075E08380F0B086E074E1AEF02F0D890F4
:10031C000832074E1AEF02F0D8900832074E1AEF47
:10032C0002F0D89008321AEF02F0030E0764ACEF1B
:10033C0001F0075E08380F0B086E0038F00B08262A
:10034C0000380F0B006E074E1AEF02F0D8900032F7
:10035C000832074E1AEF02F0D89000320832074EDE
:10036C001AEF02F0D890003208321AEF02F0030EA6
:10037C000764D4EF01F0075E08380F0B086E0038E5
:10038C00F00B082600380F0B006E0138F00B00261E
:10039C0001380F0B016E074E1AEF02F0D8900132A4
:1003AC0000320832074E1AEF02F0D89001320032B8
:1003BC000832074E1AEF02F0D890013200320832A0
:1003CC001AEF02F0030E076405EF02F0075E08381F
:1003DC000F0B086E0038F00B082600380F0B006E60
:1003EC000138F00B002601380F0B016E0238F00BB0
:1003FC00012602380F0B026E074E1AEF02F0D8904E
:10040C000232013200320832074E1AEF02F0D89055
:10041C000232013200320832074E1AEF02F0D89045
:10042C000232013200320832096A000E0EAE0EEFB3
:10043C0003F0081E001E011E021E082A00220122C3
:10044C0002220EEF03F00750D8A42FEF02F043EF77
:10045C0003F0096A02C00AF0028E068E0750035C94
:10046C00076ED8B401EF03F0070E0764CFEF02F06C
:10047C00075E0450096E0550046E0650056E066A40
:10048C00074E01EF03F0070E0764A4EF02F0075EBE
:10049C000450096E0550046E056A074E01EF03F017
:1004AC00070E076482EF02F0075E0450096E046ABF
:1004BC00074E01EF03F0070E076469EF02F00AC064
:1004CC0002F043EF03F0030E076474EF02F0075ED3
:1004DC0009380F0B096E074E01EF03F0D890093263
:1004EC00074E01EF03F0D8900932074E01EF03F0ED
:1004FC00D890093201EF03F0030E076493EF02F07A
:10050C00075E09380F0B096E0438F00B0926043806
:10051C000F0B046E074E01EF03F0D8900432093232
:10052C00074E01EF03F0D89004320932074E01EF69
:10053C0003F0D8900432093201EF03F0030E076484
:10054C00BBEF02F0075E09380F0B096E0438F00B95
:10055C00092604380F0B046E0538F00B04260538F9
:10056C000F0B056E074E01EF03F0D89005320432E5
:10057C000932074E01EF03F0D890053204320932EC
:10058C00074E01EF03F0D89005320432093201EF27
:10059C0003F0030E0764ECEF02F0075E09380F0B53
:1005AC00096E0438F00B092604380F0B046E05385D
:1005BC00F00B042605380F0B056E0638F00B0526DC
:1005CC0006380F0B066E074E01EF03F0D89006327B
:1005DC00053204320932074E01EF03F0D89006328F
:1005EC00053204320932074E01EF03F0D89006327F
:1005FC00053204320932086A000E0EAE0EEF03F01B
:10060C00091E041E051E061E092A042205220622A6
:10061C0009500826045000220550012206500222DF
:10062C000EBE25EF03F0D8A034EF03F002320132F6
:10063C0000320832033E34EF03F03EEF03F0D8B043
:10064C0039EF03F0000E081E001E011E021E082AC0
:10065C000022012202220A7E39EF03F0010E0C6EF9
:10066C00FBDC45EF03F0020E0C6EF6DC45EF03F0FD
:10067C00040E0C6ED1DC45EF03F0000E0C6E120074
:10068C000B800BAE52EF03F0026A0AAEFF0E026E45
:0C069C00016E006E0A360232FF0E1200E2
:1006A8000D6A086A0050D8B4000C04180A6E0ABE15
:1006B8000D1E0B6A04AE02D0041E042A00A002D04C
:1006C800001E002A005004100A6E0ABE1FD00450F3
:1006D800085E003600340836045008260036060E38
:1006E8000C6E00340836045000B0085E00A00826DE
:1006F80000360C2EF6D700A008260BB015D00DAE8C
:10070800000C001E002A081E082A000C04AE09D09E
:1007180000BE04D00050086E006AF1D7006A002AB3
:10072800000C001E0B2AD3D7082A0450085CD8A452
:0E073800E6D7086A002A00AEE2D7FF0C1200D6
:100746000134083609360450085E0550D8A0053C29
:10075600095E003601360F0E0C6E01340836093676
:10076600045000A006D0085E0550D8A0053C095EDE
:1007760005D008260550D8B0053C092600360136B6
:100786000C2EEBD700B006D0045008260550D8B082
:08079600053C092600001200D9
:10079E00086A096A000E0762036454EF04F00250FF
:1007AE0006180A6E075003267E0ED8A0E5EF03F05A
:1007BE00035ED8B059EF04F0E9EF03F0035ED8A062
:1007CE005EEF04F0028E068E02C00EF001C00BF03A
:1007DE0000C00DF000500402F4CF0CF001500502E1
:1007EE00F4CF00F0F3CF08F00402F3500C26F450CF
:1007FE000822000E00220D500502F3500C26F45074
:10080E000822000E002202500402F3500826F45073
:10081E00002202500502016A000E0122F35000264A
:10082E00F45001220D500602F3500826F450002217
:10083E00026A000E012202220B500602F35000261D
:10084E00F4500122000E02220E500602F350012631
:10085E00F450022202BE3CEF04F008360036013698
:10086E0002360306D8B45EEF04F04FEF04F0D880E2
:10087E00800E08640030000E002201220222D8A051
:10088E004FEF04F0023201320032034A59EF04F006
:10089E000AAE029E000E61EF04F0010E1EEC00F097
:1008AE0061EF04F0020E12EC00F061EF04F0040EA2
:0608BE0025EC00F0120021
:1008C4000B6A0C6A086A0350D8B4E6EF04F002C05D
:1008D4000AF0028E9E0E035E03AED6EF04F0036CA4
:1008E400080E035CD8A0A3EF04F0036E083600C022
:1008F40008F001C000F002C001F0026A080E035CB7
:10090400D8A0A3EF04F0036E083600C008F001C0BD
:1009140000F0016A080E035CD8A0A3EF04F0036E94
:10092400083600C008F0006A080E035CD8A0A3EFE4
:1009340004F0036E0836086A0350D8A4D890AFEFC9
:1009440004F00350D8B4AFEF04F0D890023201326F
:1009540000320832032EA7EF04F00BBC08A0C0EF4E
:1009640004F0D8A0C0EF04F0082AD8B4002AD8B400
:10097400012AD8B4022A02BEEAEF04F00AAEE6EF76
:1009840004F0021E011E001E081E082AD8B4002A04
:10099400D8B4012AD8B4022AE6EF04F0026A016A44
:1009A400006A086AE6EF04F00B800BAEF0EF04F087
:1009B400026A0AAEF0EF04F0026E016E006E086E79
:1009C4000A360232F0EF04F00C6A000EF1EF04F084
:1009D400010E0C6E000E58DEF1EF04F0FF0E025013
:1009E400036E0150026E0050016E0850006E12003A
:0609F400067E3ADC120051
:1009FA0001010051390806E3300E005D03E3010EE0
:080A0A00006E01D0006A120029
:100A12000450000A08E10550000A05E1FF0E006ECD
:100A22007F0E016E12000D6A096A086A01500010F9
:100A3200D8B4000C015005180A6E0ABE0D1E0B6ACE
:100A420005AE05D0041E051E042AD8B4052A01AE3F
:100A520005D0001E011E002AD8B4012A015005103B
:100A62000A6E0ABE10D06EDE0BB020D00DAE000CA6
:100A7200001E011E002AD8B4012A081E091E082AD7
:100A8200D8B4092A000C05AE0DD001BE07D0015022
:100A9200096E0050086E016A006AE8D7016A006AAE
:100AA200002A000C011E001E0B2ADDD7082AD8B42A
:100AB200092A0450085CD8A4D9D70550095CD8A4E7
:100AC200D5D7096A086A002AD8B4012A01AECED75E
:060AD2000000FF0C120001
:100AD8000050086E0150006E0250016E0350026E05
:100AE800036A0B6A0C6A9E0E036E0A6A020E0C6E8B
:060AF80032EC00F01200D8
:100AFE006E0E0101005DD8A0C7D0640E046E00C159
:100B0E0000F027EC01F0120E0024056E066A000EAE
:100B1E00062205C000F006C001F0000E06BEFF0E54
:100B2E00026E036E00360090013602360336003632
:100B3E000090013602360336C30E0024F66E410EC7
:100B4E000120F76E000E0220F86E0900F5CF00F0BE
:100B5E000900F5CF01F00900F5CF02F00900F5CF3D
:100B6E0003F0000E046E000E056E000E066E7E0E75
:100B7E00076E0EDE00C020F101C021F102C022F18D
:100B8E0003C023F1640E046E00C100F027EC01F0E7
:100B9E0008C000F00A0E046E27EC01F0090E0024C6
:100BAE00056E066A000E062205C000F006C001F0B2
:100BBE00000E06BEFF0E026E036E0036009001366A
:100BCE000236033600360090013602360336C30E67
:100BDE000024F66E410E0120F76E000E0220F86E14
:100BEE000900F5CF00F00900F5CF01F00900F5CFAF
:100BFE0002F00900F5CF03F020C104F021C105F089
:100C0E0022C106F023C107F0C3DD00C020F101C0F0
:100C1E0021F102C022F103C023F10A0E046E00C1BD
:100C2E0000F027EC01F008C000F000C001F0000E4B
:100C3E00026E036E046E01360190023603360436E0
:100C4E0001360190023603360436C30E0124F66EC9
:100C5E00410E0220F76E000E0320F86E0900F5CF4C
:100C6E0000F00900F5CF01F00900F5CF02F0090000
:100C7E00F5CF03F020C104F021C105F022C106F02A
:100C8E0023C107F085DD120000510A087CE20A0E2E
:100C9E00046E00C100F027EC01F0090E0024056E71
:100CAE00066A000E062205C000F006C001F0000E16
:100CBE0006BEFF0E026E036E00360090013602363F
:100CCE00033600360090013602360336C30E00247A
:100CDE00F66E410E0120F76E000E0220F86E09002E
:100CEE00F5CF00F00900F5CF01F00900F5CF02F0C5
:100CFE000900F5CF03F0000E046E000E056E000E17
:100D0E00066E7E0E076E44DD00C020F101C021F19B
:100D1E0002C022F103C023F10A0E046E00C100F0DE
:100D2E0027EC01F008C000F000C001F0000E026ECA
:100D3E00036E046E01360190023603360436013618
:100D4E000190023603360436C30E0124F66E410EB0
:100D5E000220F76E000E0320F86E0900F5CF00F0AA
:100D6E000900F5CF01F00900F5CF02F00900F5CF2B
:100D7E0003F020C104F021C105F022C106F023C109
:100D8E0007F006DD120000C100F0000E016E026ECB
:100D9E00036E0036009001360236033600360090A0
:100DAE00013602360336C30E0024F66E410E0120C4
:100DBE00F76E000E0220F86E0900F5CF00F0090064
:100DCE00F5CF01F00900F5CF02F00900F5CF03F0E1
:100DDE00000E046E000E056E000E066E7E0E076E81
:040DEE00D7DC12003C
:100DF2000B6A0A6A096A086A0E6A033408360450E2
:100E0200085E0550D8A0053C095E0650D8A0063CF5
:100E12000A5E0750D8A0073C0B5EE86AD8A0010E14
:100E22000E5E0336070E0C6E0334083609360A3698
:100E32000B360E36045003A012D0085E0550D8A01F
:100E4200053C095E0650D8A0063C0A5E0750D8A0B1
:100E5200073C0B5EE86AD8A0010E0E5E11D0082690
:100E62000550D8B0053C09260650D8B0063C0A26E3
:100E72000750D8B0073C0B26E86AD8B0010E0E2600
:100E820003360C2ED1D70234083609360A360B3611
:100E92000E36045003A012D0085E0550D8A0053CBF
:100EA200095E0650D8A0063C0A5E0750D8A0073C4F
:100EB2000B5EE86AD8A0010E0E5E11D0082605501E
:100EC200D8B0053C09260650D8B0063C0A26075081
:100ED200D8B0073C0B26E86AD8B0010E0E260236BF
:100EE200070E0C6E0234083609360A360B360E36F9
:100EF200045002A012D0085E0550D8A0053C095E3D
:100F02000650D8A0063C0A5E0750D8A0073C0B5EEC
:100F1200E86AD8A0010E0E5E11D008260550D8B09E
:100F2200053C09260650D8B0063C0A260750D8B020
:100F3200073C0B26E86AD8B0010E0E2602360C2EAC
:100F4200D1D70134083609360A360B360E3604502C
:100F520002A012D0085E0550D8A0053C095E0650DA
:100F6200D8A0063C0A5E0750D8A0073C0B5EE86A90
:100F7200D8A0010E0E5E11D008260550D8B0053C4F
:100F820009260650D8B0063C0A260750D8B0073CBE
:100F92000B26E86AD8B0010E0E260136070E0C6E3B
:100FA2000134083609360A360B360E36045001A0D3
:100FB20012D0085E0550D8A0053C095E0650D8A0A4
:100FC200063C0A5E0750D8A0073C0B5EE86AD8A030
:100FD200010E0E5E11D008260550D8B0053C092638
:100FE2000650D8B0063C0A260750D8B0073C0B265C
:100FF200E86AD8B0010E0E2601360C2ED1D7003485
:10100200083609360A360B360E36045001A012D0C5
:10101200085E0550D8A0053C095E0650D8A0063CE3
:101022000A5E0750D8A0073C0B5EE86AD8A0010E02
:101032000E5E11D008260550D8B0053C0926065090
:10104200D8B0063C0A260750D8B0073C0B26E86AFF
:10105200D8B0010E0E260036070E0C6E003408368C
:1010620009360A360B360E36045000A012D0085E3E
:101072000550D8A0053C095E0650D8A0063C0A5E81
:101082000750D8A0073C0B5EE86AD8A0010E0E5E9E
:1010920011D008260550D8B0053C09260650D8B014
:1010A200063C0A260750D8B0073C0B26E86AD8B09F
:1010B200010E0E2600360C2ED1D700B00ED00450F1
:1010C20008260550D8B0053C09260650D8B0063C83
:0C10D2000A260750D8B0073C0B2612007D
:1010DE000450000A12E10550000A0FE10650000A02
:1010EE000CE10750000A09E1FF0E006EFF0E016EC3
:1010FE007F0E026EFF0E036E1200086A096A075019
:10110E00D8B41AEF09F00350D8B41FEF09F002500B
:10111E0006180A6E028E068E0E6A02C008F001C014
:10112E000CF000C00DF004500D5E0550D8A0053C2B
:10113E000C5E0650D8A0063C085E086A0C6A0D6A62
:10114E00D8A0B1EF08F0D890023201320032083246
:10115E00010E0E6E0750035ED8A0BEEF08F07E0E95
:10116E000E240326D8B024EF09F0C4EF08F07E0E4B
:10117E000E240326D8A029EF09F0180E0B6E0D369B
:10118E000C3608360036013602360E360450005E36
:10119E000550D8A0053C015E0650D8A0063C025E64
:1011AE0006340E120EA0DFEF08F00D80EAEF08F005
:1011BE00045000260550D8B0053C01260650D8B084
:1011CE00062802260D900B2EC6EF08F010EF09F040
:1011DE00D8900036013602360E360450005E0550A9
:1011EE00D8A0053C015E0650D8A0063C025E06342F
:1011FE000E10010B0D26D8B00C2AD8B4082AD8A48C
:10120E0010EF09F008320C320D32032AD8B424EF55
:10121E0009F00AAE089E0850026E0C50016E0D5079
:10122E00006E2CEF09F0010E23EC01F02CEF09F00B
:10123E00020E1EEC00F02CEF09F0040E12EC00F082
:0C124E002CEF09F0080E25EC00F0120057
:10125A00800E01010019006E800E000A005CD8B0F1
:10126A006DD100510008016E01C000F1800E011815
:10127A00006E800E6E0A005CD8A0C0D0640E046EA8
:10128A0000C100F054EC03F0120E0024056E000EAB
:10129A0000BEFF0E066E000E062205C000F006C054
:1012AA0001F0000E06BEFF0E026E036E00360090BD
:1012BA00013602360336003600900136023603360E
:1012CA00C30E0024F66E410E0120F76E000E0220B6
:1012DA00F86E0900F5CF20F10900F5CF21F10900D8
:1012EA00F5CF22F10900F5CF23F1640E046E00C197
:1012FA0000F054EC03F008C000F00A0E046E54EC3F
:10130A0003F0090E0024056E000E00BEFF0E066EE5
:10131A00000E062205C000F006C001F0000E06BE4F
:10132A00FF0E026E036E0036009001360236033657
:10133A0000360090013602360336C30E0024F66EDC
:10134A00410E0120F76E000E0220F86E0900F5CF5B
:10135A0000F00900F5CF01F00900F5CF02F009000D
:10136A00F5CF03F020C104F021C105F022C106F037
:10137A0023C107F0CFEC03F000C020F101C021F136
:10138A0002C022F103C023F10A0E046E00C100F06C
:10139A0054EC03F008C000F000C001F0000E00BEDB
:1013AA00FF0E026E036E046E01360190023603369A
:1013BA00043601360190023603360436C30E012480
:1013CA00F66E410E0220F76E000E0320F86E090039
:1013DA00F5CF00F00900F5CF01F00900F5CF02F0D2
:1013EA000900F5CF03F020C104F021C105F022C1A4
:1013FA0006F023C107F0CFEC03F01200800E0A0AB0
:10140A00006E800E0019005C71E20A0E046E00C1C3
:10141A0000F054EC03F0090E0024056E000E00BE25
:10142A00FF0E066E000E062205C000F006C001F08F
:10143A00000E06BEFF0E026E036E003600900136E5
:10144A000236033600360090013602360336C30EE2
:10145A000024F66E410E0120F76E000E0220F86E8F
:10146A000900F5CF20F10900F5CF21F10900F5CFE8
:10147A0022F10900F5CF23F10A0E046E00C100F033
:10148A0054EC03F008C000F000C001F0000E00BEEA
:10149A00FF0E026E036E046E0136019002360336A9
:1014AA00043601360190023603360436C30E01248F
:1014BA00F66E410E0220F76E000E0320F86E090048
:1014CA00F5CF00F00900F5CF01F00900F5CF02F0E1
:1014DA000900F5CF03F020C104F021C105F022C1B3
:1014EA0006F023C107F0CFEC03F0120000C100F0B0
:1014FA00000E00BFFF0E016E026E036E00360090F2
:10150A0001360236033600360090013602360336BB
:10151A00C30E0024F66E410E0120F76E000E022063
:10152A00F86E0900F5CF00F00900F5CF01F00900C7
:10153A00F5CF02F00900F5CF03F01200800E001972
:10154A00006E800E6E0A005CD8A0C0D0640E046ED5
:10155A0000C100F054EC03F0120E0024056E000ED8
:10156A0000BEFF0E066E000E062205C000F006C081
:10157A0001F0000E06BEFF0E026E036E00360090EA
:10158A00013602360336003600900136023603363B
:10159A008F0E0024F66E410E0120F76E000E022017
:1015AA00F86E0900F5CF20F10900F5CF21F1090005
:1015BA00F5CF22F10900F5CF23F1640E046E00C1C4
:1015CA0000F054EC03F008C000F00A0E046E54EC6C
:1015DA0003F0090E0024056E000E00BEFF0E066E13
:1015EA00000E062205C000F006C001F0000E06BE7D
:1015FA00FF0E026E036E0036009001360236033685
:10160A00003600900136023603368F0E0024F66E3D
:10161A00410E0120F76E000E0220F86E0900F5CF88
:10162A0000F00900F5CF01F00900F5CF02F009003A
:10163A00F5CF03F020C104F021C105F022C106F064
:10164A0023C107F0CFEC03F000C020F101C021F163
:10165A0002C022F103C023F10A0E046E00C100F099
:10166A0054EC03F008C000F000C001F0000E00BE08
:10167A00FF0E026E036E046E0136019002360336C7
:10168A000436013601900236033604368F0E0124E1
:10169A00F66E410E0220F76E000E0320F86E090066
:1016AA00F5CF00F00900F5CF01F00900F5CF02F0FF
:1016BA000900F5CF03F020C104F021C105F022C1D1
:1016CA0006F023C107F0CFEC03F01200800E0A0ADD
:1016DA00006E800E0019005C71E20A0E046E00C1F1
:1016EA0000F054EC03F0090E0024056E000E00BE53
:1016FA00FF0E066E000E062205C000F006C001F0BD
:10170A00000E06BEFF0E026E036E00360090013612
:10171A0002360336003600900136023603368F0E43
:10172A000024F66E410E0120F76E000E0220F86EBC
:10173A000900F5CF20F10900F5CF21F10900F5CF15
:10174A0022F10900F5CF23F10A0E046E00C100F060
:10175A0054EC03F008C000F000C001F0000E00BE17
:10176A00FF0E026E036E046E0136019002360336D6
:10177A000436013601900236033604368F0E0124F0
:10178A00F66E410E0220F76E000E0320F86E090075
:10179A00F5CF00F00900F5CF01F00900F5CF02F00E
:1017AA000900F5CF03F020C104F021C105F022C1E0
:1017BA0006F023C107F0CFEC03F0120000C100F0DD
:1017CA00000E00BFFF0E016E026E036E003600901F
:1017DA0001360236033600360090013602360336E9
:1017EA008F0E0024F66E410E0120F76E000E0220C5
:1017FA00F86E0900F5CF00F00900F5CF01F00900F5
:0C180A00F5CF02F00900F5CF03F012004A
:101816000B6A0A6A096A00500402F4CF09F0F3CF92
:1018260008F001500502F4CF0BF0F3CF0AF0005098
:101836000502F3500926F4500A22E86A0B220150E9
:101846000402F3500926F4500A22E86A0B2208C063
:1018560000F009C001F00AC002F00BC003F012004C
:101866000B6A0C6A0A6A086A0350D8B4BBEF0CF01C
:10187600028E9E0E035E03BE46EF0CF0D8B446EF12
:101886000CF0ABEF0CF0036C080E035CD8A078EFFD
:101896000CF0036E083600C008F001C000F002C06C
:1018A60001F0026A080E035CD8A078EF0CF0036E14
:1018B600083600C008F001C000F0016A080E035C9B
:1018C600D8A078EF0CF0036E083600C008F0006A66
:1018D600080E035CD8A078EF0CF0036E0836086A91
:1018E6000350D8A4D89084EF0CF00350D8B484EFFA
:1018F6000CF0D8900232013200320832032E7CEF0F
:101906000CF00BBC08A095EF0CF0D8A095EF0CF0EE
:10191600082AD8B4002AD8B4012AD8B4022A02BEAA
:10192600BFEF0CF00AAEBBEF0CF0021E011E001E4C
:10193600081E082AD8B4002AD8B4012AD8B4022A24
:10194600BBEF0CF0026A016A006A086ABBEF0CF092
:101956000B800BAEC5EF0CF0026A0AAEC5EF0CF0B9
:10196600026E016E006E086E0A360232C5EF0CF08A
:10197600000E0C6AC6EF0CF0010E0C6E46EC03F07E
:10198600C6EF0CF0FF0E0250036E0150026E0050BF
:08199600016E0850006E120002
:10199E0003500718D8A4E3EF0CF002500618D8A491
:1019AE00E3EF0CF001500518D8A4E3EF0CF0005053
:0E19BE000418D8B4D8841200D8941200120075
:1019CC000A6A0350D8A40A800750D8A40A820A5085
:1019DC00D8B449EF0DF0030AD8B402EF0DF00AB0F9
:1019EC00FDEF0CF006AE47EF0DF045EF0DF002AE3B
:1019FC0045EF0DF047EF0DF00250800B0A6E029E82
:101A0C000650800B069E0A18D8B413EF0DF00A503E
:101A1C00D8B445EF0DF047EF0DF00750035CD8B488
:101A2C001DEF0DF0D8A039EF0DF03FEF0DF0065083
:101A3C00025CD8B427EF0DF0D8A039EF0DF03FEFD2
:101A4C000DF00550015CD8B431EF0DF0D8A039EF92
:101A5C000DF03FEF0DF00450005CD8B449EF0DF0E1
:101A6C00D8B03FEF0DF00A52D8B447EF0DF045EF68
:101A7C000DF00A52D8B445EF0DF047EF0DF0D880B9
:0E1A8C001200D8901200D880D88412001200E8
:101A9A000101186B196B056B066BFAC000F0FBC0ED
:101AAA0001F0FCC002F0010E0001FA27000EFB2330
:101ABA00FC2300C0F6FF01C0F7FF02C0F8FF0900CF
:101ACA00F5CF00F000C0FFF00052D8B410EF1EF0BE
:101ADA00FF51250A0CE0F8C0E1FFF9C0E2FFFFC0A0
:101AEA00E6FFF84BF92B0101184B192BD6D7010148
:101AFA00036B046B056B066B2DD001010587010E84
:101B0A000001FA27000EFB23FC2361D001010581A5
:101B1A00010E0001FA27000EFB23FC2358D0010115
:101B2A000583010E0001FA27000EFB23FC234FD088
:101B3A0001010687010E0001FA27000EFB23FC2390
:101B4A0046D001010585010E0001FA27000EFB238C
:101B5A00FC233DD0FAC0F6FFFBC0F7FFFCC0F8FF3C
:101B6A000900F5CF01F001502D0AC7E0FAC0F6FFCF
:101B7A00FBC0F7FFFCC0F8FF0900F5CF01F00150E8
:101B8A00200AC4E0FAC0F6FFFBC0F7FFFCC0F8FF6A
:101B9A000900F5CF01F001502B0AC1E0FAC0F6FFA7
:101BAA00FBC0F7FFFCC0F8FF0900F5CF01F00150B8
:101BBA00230ABEE0FAC0F6FFFBC0F7FFFCC0F8FF3D
:101BCA000900F5CF01F00150300ABBE001D094D7EB
:101BDA00010105A301D0059105A701D00595FAC019
:101BEA00F6FFFBC0F7FFFCC0F8FF0900F5CF00F0D5
:101BFA00000E016E00C000F1FDEC04F0005236E068
:101C0A00036B046B03C100F004C101F00A0E046EF9
:101C1A00000E056EFBDDFAC0F6FFFBC0F7FFFCC045
:101C2A00F8FF0900F5CF02F002500024036F000EFE
:101C3A000120046F300E035F000E045B010E0001E9
:101C4A00FA27000EFB23FC23FAC0F6FFFBC0F7FFBE
:101C5A00FCC0F8FF0900F5CF00F0000E016E00C0CD
:101C6A0000F1FDEC04F00052CDE134D0FAC0F6FFE9
:101C7A00FBC0F7FFFCC0F8FF0900F5CF01F00150E7
:101C8A002A0A28E1FDC0E9FFFEC0EAFFEECF00F014
:101C9A00EECF01F000C0E9FF01C0EAFFEECF03F189
:101CAA00EECF04F1FDC0E9FFFEC0EAFF020EEE240A
:101CBA00006E000EEE20016EFDC0E1FFFEC0E2FFE5
:101CCA0000C0E6FF01C0E6FF010E0001FA27000E80
:101CDA00FB23FC23FAC0F6FFFBC0F7FFFCC0F8FFAA
:101CEA000900F5CF01F001502E0A72E10001010E40
:101CFA00FA27000EFB23FC23FAC0F6FFFBC0F7FF0E
:101D0A00FCC0F8FF0900F5CF01F001502A0A28E1CA
:101D1A00FDC0E9FFFEC0EAFFEECF00F0EECF01F012
:101D2A0000C0E9FF01C0EAFFEECF01F1EECF02F1F8
:101D3A00FDC0E9FFFEC0EAFF020EEE24006E000EAF
:101D4A00EE20016EFDC0E1FFFEC0E2FF00C0E6FF2B
:101D5A0001C0E6FF010EFA27000EFB23FC2337D051
:101D6A000101016B026BFAC0F6FFFBC0F7FFFCC072
:101D7A00F8FF0900F5CF00F0000E016E00C000F177
:101D8A00FDEC04F0005223E001C100F002C101F0B1
:101D9A000A0E046E000E056E39DDFAC0F6FFFBC0AE
:101DAA00F7FFFCC0F8FF0900F5CF02F0025000244B
:101DBA00016F000E0120026F300E015F000E025B00
:101DCA00010E0001FA27000EFB23FC23CCD704D016
:101DDA000101016B026B0689FAC000F0FBC001F039
:101DEA00FCC002F0010E0001FA27000EFB23FC23BF
:101DFA0000C0F6FF01C0F7FF02C0F8FF0900F5CFE7
:101E0A00FFF016D118C100F019C101F0120001014A
:101E1A000589E2D70101068547D10101058B010138
:101E2A00068142D1010106833FD10101058D3CD1D2
:101E3A003BD10101058B0101058F36D10101FDC09E
:101E4A00E9FFFEC0EAFFEECF00F0EECF01F000C0DE
:101E5A00E9FF01C0EAFFEECF0DF1EECF0EF1FDC0B2
:101E6A00E9FFFEC0EAFF020EEE24006E000EEE202D
:101E7A00016EFDC0E1FFFEC0E2FF00C0E6FF01C047
:101E8A00E6FF000E0E1902E1000E0D1911E1280EEF
:101E9A00116F6E0E126F750E136F6C0E146F6C0E3F
:101EAA00156F290E166F176B110E0D6F010E0E6F3F
:101EBA000F6B106B0F510D25E96E10510E21EA6E52
:101ECA00EE520BE0010E0F25006E000E1021016E7E
:101EDA0000C00FF101C010F1EDD7015102110AE063
:101EEA001051025D02E10F51015D04E201C10FF1DF
:101EFA0002C110F10451105D02E103510F5D05E2C8
:101F0A000F51035F1051045B02D0036B046B05B7DA
:101F1A0018D003C100F004C101F0010E035F000EE6
:101F2A00045B005001100DE0F8C0E1FFF9C0E2FFC8
:101F3A00200EE66E0001F84BF92B0101184B192B04
:101F4A00E8D70FC102F010C103F0010E0F5D006E59
:101F5A00000E1059016E00C00FF101C010F10250BD
:101F6A0003101BE00DC1E9FF0EC1EAFFF8C0E1FF53
:101F7A00F9C0E2FFEECFE6FF0001F84BF92B010EA4
:101F8A0001010D25006E000E0E21016E00C00DF13B
:101F9A0001C00EF1184B192BD4D705A718D003C1CD
:101FAA0000F004C101F0010E035F000E045B005053
:101FBA0001100DE0F8C0E1FFF9C0E2FF200EE66E65
:101FCA000001F84BF92B0101184B192BE8D765D5FD
:101FDA00FDC0E9FFFEC0EAFFEECF00F0EECF01F050
:101FEA0000C0E9FF01C0EAFFEECFFFF0FDC0E9FF44
:101FFA00FEC0EAFF020EEE24006E000EEE20016E15
:10200A00FDC0E1FFFEC0E2FF00C0E6FF01C0E6FF3F
:10201A000101FF0E0D6F000E0E6F010E0F6F000E05
:10202A00106F5BD70101C00E0513000E06133CD0DA
:10203A000001FF51000AD8B4E5D6FF516C0AD8B4A2
:10204A00E6D6FF51660AD8B4E5D6FF51450AD8B498
:10205A00E4D6FF51650AD8B4E2D6FF51670AD8B46C
:10206A00E1D6FF516F0AD8B4E0D6FF51640AD8B45A
:10207A00DFD6FF51690AD8B4DBD6FF51700AD8B44B
:10208A00D8D6FF51580AD8B4D4D6FF51780AD8B452
:10209A00D2D6FF51730AD8B4D1D6FF51630A98E059
:1020AA00FF51750ABFE0B4D7000E01010515006E95
:1020BA000651070B016E00500110D8B489EF19F0D0
:1020CA0006A904D0060E016F000E026FFDC0E9FFDB
:1020DA00FEC0EAFFEECF00F0EECF01F000C0E9FF4C
:1020EA0001C0EAFFEECF07F1EECF08F1EECF09F11A
:1020FA00EECF0AF1FDC0E9FFFEC0EAFF040EEE24AE
:10210A00006E000EEE20016EFDC0E1FFFEC0E2FF90
:10211A0000C0E6FF01C0E6FF046A056A066A076AAC
:10212A0007C100F008C101F009C102F00AC103F0B9
:10213A0048DC010ED8B0000E006E005205E0097F9F
:10214A00030E0513000E06130B6B0C6B07C100F090
:10215A0008C101F009C102F00AC103F0046A056A64
:10216A00066A076A17DC000ED8A4010E006E005238
:10217A00D8B48AD00AC100F0016A026A036AFF0E63
:10218A000016000E01167E0E005E000E015A00C0F7
:10219A000BF101C00CF1010E005E000E015A00C0E5
:1021AA000BF101C00CF1030E046E000E056E0BEC70
:1021BA000CF000C00BF101C00CF10A0E046E000E07
:1021CA00056E09EC05F000C00BF101C00CF1800EA0
:1021DA000118026E800E025C02E1000E005C05E24C
:1021EA00010E01010B5F000E0C5B01010B5100088F
:1021FA00006F2DEC09F007C104F008C105F009C110
:10220A0006F00AC107F0CFEC03F000C00DF101C0DF
:10221A000EF102C00FF103C010F1000E046E000EA1
:10222A00056E000E066E7F0E076E0DC100F00EC120
:10223A0001F00FC102F010C103F0E6EC0CF0010E40
:10224A00D8B0000E006E005205E0010E0B5F000EC2
:10225A000C5B1AD0000E046E000E056E200E066E80
:10226A00820E076E0DC100F00EC101F00FC102F01F
:10227A0010C103F0E6EC0CF0000ED8B0010E006EAF
:10228A00005202E00B4B0C2B800E006E800E0C19D4
:10229A00005C02E10B51000804E3010E0001FF6F2C
:1022AA0002D00BC1FFF0010106B119D006A315D067
:1022BA00800E0C19006E7F0E005C02E1FC0E0B5DB5
:1022CA000BE3800E0C19006E800E0219005C02E10D
:1022DA0001510B5D01E201D002D08EEF15F00151E0
:1022EA00021106E006A304D0010E015F000E025B94
:1022FA00000E006E0251005C02E10151080804E27E
:10230A00080E0001FF6F02D001C1FFF007C100F003
:10231A0008C101F009C102F00AC103F0046A056AA2
:10232A00066A076ACFEC0CF0000ED8A4010E006E04
:10233A000052D8B44CD10BC100F12DEC09F000C009
:10234A0004F001C005F002C006F003C007F007C19F
:10235A0000F008C101F009C102F00AC103F06FECF4
:10236A0008F000C007F101C008F102C009F103C07A
:10237A000AF10001FF5100080101006F2DEC09F07C
:10238A0000C004F001C005F002C006F003C007F067
:10239A0007C100F008C101F009C102F00AC103F047
:1023AA006FEC08F000C01AF101C01BF102C01CF169
:1023BA0003C01DF11AC107F11BC108F11CC109F1C3
:1023CA001DC10AF11AC100F01BC101F01CC102F0C3
:1023DA001DC103F033EC0CF06CEC05F000C004F006
:1023EA0001C005F002C006F003C007F01AC100F0F0
:1023FA001BC101F01CC102F01DC103F0FAEC04F08C
:10240A00000E046E000E056E000E066E7E0E076E3E
:10241A00E6EC0CF0000ED8B0010E006E00521AE085
:10242A0007C100F008C101F009C102F00AC103F0B6
:10243A00000E046E000E056E000E066E7E0E076E0E
:10244A0036EC01F000C007F101C008F102C009F141
:10245A0003C00AF107C100F008C101F009C102F086
:10246A000AC103F033EC0CF00001FF51010F096EB1
:10247A000A6A000E0A2209C004F00AC005F0000E1A
:10248A000ABEFF0E066E076E04360490053606363F
:10249A00073604360490053606360736270E042416
:1024AA00F66E420E0520F76E000E0620F86E090041
:1024BA00F5CF05F00900F5CF06F00900F5CF07F0D2
:1024CA000900F5CF08F00850035C08E10750025CE8
:1024DA0005E10650015C02E10550005C1EE307C1FC
:1024EA0000F008C101F009C102F00AC103F0CD0EE3
:1024FA00046ECC0E056E4C0E066E7B0E076ECFEC8C
:10250A0003F000C007F101C008F102C009F103C0DD
:10251A000AF101010B4B0C2B5AD007C100F008C17C
:10252A0001F009C102F00AC103F033EC0CF0FFC05C
:10253A0004F0000E056E066E076E0436049005362A
:10254A000636073604360490053606360736270E51
:10255A000424F66E420E0520F76E000E0620F86E71
:10256A000900F5CF05F00900F5CF06F00900F5CF0F
:10257A0007F00900F5CF08F00850035C08E107509E
:10258A00025C05E10650015C02E10550005C1FE2B5
:10259A00010107C100F008C101F009C102F00AC136
:1025AA0003F0000E046E000E056E200E066E820EFB
:1025BA00076ECFEC03F000C007F101C008F102C0BA
:1025CA0009F103C00AF1010E0B5F000E0C5B010159
:1025DA0006A397D006B795D0800E000A006E800E2B
:1025EA000219005C02E101510A0804E20A0E016FB5
:1025FA00000E026F07C100F008C101F009C102F024
:10260A000AC103F033EC0CF000C00DF101C00EF169
:10261A0002C00FF103C010F10D510E110F1110116C
:10262A0042E00A0E046E000E056E066E076E0DC1BC
:10263A0000F00EC101F00FC102F010C103F0F9EC75
:10264A0006F008C000F009C001F00AC002F00BC091
:10265A0003F0000E046E031808E10450021805E1A5
:10266A000450011802E10050000A1DE1010E015F49
:10267A00000E025B0A0E046E000E056E066E076EF1
:10268A000DC100F00EC101F00FC102F010C103F03C
:10269A00F9EC06F000C00DF101C00EF102C00FF115
:1026AA0003C010F1B9D7800E0219006E800E005CCB
:1026BA0004E10001FF510101015D23E20151000122
:1026CA00FF5D0101006F2DEC09F000C004F001C0AC
:1026DA0005F002C006F003C007F007C100F008C108
:1026EA0001F009C102F00AC103F06FEC08F000C062
:1026FA0007F101C008F102C009F103C00AF101C1E2
:10270A00FFF0050E01010125006E000E0221016E87
:10271A000050035F0150045B0151021103E106B747
:10272A0001D004D0010E035F000E045B030E0515F1
:10273A00006E06C101F0000E01160050011004E0FF
:10274A00010E035F000E045B05A53FD005A314D05C
:10275A0005A103D02D0E006E02D02B0E006EF8C01C
:10276A00E1FFF9C0E2FF00C0E6FF0001F84BF92BD8
:10277A000101184B192B0ED005A10CD0F8C0E1FFAE
:10278A00F9C0E2FF200EE66E0001F84BF92B0101B9
:10279A00184B192B800E006E800E0419005C02E1A2
:1027AA000351000811E2F8C0E1FFF9C0E2FF300E60
:1027BA00E66E0001F84BF92B0101184B192B010E9B
:1027CA00035F000E045BE6D740D005B71AD0800E2F
:1027DA00006E800E0419005C02E10351000811E248
:1027EA00F8C0E1FFF9C0E2FF200EE66E0001F84BE7
:1027FA00F92B0101184B192B010E035F000E045B24
:10280A00E6D705A314D005A103D02D0E006E02D081
:10281A002B0E006EF8C0E1FFF9C0E2FF00C0E6FF30
:10282A000001F84BF92B0101184B192B0ED005A109
:10283A000CD0F8C0E1FFF9C0E2FF200EE66E0001FD
:10284A00F84BF92B0101184B192B07C100F008C1ED
:10285A0001F009C102F00AC103F033EC0CF000C028
:10286A000DF101C00EF102C00FF103C010F1FFC05B
:10287A0000F0000E016E026E036E00360090013603
:10288A000236033600360090013602360336270E2A
:10289A000024F66E420E0120F76E000E0220F86E3A
:1028AA000900F5CF04F00900F5CF05F00900F5CFCE
:1028BA0006F00900F5CF07F00DC100F00EC101F0D6
:1028CA000FC102F010C103F0F9EC06F0300E002639
:1028DA00F8C0E1FFF9C0E2FF00C0E6FF0001F84BD3
:1028EA00F92B0101184B192B0151021103E106B70B
:1028FA0001D078D0F8C0E1FFF9C0E2FF2E0EE66EF3
:10290A000001F84BF92B0101184B192B0001FF515B
:10291A000101015F000E025B0001FF534EE0FF0759
:10292A00FFC000F0000E016E026E036E00360090CA
:10293A000136023603360036009001360236033677
:10294A00270E0024F66E420E0120F76E000E0220BA
:10295A00F86E0900F5CF04F00900F5CF05F009007B
:10296A00F5CF06F00900F5CF07F00DC100F00EC152
:10297A0001F00FC102F010C103F0F9EC06F00A0EE3
:10298A00046E000E056E066E076EF9EC06F008C0BE
:10299A0000F009C001F00AC002F00BC003F0300ECB
:1029AA000026F8C0E1FFF9C0E2FF00C0E6FFF84BDD
:1029BA00F92B0101184B192BAFD701010151021153
:1029CA0011E0F8C0E1FFF9C0E2FF300EE66E000147
:1029DA00F84BF92B0101184B192B010E015F000E60
:1029EA00025BEBD705AB0DD0F8C0E1FFF9C0E2FFFF
:1029FA00450EE66E0001F84BF92B0101184B192B15
:102A0A000CD0F8C0E1FFF9C0E2FF650EE66E0001E6
:102A1A00F84BF92B0101184B192B800E0C19006E7B
:102A2A00800E005C02E1000E0B5D13E20B51000800
:102A3A000B6F0C51000E0C57F8C0E1FFF9C0E2FF12
:102A4A002D0EE66E0001F84BF92B0101184B192BDC
:102A5A000CD0F8C0E1FFF9C0E2FF2B0EE66E0001D0
:102A6A00F84BF92B0101184B192B0A0E046E000EB4
:102A7A00056E0BC100F00CC101F009EC05F0300E37
:102A8A000026F8C0E1FFF9C0E2FF00C0E6FF00013E
:102A9A00F84BF92B0101184B192B0A0E046E000E84
:102AAA00056E0BC100F00CC101F009EC05F008C07D
:102ABA0000F009C001F0300E0026F8C0E1FFF9C0AD
:102ACA00E2FF00C0E6FF0001F84BF92B0101184BA9
:102ADA00192B05A71CD0800E006E800E0419005C0D
:102AEA0002E10351000813E2F8C0E1FFF9C0E2FF76
:102AFA00200EE66E0001F84BF92B0101184B192B39
:102B0A00010E035F000E045B03510411EDE152EF65
:102B1A000DF006A3F9D0800E0C19006E800E005C31
:102B2A0002E1000E0B5D0AE2010E0B5D006E000E63
:102B3A000C59016E0050015F0150025B07C100F0A1
:102B4A0008C101F009C102F00AC103F033EC0CF02C
:102B5A0000C00DF101C00EF102C00FF103C010F167
:102B6A00010E0001FF6FFF510A0A36E0FFC000F0B4
:102B7A00000E016E026E036E0036009001360236B8
:102B8A00033600360090013602360336270E00243B
:102B9A00F66E420E0120F76E000E0220F86E090052
:102BAA00F5CF01F00900F5CF02F00900F5CF03F0E7
:102BBA000900F5CF04F004500101105D08E103504B
:102BCA000F5D05E102500E5D02E101500D5D01E26B
:102BDA0003D00001FF2BC7D70001FF510101015D9E
:102BEA001E6F000E02591F6F1EC101F11FC102F1B3
:102BFA000DC100F00EC101F00FC102F010C103F0C7
:102C0A006CEC05F000C004F001C005F002C006F04B
:102C1A0003C007F007C100F008C101F009C102F0C2
:102C2A000AC103F0FAEC04F000C01AF101C01BF16A
:102C3A0002C01CF103C01DF11EC100F12DEC09F008
:102C4A001AC104F01BC105F01CC106F01DC107F032
:102C5A00CFEC03F0000E046E000E056E000E066E39
:102C6A007E0E076E36EC01F033EC0CF000C00DF16D
:102C7A0001C00EF102C00FF103C010F1015102119F
:102C8A0043E00A0E046E000E056E066E076E0DC155
:102C9A0000F00EC101F00FC102F010C103F0F9EC0F
:102CAA0006F008C000F009C001F00AC002F00BC02B
:102CBA0003F0000E046E031808E10450021805E13F
:102CCA000450011802E10050000A1EE101010A0E37
:102CDA00046E000E056E066E076E0DC100F00EC181
:102CEA0001F00FC102F010C103F0F9EC06F000C0C8
:102CFA000DF101C00EF102C00FF103C010F1010E77
:102D0A00015F000E025BBAD70101800E006E800ED1
:102D1A000219005C02E101510C0816E301C100F13D
:102D2A007FEC05F007C104F008C105F009C106F0FF
:102D3A000AC107F036EC01F000C007F101C008F142
:102D4A0002C009F103C00AF107C100F008C101F08D
:102D5A0009C102F00AC103F0046A056A066A076A31
:102D6A00CFEC0CF0000ED8A4010E006E0052D8B4BD
:102D7A0078D007C100F008C101F009C102F00AC108
:102D8A0003F033EC0CF0000E046E031808E1045053
:102D9A00021805E10450011802E10050000A61E13D
:102DAA000101800E006E800E0C19005C02E10B51CD
:102DBA00010857E20BC100F12DEC09F000C004F044
:102DCA0001C005F002C006F003C007F007C100F019
:102DDA0008C101F009C102F00AC103F06FEC08F062
:102DEA005F0E046E700E056E090E066E810E076E7A
:102DFA00E6EC0CF0010ED8B0000E006E005206E0B0
:102E0A00090E01010B5F000E0C5B05D00101080ED3
:102E1A000B5F000E0C5B0BC100F12DEC09F000C03A
:102E2A0004F001C005F002C006F003C007F007C1B4
:102E3A0000F008C101F009C102F00AC103F06FEC09
:102E4A0008F033EC0CF000C00DF101C00EF102C025
:102E5A000FF103C010F10101076B086B096B0A6BD4
:102E6A0039D0010107C100F008C101F009C102F01F
:102E7A000AC103F033EC0CF000C00DF101C00EF1F1
:102E8A0002C00FF103C010F10DC100F00EC101F034
:102E9A000FC102F010C103F06CEC05F000C004F0A1
:102EAA0001C005F002C006F003C007F007C100F038
:102EBA0008C101F009C102F00AC103F0FAEC04F0FA
:102ECA0000C007F101C008F102C009F103C00AF10C
:102EDA000B6B0C6B010E0001FF6FFF510A0A36E003
:102EEA00FFC000F0000E016E026E036E0036009005
:102EFA0001360236033600360090013602360336B2
:102F0A00270E0024F66E420E0120F76E000E0220F4
:102F1A00F86E0900F5CF01F00900F5CF02F00900BB
:102F2A00F5CF03F00900F5CF04F004500101105D5C
:102F3A0008E103500F5D05E102500E5D02E1015008
:102F4A000D5D01E203D00001FF2BC7D70001FF513D
:102F5A0001010125006E000E0221016E0B510026AF
:102F6A000C5101220050035F0150045B06B704D0E4
:102F7A000151021101E104D0010E035F000E045B4E
:102F8A00030E0515006E06C101F0000E0116005071
:102F9A00011004E0010E035F000E045B05A53FD09B
:102FAA0005A314D005A103D02D0E006E02D02B0E5E
:102FBA00006EF8C0E1FFF9C0E2FF00C0E6FF0001C1
:102FCA00F84BF92B0101184B192B0ED005A10CD087
:102FDA00F8C0E1FFF9C0E2FF200EE66E0001F84BEF
:102FEA00F92B0101184B192B800E006E800E041963
:102FFA00005C02E10351000811E2F8C0E1FFF9C0E8
:10300A00E2FF300EE66E0001F84BF92B0101184B76
:10301A00192B010E035F000E045BE6D740D005B7FB
:10302A001AD0800E006E800E0419005C02E1035172
:10303A00000811E2F8C0E1FFF9C0E2FF200EE66ED7
:10304A000001F84BF92B0101184B192B010E035FF4
:10305A00000E045BE6D705A314D005A103D02D0EFC
:10306A00006E02D02B0E006EF8C0E1FFF9C0E2FF3D
:10307A0000C0E6FF0001F84BF92B0101184B192B90
:10308A000ED005A10CD0F8C0E1FFF9C0E2FF200E76
:10309A00E66E0001F84BF92B0101184B192BFFC002
:1030AA0000F00001FF0700524DE0FFC000F0000EE3
:1030BA00016E026E036E0036009001360236033648
:1030CA0000360090013602360336270E0024F66ECB
:1030DA00420E0120F76E000E0220F86E0900F5CFAD
:1030EA0004F00900F5CF05F00900F5CF06F0090054
:1030FA00F5CF07F00DC100F00EC101F00FC102F0CB
:10310A0010C103F0F9EC06F00A0E046E000E056E0B
:10311A00066E076EF9EC06F008C000F009C001F06F
:10312A000AC002F00BC003F0300E0026F8C0E1FF1F
:10313A00F9C0E2FF00C0E6FFF84BF92B0101184B7A
:10314A00192BADD70101800E006E800E0C19005CA0
:10315A0002E10B51000811E2F8C0E1FFF9C0E2FFF9
:10316A00300EE66E0001F84BF92B0101184B192BB2
:10317A00010E0B5F000E0C5BE5D7800E000A006E95
:10318A00800E0219005C02E10151080804E2080EEF
:10319A000001FF6F02D001C1FFF00001FF510101E0
:1031AA00015F000E025B0001FF5304E1010106B753
:1031BA0001D00CD0F8C0E1FFF9C0E2FF2E0EE66E96
:1031CA000001F84BF92B0101184B192BFFC000F134
:1031DA002DEC09F007C104F008C105F009C106F099
:1031EA000AC107F0CFEC03F062EC04F000C00DF165
:1031FA0001C00EF102C00FF103C010F10001FF532C
:10320A004EE0FF07FFC000F0000E016E026E036E73
:10321A000036009001360236033600360090013639
:10322A0002360336270E0024F66E420E0120F76E90
:10323A00000E0220F86E0900F5CF04F00900F5CF60
:10324A0005F00900F5CF06F00900F5CF07F00DC12A
:10325A0000F00EC101F00FC102F010C103F0F9EC49
:10326A0006F00A0E046E000E056E066E076EF9EC85
:10327A0006F008C000F009C001F00AC002F00BC055
:10328A0003F0300E0026F8C0E1FFF9C0E2FF00C0EB
:10329A00E6FFF84BF92B0101184B192BAFD70101A7
:1032AA000151021111E0F8C0E1FFF9C0E2FF300E4E
:1032BA00E66E0001F84BF92B0101184B192B010E90
:1032CA00015F000E025BEBD705A71CD0800E006ED3
:1032DA00800E0419005C02E10351000813E2F8C0F1
:1032EA00E1FFF9C0E2FF200EE66E0001F84BF92B70
:1032FA000101184B192B010E035F000E045B0351E9
:10330A000411EDE152EF0DF0C00E0515016E06C174
:10331A0002F0000E0216000E021802E1000E011859
:10332A00D8A47CD005A927D0FDC0E9FFFEC0EAFFDA
:10333A00EECF00F0EECF01F000C0E9FF01C0EAFFD6
:10334A00EECF0DF1EECF0EF1EECF0FF1EECF10F181
:10335A00FDC0E9FFFEC0EAFF040EEE24006E000E77
:10336A00EE20016EFDC0E1FFFEC0E2FF00C0E6FFF5
:10337A0001C0E6FF2BD0FDC0E9FFFEC0EAFFEECF99
:10338A0000F0EECF01F000C0E9FF01C0EAFFEECF86
:10339A0000F0EECF01F000C00DF101C00EF1000EF9
:1033AA0001BEFF0E0F6F106FFDC0E9FFFEC0EAFFFE
:1033BA00020EEE24006E000EEE20016EFDC0E1FF4B
:1033CA00FEC0E2FF00C0E6FF01C0E6FF800E101952
:1033DA00006E800E005C08E1000E0F5D05E1000E34
:1033EA000E5D02E1000E0D5D18E2030E0513000EDC
:1033FA000613006A016A026A036A0D51005E0E51E1
:10340A00015A0F51025A1051035A00C00DF101C05E
:10341A000EF102C00FF103C010F14ED005A927D05A
:10342A00FDC0E9FFFEC0EAFFEECF00F0EECF01F0EB
:10343A0000C0E9FF01C0EAFFEECF0DF1EECF0EF1B9
:10344A00EECF0FF1EECF10F1FDC0E9FFFEC0EAFFAB
:10345A00040EEE24006E000EEE20016EFDC0E1FFA8
:10346A00FEC0E2FF00C0E6FF01C0E6FF25D0FDC0B6
:10347A00E9FFFEC0EAFFEECF00F0EECF01F000C098
:10348A00E9FF01C0EAFFEECF0DF1EECF0EF1000E1B
:10349A000F6F106FFDC0E9FFFEC0EAFF020EEE24B7
:1034AA00006E000EEE20016EFDC0E1FFFEC0E2FFDD
:1034BA0000C0E6FF01C0E6FF000E021902E1000E9D
:1034CA0001190FE1000E006E101908E100500F19E2
:1034DA0005E100500E1902E10D51000A02E1014B0B
:1034EA00022BC00E0515006E00C005F0B7D0010E04
:1034FA000001FF6FFF510A0A36E0FFC000F0000E1C
:10350A00016E026E036E00360090013602360336F3
:10351A0000360090013602360336270E0024F66E76
:10352A00420E0120F76E000E0220F86E0900F5CF58
:10353A0001F00900F5CF02F00900F5CF03F0090008
:10354A00F5CF04F004500101105D08E103500F5D4E
:10355A0005E102500E5D02E101500D5D01E203D06A
:10356A000001FF2BC7D789D00001010EFF6FFF5161
:10357A00080A36E0FFC000F0000E016E026E036E0C
:10358A0000360090013602360336003600900136C6
:10359A00023603364F0E0024F66E420E0120F76EF5
:1035AA00000E0220F86E0900F5CF01F00900F5CFF0
:1035BA0002F00900F5CF03F00900F5CF04F004503A
:1035CA000101105D08E103500F5D05E102500E5D37
:1035DA0002E101500D5D01E203D00001FF2BC7D7C4
:1035EA004CD00001010EFF6FFF510C0A36E0FFC0FC
:1035FA0000F0000E016E026E036E00360090013676
:10360A000236033600360090013602360336F70ECC
:10361A000024F66E410E0120F76E000E0220F86EAD
:10362A000900F5CF01F00900F5CF02F00900F5CF46
:10363A0003F00900F5CF04F004500101105D08E120
:10364A0003500F5D05E102500E5D02E101500D5D70
:10365A0001E203D00001FF2BC7D70FD00550000AA3
:10366A00D8B445D70550C00AD8B441D70550800A06
:10367A00D8B47AD70550400AB4E0800E006E800EA6
:10368A0001010219005C03E101510001FF5D03E23F
:10369A0001C1FFF010D0800E01010219006E800EE8
:1036AA00005C04E10001FF510101015D04E2FFC079
:1036BA0001F1000E026F0101035104110EE0030E25
:1036CA000515006E06C101F0000E0116005001102A
:1036DA0004E0010E035F000E045B800E0219006E07
:1036EA00800E0419005C02E10351015D05E20151FB
:1036FA00035F0251045B02D0036B046BC40E051511
:10370A00016E0651080B026E0250080A02E1400ED1
:10371A00011808E10351041104E0010E035F000ED1
:10372A00045B1CD0C00E0515016E0651080B026E13
:10373A000250080A02E1800E011810E1800E006EA4
:10374A00800E0419005C02E10351020805E2020E30
:10375A00035F000E045B02D0036B046B05A567D000
:10376A0005A314D005A103D02D0E006E02D02B0E96
:10377A00006EF8C0E1FFF9C0E2FF00C0E6FF0001F9
:10378A00F84BF92B0101184B192B3AD005A10DD092
:10379A00F8C0E1FFF9C0E2FF200EE66E0001F84B27
:1037AA00F92B0101184B192B2BD0C00E0515016EF0
:1037BA000651080B026E0250080A02E1800E011837
:1037CA001FE1F8C0E1FFF9C0E2FF300EE66E00012A
:1037DA00F84BF92B0101184B192B05AB03D0580EE6
:1037EA00006E02D0780E006EF8C0E1FFF9C0E2FF69
:1037FA0000C0E6FF0001F84BF92B0101184B192B09
:10380A000351041113E0F8C0E1FFF9C0E2FF300EE2
:10381A00E66E0001F84BF92B0101184B192B010E2A
:10382A00035F000E045B03510411EDE180D00351E4
:10383A00041115E005B713D0F8C0E1FFF9C0E2FFA3
:10384A00200EE66E0001F84BF92B0101184B192BDB
:10385A00010E035F000E045B03510411EDE105A3A1
:10386A0014D005A103D02D0E006E02D02B0E006ECF
:10387A00F8C0E1FFF9C0E2FF00C0E6FF0001F84B23
:10388A00F92B0101184B192B0ED005A10CD0F8C049
:10389A00E1FFF9C0E2FF200EE66E0001F84BF92BBA
:1038AA000101184B192BC00E0515016E0651080BA4
:1038BA00026E0250080A02E1400E01180DE1F8C03A
:1038CA00E1FFF9C0E2FF300EE66E0001F84BF92B7A
:1038DA000101184B192B2BD0C00E0515016E06518C
:1038EA00080B026E0250080A02E1800E01181FE15D
:1038FA00F8C0E1FFF9C0E2FF300EE66E0001F84BB6
:10390A00F92B0101184B192B05AB03D0580E006E89
:10391A0002D0780E006EF8C0E1FFF9C0E2FF00C0E5
:10392A00E6FF0001F84BF92B0101184B192B800E09
:10393A00006E800E0219005C03E101510001FF5D77
:10394A000DE20001F8C0E1FFF9C0E2FF300EE66EB9
:10395A00F84BF92B0101184B192BE9D7010101C1C9
:10396A0000F002C101F0010E015F000E025B00507F
:10397A000110D8B430D1C00E0515006E00C01AF17E
:10398A000DD101C100F002C101F0000E02BFFF0E0D
:10399A00026E036E00360090013602360336003698
:1039AA000090013602360336270E0024F66E420EC8
:1039BA000120F76E000E0220F86E0900F5CF04F020
:1039CA000900F5CF05F00900F5CF06F00900F5CF9B
:1039DA0007F00DC100F00EC101F00FC102F010C1D5
:1039EA0003F0F9EC06F00A0E046E000E056E066E80
:1039FA00076EF9EC06F008C000F009C001F00AC031
:103A0A0002F00BC003F0300E00240001FF6FD6D085
:103A1A00010105AB45D001C100F002C101F0000E61
:103A2A0002BFFF0E026E036E0036009001360236A8
:103A3A000336003600900136023603364F0E002454
:103A4A00F66E420E0120F76E000E0220F86E090093
:103A5A00F5CF04F00900F5CF05F00900F5CF06F01F
:103A6A000900F5CF07F00DC100F00EC101F00FC13A
:103A7A0002F010C103F0F9EC06F00F0E0016000E6A
:103A8A000116021603166F0E0024F66E420E01206E
:103A9A00F76E000E0220F86E0900F5CFFFF044D051
:103AAA0001C100F002C101F0000E02BFFF0E026E5A
:103ABA00036E003600900136023603360036009057
:103ACA000136023603364F0E0024F66E420E0120EE
:103ADA00F76E000E0220F86E0900F5CF04F0090017
:103AEA00F5CF05F00900F5CF06F00900F5CF07F08C
:103AFA000DC100F00EC101F00FC102F010C103F0B8
:103B0A00F9EC06F00F0E0016000E01160216031647
:103B1A00800E0024F66E420E0120F76E000E02207F
:103B2A00F86E0900F5CFFFF049D001C100F002C1DB
:103B3A0001F0000E02BFFF0E026E036E0036009007
:103B4A000136023603360036009001360236033655
:103B5A00F70E0024F66E410E0120F76E000E0220C9
:103B6A00F86E0900F5CF04F00900F5CF05F0090059
:103B7A00F5CF06F00900F5CF07F00DC100F00EC130
:103B8A0001F00FC102F010C103F0F9EC06F0070EC4
:103B9A0000140001FF6F300EFF2710D001011A51E7
:103BAA00000AD8B4EED61A51C00AD8B4EAD61A51C5
:103BBA00800AD8B42DD71A51400AB7E0F8C0E1FFFD
:103BCA00F9C0E2FFFFC0E6FF0001F84BF92B010143
:103BDA00184B192BC3D605A71CD0800E006E800E79
:103BEA000419005C02E10351000813E2F8C0E1FF86
:103BFA00F9C0E2FF200EE66E0001F84BF92B010135
:103C0A00184B192B010E035F000E045B03510411BC
:103C1A00EDE152EF0DF018C100F019C101F01200E8
:0E3C2A00ACB202D00000FCD7F8C0ADFF120013
:103C3800F1C000F00001F107005227E0EDC0E9FFF4
:103C4800EEC0EAFFEE50000A0CE0EDC0E9FFEEC05E
:103C5800EAFFEFC0D9FFF0C0DAFFEE50DE1801E14D
:103C68000FD0EDC0E9FFEEC0EAFFEFC0D9FFF0C00A
:103C7800DAFFDE50EE5C006E016A000E015A120097
:103C8800ED4BEE2BEF4BF02BD3D7006A016A1200F5
:103C9800EDC002F0EEC003F002C000F003C001F076
:103CA800024A032A00C0E9FF01C0EAFFEE5201E020
:103CB800F3D70001ED51025C006EEE510358016E1E
:0A3CC800010E005E000E015A12000A
:103CD200F20E0001F66F000EF76FEDC0F8F0EEC0C5
:103CE200F9F0EFC0FAF0F0C0FBF0F1C0FCF0F60E14
:103CF200FD6F000EFE6F4DEC0DF000C0F4F001C040
:103D0200F5F000500001ED25E16E0150EE21E26E6A
:0C3D1200E66AF4C000F0F5C001F01200F9
:103D1E00EDC0E9FFEEC0EAFFEE500001EF1905E13C
:103D2E00EDC000F0EEC001F01200ED4BEE2BEDC039
:103D3E00E9FFEEC0EAFFEECF00F00052E9E1006AC3
:043D4E00016A1200F4
:0A3D5200000E9EBA010E006E120072
:103D5C000001F06BEDC0E9FFEEC0EAFFEECFEFF033
:103D6C00EF51000A0EE0EFC0F8F059DF0001F02B24
:103D7C00F051ED25E96E000EEE21EA6EEECFEFF07C
:043D8C00EFD712005B
:103D9000AECFD8F0ABA202D0AB98AB88D8C000F0C1
:023DA00012000F
:103DA2002A0E0001DD6F3C0EDE6FF80EDF6F000E93
:103DB200E06F900ED46F3D0ED56F000ED66F000EE1
:103DC200D76F520ED06F3D0ED16F000ED26F000E24
:103DD200D36FFF0ED96FFF0EDA6F000EDB6F000E8E
:103DE200DC6FAC8A900EAB6E948E949C9EAA03D02C
:083DF200AECF00F0FBD7120078
:103DFA000900F5CFE6FF0006FBE10106F9E1120032
:103E0A00E10E0001ED6F000EEE6F910EEF6F420EA4
:103E1A00F06F000EF16FB9C0F2F0BAC0F3F054DFE0
:103E2A00A50EED6F000EEE6F94DFE30EED6F000E40
:103E3A00EE6F8FDFE30EED6F000EEE6F8ADFC20EBC
:103E4A00ED6F000EEE6F85DFE30EED6F000EEE6F85
:103E5A0080DFBB0EED6F000EEE6F7BDFE30EED6FC2
:103E6A00000EEE6F76DF5B0EED6F000EEE6F71DF08
:103E7A00E30EED6F000EEE6F6CDF380EED6F000E85
:103E8A00EE6F67DFE30EED6F000EEE6F62DF7C0E02
:103E9A00ED6F000EEE6F5DDF620EED6F000EEE6FDE
:103EAA0058DFE10EED6F000EEE6F53DFE30EED6F9C
:103EBA00000EEE6F4EDF150EED6F000EEE6F49DF4E
:0C3ECA00E30EED6F000EEE6F44DF1200FF
:103ED6000001EB6BEC6BE95342E0E951FF0A01E0AC
:103EE600E90734DF0050000A01E1FBD74EDF00C0CE
:103EF600EAF00001EB51E525E16E000EE621E26EE7
:103F060000C0E6FFEB2BEC51E725E96E000EE82139
:103F1600EA6EEE50EA1902E1EC2B09D0EC6BE7C031
:103F2600E9FFE8C0EAFFEE50EA1901E1EC2BEC519B
:103F3600E725E96E000EE821EA6EEE50000A0EE172
:103F4600EC51EB5D006E016A000E015A0050E5254A
:103F5600E16E0150E621E26EE66A1200BCD7E5C0CA
:0A3F6600E1FFE6C0E2FFE66A120088
:103F7000000E0001E61902E1000EE51934E0E5C08B
:103F8000E9FFE6C0EAFFEE522EE0E7C0EDF0E8C040
:103F9000EEF082DE00C0F1F0E5C0EDF0E6C0EEF03C
:103FA000E7C0EFF0E8C0F0F047DE000E011802E1D4
:103FB000000E001805E1E5C000F0E6C001F01200B7
:103FC0000001010EE525ED6F000EE621EE6FE7C062
:103FD000E9FFE8C0EAFFEECFEFF0A1DE00C0E5F0B8
:0C3FE00001C0E6F0C5D7006A016A1200BB
:103FEC004AEC21F00D0E0001E36FE46B330EAF6E63
:103FFC00AC84D1DE020E0B6E040E0C6EBA0E0D6E7E
:10400C000D2EFED70C2EFCD70B2EFAD7000000017C
:10401C00CA6BCB6BF4DECE0EE56F000EE66FE30ED3
:10402C00E76F000EE86F020EE96F4FDFCC6BCD6BC4
:10403C00840EED6F000EEE6F29DE800ECD19026E30
:10404C00800E0118025C02E10050CC5D18E2840E77
:10405C00CC25E96E000ECD21EA6EEE50CE190CE1A6
:10406C007C0ECC25E16E000ECD21E26ECEC0E6FFBB
:10407C00010ECA6F000ECB6FCC4BCD2BD9D7CA51CA
:10408C00CB1104E1010EB95F000EBA5BB951BA1144
:10409C0006E18E0EED6F000EEE6F5ADE17D07C0E21
:1040AC00E56F000EE66F8C0EE76F000EE86F5ADFBF
:1040BC00000E011802E1000E001807E1980E000135
:0E40CC00ED6F000EEE6F44DE01D0A1D7FFD7DE
:1042940010EE15F0B50E006E010E016EDA0EF66E1C
:0E42A400400EF76E000EF86EFDEC1EF01200DC
:1040DA002D2D2D2D2D2D2D2D2D2D2D2D2D2D2D2D06
:1040EA002D2D2D2D2D2D2D2D2D2D2D2D2D2D2D2DF6
:0340FA002D2D0069
:1040FD002D2D2D2D2D2D2D2D2D2D2D2D2D2D2D2DE3
:10410D002D2D2D2D2D2D2D2D2D2D2D2D2D2D2D2DD2
:03411D002D2D0045
:074120004F4E5A4D594B00B0
:10412700202D2054656E7461746976617320726501
:0A4137007374616E7465733A200022
:084141005F5F5F5F5F5F5F00DD
:0841490044454D4F4E494F0063
:024151005F000D
:0A41530047414D45204F56455200EC
:0D415D00564F43452056454E434555210021
:10416A004A4F474F20444120464F524341202D2079
:04417A00312E3000B2
:02417E0005003A
:074180004541514F44490085
:084187004C65747261733A008B
:10418F000000007F000020820000488500007A8830
:10419F0000401C8C0050438F002474928096189618
:1041AF0020BC3E99286B6E9CF90215A0EC782DC1AE
:0441BF00CAF249E215
:1041C3000000007FCDCC4C7B0AD723786F12037598
:1041D30017B75171ACC5276EBD37066B95BF5667D0
:1041E30077CC2B645F700961FFE65B5D08E53C3CBF
:0441F3006042221BE9
:1041F700010000000800000040000000000200006D
:1042070000100000008000000000040000002000F3
:10421700000000010000000800000040000000004E
:10422700010000000A00000064000000E80300002D
:1042370010270000A086010040420F0080969800DA
:0842470000E1F50500CA9A3BF5
:10424F00010000001000000000010000001000003D
:10425F00000001000000100000000001000000102D
:10426F00303132333435363738394142434445469D
:01427F00003E
:1042800030313233343536373839616263646566CC
:01429000002D
:03429100256400A1
:020000040030CA
:0D000100220F0EFF0181FF0FC00FE00F4026
:00000001FF
