:10000000BEEF00F00000000000EF00F00000000074
:0A0010000000000000000000F3D71C
:0E001C00ACB202D00000FCD78CC0ADFF1200C9
:0A002A00000E9EBA010E006E1200D7
:10003400AECF7FF0ABA202D0AB98AB887FC000F00C
:020044001200A8
:1000460000018A6B8B6B895342E08951FF0A01E0FC
:100056008907E8DF0050000A01E1FBD7E8DF00C0AE
:1000660080F000018A518525E16E000E8621E26E40
:1000760000C0E6FF8A2B8B518725E96E000E88218A
:10008600EA6EEE50801902E18B2B09D08B6B87C08C
:10009600E9FF88C0EAFFEE50801901E18B2B8B51F6
:1000A6008725E96E000E8821EA6EEE50000A0EE101
:1000B6008B518A5D006E016A000E015A005085253B
:1000C600E16E01508621E26EE66A1200BCD785C059
:0A00D600E1FF86C0E2FFE66A1200B7
:1000E0000900F5CFE6FF0006FBE10106F9E1120089
:1000F0001C0E0001816F000E826F8C0E836F000E4C
:10010000846F340E7B6E000E7C6E000E7D6E000ED2
:100110007E6E2A0E736E000E746E000E756E000EEB
:10012000766EFF0E776EFF0E786E000E796E000E03
:100130007A6EAC8A900EAB6E948E949C9EAA03D07D
:08014000AECF00F0FBD7120066
:100148000001876B85C0E9FF86C0EAFFEECF80F02B
:100158008051000A0EE080C08CF05CDF0001872B24
:1001680087518525E96E000E8621EA6EEECF80F074
:04017800EFD71200AB
:10017C0035EC01F00D0E706E716A330EAF6EAC84FF
:10018C00B1DF020E0B6E040E0C6EBA0E0D6E0D2E40
:10019C00FED70C2EFCD70B2EFAD700003D0E00011B
:1001AC00856F000E866FCADF0D0E8C6F31DF0A0E65
:1001BC0000018C6F2DDF0D0E00018C6F29DF0A0EF4
:1001CC0000018C6F25DF1A0E0001856F000E866F03
:1001DC00B5DF0D0E8C6F1CDF0A0E00018C6F18DF63
:1001EC00510E0001856F000E866F700E876F000E2A
:1001FC00886F1E0E896F21DF150E856F000E866FBE
:10020C009DDF510E856F000E866F98DF08DF005260
:10021C0006E00ADF00C072F000C08CF0F9DEF6D701
:02022C00FFD7FA
:10026A0010EE15F03C0E006E010E016E2E0EF66EAB
:0E027A00020EF76E000EF86E70EC00F012002F
:05022E0054455441009D
:1002330044696769746520612070616C61767261DD
:100243002065207072657373696F6E6520456E74E7
:03025300657200D1
:100256004A4F474F20444120464F524341202D20CC
:04026600312E300005
:020000040030CA
:0D000100220F0EFF0181FF0FC00FE00F4026
:00000001FF
