:10000000E5EF00F00000000000EF00F0000000004D
:0A0010000000000000000000F3D71C
:0E001C00ACB202D00000FCD7CAC0ADFF12008B
:0A002A00000E9EBA010E006E1200D7
:10003400AECFBBF0ABA202D0AB98AB88BBC000F094
:020044001200A8
:100046000001C86BC96BC65342E0C651FF0A01E006
:10005600C607E8DF0050000A01E1FBD7E8DF00C071
:10006600C7F00001C851C225E16E000EC321E26E41
:1000760000C0E6FFC82BC951C425E96E000EC52194
:10008600EA6EEE50C71902E1C92B09D0C96BC4C08C
:10009600E9FFC5C0EAFFEE50C71901E1C92BC951F6
:1000A600C425E96E000EC521EA6EEE50000A0EE187
:1000B600C951C85D006E016A000E015A0050C22582
:1000C600E16E0150C321E26EE66A1200BCD7C2C0DF
:0A00D600E1FFC3C0E2FFE66A12007A
:1000E0000001C56BC2C0E9FFC3C0EAFFEECFC4F098
:1000F000C451000A0EE0C4C0CAF090DF0001C52B55
:10010000C551C225E96E000EC321EA6EEECFC4F0E0
:04011000EFD7120013
:100114000900F5CFE6FF0006FBE10106F9E1120054
:10012400C2C004F0C3C005F004C002F005C003F06F
:10013400044A052AC4C000F0C5C001F00001C44B44
:10014400C52B00C0E9FF01C0EAFF02C0E1FF03C004
:10015400E2FFEECFE6FF02C0E9FF03C0EAFFEE5282
:0E01640001E0E2D7C2C000F0C3C001F01200FB
:100172001C0E0001BC6F000EBD6FCA0EBE6F000EDA
:10018200BF6F340EAE6F000EAF6F000EB06F000E79
:10019200B16F2A0EB26F000EB36F000EB46F000E75
:1001A200B56FFF0EB66FFF0EB76F000EB86F000E81
:1001B200B96FAC8A900EAB6E948E949C9EAA03D0BB
:0801C200AECF00F0FBD71200E4
:1001CA0076EC01F00D0E0001C06FC16B8F0EC26F8D
:1001DA00000EC36F3D0EC46F000EC56F9EDF330E57
:1001EA00AF6EAC84C1DF020E0B6E040E0C6EBA0E3B
:1001FA000D6E0D2EFED70C2EFCD70B2EFAD7000053
:10020A005C0E0001C26F000EC36F65DF0D0ECA6F70
:10021A0000DF0A0E0001CA6FFCDE0D0E0001CA6F74
:10022A00F8DE0A0E0001CA6FF4DE150E0001C26F75
:10023A00000EC36F50DF0D0ECA6FEBDE0A0E00010F
:10024A00CA6FE7DE700E0001C26F000EC36FC00EE8
:10025A00C46F000EC56F1E0EC66FF0DE380EC26F79
:10026A00000EC36F38DF700EC26F000EC36F33DF2C
:10027A00D7DE005206E0D9DE00C0BAF000C0CAF0EC
:06028A00C8DEF6D7FFD725
:1002EC0010EE15F05B0E006E010E016E900EF66EA8
:0E02FC00020EF76E000EF86E8AEC00F0120093
:1002900044696769746520612070616C6176726180
:1002A0002065207072657373696F6E6520456E748A
:0302B00065720074
:0502B300544554410018
:1002B8002D2D2D2D2D2D2D2D2D2D2D2D2D2D2D2D66
:0F02C8002D2D2D2D2D2D2D2D2D2D2D2D2D2D00B1
:1002D7004A4F474F20444120464F524341202D204B
:0402E700312E300084
:020000040030CA
:0D000100220F0EFF0181FF0FC00FE00F4026
:00000001FF
