:100000007BEF1FF00000000000EF00F00000000098
:0A0010000000000000000000F3D71C
:08001C000AAE029E000E120064
:100024000B840BAE1DEF00F0010E036E026A016A31
:0A003400006A0A360232FF0E1200C5
:10003E000B820BAE29EF00F00368026801680068BE
:08004E000A360232FF0E120017
:0E005600026A016A006A086A036A000E12005C
:100064000CB074EF00F00CA21AEF01F00E6A000E4F
:1000740002648BEF00F0F00E0214D8A456EF00F0E7
:10008400023A01380F0B02260138F00B016E0038DA
:100094000F0B01260038F00B006E08380F0B0026FA
:1000A4000838F00B086E0E84D89002BE6FEF00F093
:1000B40008360036013602360E2A02BE6FEF00F013
:1000C40008360036013602360E2A02BE6FEF00F003
:1000D40008360036013602360E2A0E50036410EF3D
:1000E40001F0035E0BBC08AE15EF01F0D880800E62
:1000F40008640030000E002201220222D8A015EF6D
:1001040001F0023201320032034A1AEF01F015EF16
:1001140001F001C002F000C001F008C000F0086A5C
:10012400000E0E860264C2EF00F0F00E0214D8A492
:10013400AAEF00F0023A01380F0B02260138F00B47
:10014400016E00380F0B01260038F00B006E0E8490
:10015400D89002BE6FEF00F00036013602360E2A48
:1001640002BE6FEF00F00036013602360E2A02BEE0
:100174006FEF00F00036013602360E2A6FEF00F002
:1001840001C002F000C001F0006A000E0E960E8855
:100194000264EFEF00F0F00E0214D8A4DAEF00F0DE
:1001A400023A01380F0B02260138F00B016E0E845F
:1001B400D89002BE6FEF00F0013602360E2A02BE5E
:1001C4006FEF00F0013602360E2A02BE6FEF00F028
:1001D400013602360E2A6FEF00F001C002F0016A08
:1001E400000E0E8602641FEF01F0F00E0214D8A474
:1001F400FEEF00F0023A0E84D89002BE6FEF00F0DA
:1002040002360E2A02BE6FEF00F002360E2A02BE3C
:100214006FEF00F002360E2A6FEF00F0010E0C6E45
:10022400FFDE22EF01F0020E0C6EF6DE22EF01F08B
:10023400040E0C6E02DF22EF01F0080E0C6E09DFD3
:020244001200A6
:10024600086A096A000E07620364A8EF01F002500B
:1002560006180A6E075003267E0ED8A039EF01F065
:10026600035ED8B0ACEF01F03DEF01F0035ED8A01D
:10027600B0EF01F0028E068E02C00EF001C00BF048
:1002860000C00DF000500402F4CF0CF0015005023E
:10029600F4CF00F0F3CF08F00402F3500C26F4502C
:1002A6000822000E00220D500502F3500C26F450D1
:1002B6000822000E002202500402F3500826F450D1
:1002C600002202500502016A000E0122F3500026A8
:1002D600F45001220D500602F3500826F450002275
:1002E600026A000E012202220B500602F35000267B
:1002F600F4500122000E02220E500602F35001268F
:10030600F450022202BE90EF01F0083600360136A4
:1003160002360306D8B4B0EF01F0A3EF01F0D8809F
:10032600800E08640030000E002201220222D8A0AE
:10033600A3EF01F0023201320032034AACEF01F0C2
:100346000AAE029E000EB2EF01F0010E81DEB2EFA0
:1003560001F0020E71DEB2EF01F0040E60DE120053
:080366000B6A0B86FF0E12006A
:10036E000B800BAEC3EF01F0026A0AAEFF0E026EF7
:0C037E00016E006E0A360232FF0E120003
:10038A00086A080E0C6E003408360450085ED8B0AD
:0E039A0002D00826D89000360C2EF5D712009F
:1003A8000134083609360450085E0550D8A0053CCB
:1003B800095E003601360F0E0C6E01340836093618
:1003C800045000A006D0085E0550D8A0053C095E80
:1003D80005D008260550D8B0053C09260036013658
:1003E8000C2EEBD700B006D0045008260550D8B024
:0803F800053C0926000012007B
:10040000025006180E6E086A096A0B6A03500764E8
:10041000F3EF02F006500A6E068E028E03500B6E4A
:100420000750036E000E0B6443EF02F00B50075EA3
:10043000D8B4E4EF02F0070E0764B2EF02F0075EF3
:1004400000C008F001C000F002C001F0026A074ECF
:10045000E4EF02F0076487EF02F0075E00C008F0E7
:1004600001C000F0016A074EE4EF02F0076465EF97
:1004700002F0075E00C008F0006A074EE4EF02F0E9
:1004800007644CEF02F00AC002F005C001F004C09E
:1004900000F0086A0DEF04F0030E076457EF02F056
:1004A000075E08380F0B086E074EE4EF02F0D89095
:1004B0000832074EE4EF02F0D8900832074EE4EF1E
:1004C00002F0D8900832E4EF02F0030E076476EFF2
:1004D00002F0075E08380F0B086E0038F00B082694
:1004E00000380F0B006E074EE4EF02F0D890003298
:1004F0000832074EE4EF02F0D89000320832074E7F
:10050000E4EF02F0D89000320832E4EF02F0030E7C
:1005100007649EEF02F0075E08380F0B086E003884
:10052000F00B082600380F0B006E0138F00B002688
:1005300001380F0B016E074EE4EF02F0D890013244
:1005400000320832074EE4EF02F0D8900132003258
:100550000832074EE4EF02F0D89001320032083240
:10056000E4EF02F0030E0764CFEF02F0075E0838F5
:100570000F0B086E0038F00B082600380F0B006ECA
:100580000138F00B002601380F0B016E0238F00B1A
:10059000012602380F0B026E074EE4EF02F0D890EE
:1005A0000232013200320832074EE4EF02F0D890F6
:1005B0000232013200320832074EE4EF02F0D890E6
:1005C0000232013200320832096A000E0EAED8EF54
:1005D00003F0081E001E011E021E082A002201222E
:1005E0000222D8EF03F00750D8A4F9EF02F00DEF84
:1005F00004F0096A02C00AF0028E068E0750035CFE
:10060000076ED8B4CBEF03F0070E076499EF03F041
:10061000075E0450096E0550046E0650056E066AAA
:10062000074ECBEF03F0070E07646EEF03F0075E93
:100630000450096E0550046E056A074ECBEF03F0B7
:10064000070E07644CEF03F0075E0450096E046A5E
:10065000074ECBEF03F0070E076433EF03F00AC039
:1006600002F00DEF04F0030E07643EEF03F0075EA7
:1006700009380F0B096E074ECBEF03F0D890093203
:10068000074ECBEF03F0D8900932074ECBEF03F0C3
:10069000D8900932CBEF03F0030E07645DEF03F04F
:1006A000075E09380F0B096E0438F00B0926043871
:1006B0000F0B046E074ECBEF03F0D89004320932D3
:1006C000074ECBEF03F0D89004320932074ECBEF40
:1006D00003F0D89004320932CBEF03F0030E076425
:1006E00085EF03F0075E09380F0B096E0438F00B35
:1006F000092604380F0B046E0538F00B0426053864
:100700000F0B056E074ECBEF03F0D8900532043285
:100710000932074ECBEF03F0D8900532043209328C
:10072000074ECBEF03F0D890053204320932CBEFFD
:1007300003F0030E0764B6EF03F0075E09380F0BF2
:10074000096E0438F00B092604380F0B046E0538C7
:10075000F00B042605380F0B056E0638F00B052646
:1007600006380F0B066E074ECBEF03F0D89006321B
:10077000053204320932074ECBEF03F0D89006322F
:10078000053204320932074ECBEF03F0D89006321F
:10079000053204320932086A000E0EAED8EF03F0BB
:1007A000091E041E051E061E092A04220522062211
:1007B000095008260450002205500122065002224A
:1007C0000EBEEFEF03F0D8A0FEEF03F002320132CD
:1007D00000320832033EFEEF03F008EF04F0D8B019
:1007E00003EF04F0000E081E001E011E021E082A60
:1007F0000022012202220A7E03EF04F0010E0C6E99
:1008000031DC0FEF04F0020E0C6E2CDC0FEF04F065
:10081000040E0C6E14DC0FEF04F0000E0C6E1200D0
:100820000D6A086A0050D8B4000C04180A6E0ABE9B
:100830000D1E0B6A04AE02D0041E042A00A002D0D2
:10084000001E002A005004100A6E0ABE1FD0045079
:10085000085E003600340836045008260036060EBE
:100860000C6E00340836045000B0085E00A0082664
:1008700000360C2EF6D700A008260BB015D00DAE12
:10088000000C001E002A081E082A000C04AE09D025
:1008900000BE04D00050086E006AF1D7006A002A3A
:1008A000000C001E0B2AD3D7082A0450085CD8A4D9
:0E08B000E6D7086A002A00AEE2D7FF0C12005D
:1008BE000B6A0A6A096A086A0E6A0334083604501B
:1008CE00085E0550D8A0053C095E0650D8A0063C2F
:1008DE000A5E0750D8A0073C0B5EE86AD8A0010E4E
:1008EE000E5E0336070E0C6E0334083609360A36D2
:1008FE000B360E36045003A012D0085E0550D8A059
:10090E00053C095E0650D8A0063C0A5E0750D8A0EA
:10091E00073C0B5EE86AD8A0010E0E5E11D00826C9
:10092E000550D8B0053C09260650D8B0063C0A261C
:10093E000750D8B0073C0B26E86AD8B0010E0E2639
:10094E0003360C2ED1D70234083609360A360B364A
:10095E000E36045003A012D0085E0550D8A0053CF8
:10096E00095E0650D8A0063C0A5E0750D8A0073C88
:10097E000B5EE86AD8A0010E0E5E11D00826055057
:10098E00D8B0053C09260650D8B0063C0A260750BA
:10099E00D8B0073C0B26E86AD8B0010E0E260236F8
:1009AE00070E0C6E0234083609360A360B360E3632
:1009BE00045002A012D0085E0550D8A0053C095E76
:1009CE000650D8A0063C0A5E0750D8A0073C0B5E26
:1009DE00E86AD8A0010E0E5E11D008260550D8B0D8
:1009EE00053C09260650D8B0063C0A260750D8B05A
:1009FE00073C0B26E86AD8B0010E0E2602360C2EE6
:100A0E00D1D70134083609360A360B360E36045065
:100A1E0002A012D0085E0550D8A0053C095E065013
:100A2E00D8A0063C0A5E0750D8A0073C0B5EE86AC9
:100A3E00D8A0010E0E5E11D008260550D8B0053C88
:100A4E0009260650D8B0063C0A260750D8B0073CF7
:100A5E000B26E86AD8B0010E0E260136070E0C6E74
:100A6E000134083609360A360B360E36045001A00C
:100A7E0012D0085E0550D8A0053C095E0650D8A0DD
:100A8E00063C0A5E0750D8A0073C0B5EE86AD8A069
:100A9E00010E0E5E11D008260550D8B0053C092671
:100AAE000650D8B0063C0A260750D8B0073C0B2695
:100ABE00E86AD8B0010E0E2601360C2ED1D70034BE
:100ACE00083609360A360B360E36045001A012D0FF
:100ADE00085E0550D8A0053C095E0650D8A0063C1D
:100AEE000A5E0750D8A0073C0B5EE86AD8A0010E3C
:100AFE000E5E11D008260550D8B0053C09260650CA
:100B0E00D8B0063C0A260750D8B0073C0B26E86A38
:100B1E00D8B0010E0E260036070E0C6E00340836C5
:100B2E0009360A360B360E36045000A012D0085E77
:100B3E000550D8A0053C095E0650D8A0063C0A5EBA
:100B4E000750D8A0073C0B5EE86AD8A0010E0E5ED7
:100B5E0011D008260550D8B0053C09260650D8B04D
:100B6E00063C0A260750D8B0073C0B26E86AD8B0D8
:100B7E00010E0E2600360C2ED1D700B00ED004502A
:100B8E0008260550D8B0053C09260650D8B0063CBC
:0C0B9E000A260750D8B0073C0B261200B6
:100BAA000050086E0150006E0250016E0350026E32
:100BBA00036A0B6A0C6A9E0E036E0A6A020E0C6EB8
:060BCA0032EC00F0120005
:100BD0000B6A0A6A096A00500402F4CF09F0F3CFE5
:100BE00008F001500502F4CF0BF0F3CF0AF00050EB
:100BF0000502F3500926F4500A22E86A0B2201503C
:100C00000402F3500926F4500A22E86A0B2208C0B5
:100C100000F009C001F00AC002F00BC003F012009E
:100C2000800E01014F19006E800E000A005CD8B0E2
:100C300067D14F510008016E01C04FF1800E0118BD
:100C4000006E800E6E0A005CD8A0BCD0640E046EEC
:100C50004FC100F0E5DD120E0024056E000E00BE4F
:100C6000FF0E066E000E062205C000F006C001F061
:100C7000000E06BEFF0E026E036E003600900136B7
:100C80000236033600360090013602360336270E50
:100C90000024F66E420E0120F76E000E0220F86E60
:100CA0000900F5CF50F10900F5CF51F10900F5CF5A
:100CB00052F10900F5CF53F1640E046E4FC100F0FC
:100CC000AFDD08C000F00A0E046EAADD090E002494
:100CD000056E000E00BEFF0E066E000E062205C059
:100CE00000F006C001F0000E06BEFF0E026E036E9D
:100CF0000036009001360236033600360090013689
:100D000002360336270E0024F66E420E0120F76EDF
:100D1000000E0220F86E0900F5CF00F00900F5CFB3
:100D200001F00900F5CF02F00900F5CF03F050C142
:100D300004F051C105F052C106F053C107F023EC95
:100D400001F000C050F101C051F102C052F103C0E6
:100D500053F10A0E046E4FC100F062DD08C000F0CE
:100D600000C001F0000E00BEFF0E026E036E046EA6
:100D70000136019002360336043601360190023600
:100D800003360436270E0124F66E420E0220F76E5B
:100D9000000E0320F86E0900F5CF00F00900F5CF32
:100DA00001F00900F5CF02F00900F5CF03F050C1C2
:100DB00004F051C105F052C106F053C107F023EC15
:100DC00001F01200800E0A0A006E800E4F19005CBE
:100DD0006FE20A0E046E4FC100F022DD090E0024FE
:100DE000056E000E00BEFF0E066E000E062205C048
:100DF00000F006C001F0000E06BEFF0E026E036E8C
:100E00000036009001360236033600360090013677
:100E100002360336270E0024F66E420E0120F76ECE
:100E2000000E0220F86E0900F5CF50F10900F5CF51
:100E300051F10900F5CF52F10900F5CF53F10A0E37
:100E4000046E4FC100F0ECDC08C000F000C001F0FF
:100E5000000E00BEFF0E026E036E046E013601909E
:100E60000236033604360136019002360336043664
:100E7000270E0124F66E420E0220F76E000E0320AC
:100E8000F86E0900F5CF00F00900F5CF01F0090078
:100E9000F5CF02F00900F5CF03F050C104F051C1C5
:100EA00005F052C106F053C107F023EC01F0120027
:100EB0004FC100F0000E4FBFFF0E016E026E036EB9
:100EC00000360090013602360336003600900136B7
:100ED00002360336270E0024F66E420E0120F76E0E
:100EE000000E0220F86E0900F5CF00F00900F5CFE2
:100EF00001F00900F5CF02F00900F5CF03F0120070
:100F0000800E4F19006E800E6E0A005CD8A0BCD017
:100F1000640E046E4FC100F083DC120E0024056ED7
:100F2000000E00BEFF0E066E000E062205C000F089
:100F300006C001F0000E06BEFF0E026E036E003604
:100F40000090013602360336003600900136023634
:100F50000336F30E0024F66E410E0120F76E000EEC
:100F60000220F86E0900F5CF50F10900F5CF51F1DC
:100F70000900F5CF52F10900F5CF53F1640E046E6C
:100F80004FC100F04DDC08C000F00A0E046E48DCD2
:100F9000090E0024056E000E00BEFF0E066E000E48
:100FA000062205C000F006C001F0000E06BEFF0ECE
:100FB000026E036E003600900136023603360036AC
:100FC0000090013602360336F30E0024F66E410E11
:100FD0000120F76E000E0220F86E0900F5CF00F038
:100FE0000900F5CF01F00900F5CF02F00900F5CFB7
:100FF00003F050C104F051C105F052C106F053C1D5
:1010000007F023EC01F000C050F101C051F102C023
:1010100052F103C053F10A0E046E4FC100F000DC20
:1010200008C000F000C001F0000E00BEFF0E026E0E
:10103000036E046E01360190023603360436013623
:101040000190023603360436F30E0124F66E410E8B
:101050000220F76E000E0320F86E0900F5CF00F0B5
:101060000900F5CF01F00900F5CF02F00900F5CF36
:1010700003F050C104F051C105F052C106F053C154
:1010800007F023EC01F01200800E0A0A006E800EB9
:101090004F19005C71E20A0E046E4FC100F010ECB3
:1010A00004F0090E0024056E000E00BEFF0E066E51
:1010B000000E062205C000F006C001F0000E06BEBC
:1010C000FF0E026E036E00360090013602360336C4
:1010D00000360090013602360336F30E0024F66E19
:1010E000410E0120F76E000E0220F86E0900F5CFC8
:1010F00050F10900F5CF51F10900F5CF52F1090087
:10110000F5CF53F10A0E046E4FC100F010EC04F05D
:1011100008C000F000C001F0000E00BEFF0E026E1D
:10112000036E046E01360190023603360436013632
:101130000190023603360436F30E0124F66E410E9A
:101140000220F76E000E0320F86E0900F5CF00F0C4
:101150000900F5CF01F00900F5CF02F00900F5CF45
:1011600003F050C104F051C105F052C106F053C163
:1011700007F023EC01F012004FC100F0000E4FBF4A
:10118000FF0E016E026E036E0036009001360236CD
:10119000033600360090013602360336F30E002483
:1011A000F66E410E0120F76E000E0220F86E090067
:1011B000F5CF00F00900F5CF01F00900F5CF02F0FE
:0811C0000900F5CF03F0120055
:1011C8006E0E01014F5DD8A0CAD0640E046E4FC1E7
:1011D80000F0C5EC01F0120E0024056E066A000E40
:1011E800062205C000F006C001F0000E06BEFF0E84
:1011F800026E036E00360090013602360336003662
:101208000090013602360336270E0024F66E420E91
:101218000120F76E000E0220F86E0900F5CF00F0ED
:101228000900F5CF01F00900F5CF02F00900F5CF6C
:1012380003F0000E046E000E056E000E066E7E0EA4
:10124800076E23EC01F000C050F101C051F102C05B
:1012580052F103C053F1640E046E4FC100F0C5ECA7
:1012680001F008C000F00A0E046EC5EC01F0090E8A
:101278000024056E066A000E062205C000F006C0AE
:1012880001F0000E06BEFF0E026E036E00360090DF
:101298000136023603360036009001360236033630
:1012A800270E0024F66E420E0120F76E000E022073
:1012B800F86E0900F5CF00F00900F5CF01F009003C
:1012C800F5CF02F00900F5CF03F050C104F051C189
:1012D80005F052C106F053C107F023EC01F000C03D
:1012E80050F101C051F102C052F103C053F10A0E8E
:1012F800046E4FC100F0C5EC01F008C000F000C05A
:1013080001F0000E026E036E046E01360190023683
:101318000336043601360190023603360436270EAA
:101328000124F66E420E0220F76E000E0320F86EBE
:101338000900F5CF00F00900F5CF01F00900F5CF5D
:1013480002F00900F5CF03F050C104F051C105F0D7
:1013580052C106F053C107F023EC01F012004F51BF
:101368000A087EE20A0E046E4FC100F0C5EC01F0D7
:10137800090E0024056E066A000E062205C000F05C
:1013880006C001F0000E06BEFF0E026E036E0036A8
:1013980000900136023603360036009001360236D8
:1013A8000336270E0024F66E420E0120F76E000E5B
:1013B8000220F86E0900F5CF00F00900F5CF01F022
:1013C8000900F5CF02F00900F5CF03F0000E046E16
:1013D800000E056E000E066E7E0E076E23EC01F001
:1013E80000C050F101C051F102C052F103C053F1E5
:1013F8000A0E046E4FC100F0C5EC01F008C000F001
:1014080000C001F0000E026E036E046E01360190FA
:1014180002360336043601360190023603360436A6
:10142800270E0124F66E420E0220F76E000E0320EE
:10143800F86E0900F5CF00F00900F5CF01F00900BA
:10144800F5CF02F00900F5CF03F050C104F051C107
:1014580005F052C106F053C107F023EC01F0120069
:101468004FC100F0000E016E026E036E0036009050
:10147800013602360336003600900136023603364E
:10148800270E0024F66E420E0120F76E000E022091
:10149800F86E0900F5CF00F00900F5CF01F009005A
:1014A800F5CF02F00900F5CF03F0000E046E000E30
:1014B800056E000E066E7E0E076E23EC01F012001C
:1014C8000B6A0C6A086A0350D8B4E8EF0AF002C045
:1014D8000AF0028E9E0E035E03AED8EF0AF0036C8C
:1014E800080E035CD8A0A5EF0AF0036E083600C00A
:1014F80008F001C000F002C001F0026A080E035CA7
:10150800D8A0A5EF0AF0036E083600C008F001C0A5
:1015180000F0016A080E035CD8A0A5EF0AF0036E7C
:10152800083600C008F0006A080E035CD8A0A5EFD2
:101538000AF0036E0836086A0350D8A4D890B1EFB1
:101548000AF00350D8B4B1EF0AF0D8900232013251
:1015580000320832032EA9EF0AF00BBC08A0C2EF34
:101568000AF0D8A0C2EF0AF0082AD8B4002AD8B4E2
:10157800012AD8B4022A02BEECEF0AF00AAEE8EF5C
:101588000AF0021E011E001E081E082AD8B4002AEE
:10159800D8B4012AD8B4022AE8EF0AF0026A016A2C
:1015A800006A086AE8EF0AF00B800BAEF3EF0AF066
:1015B800026A0AAEF3EF0AF0026E016E006E086E60
:1015C8000A360232F3EF0AF00C6A000EF4EF0AF062
:1015D800010E0C6E000EB7EC01F0F4EF0AF0FF0EEE
:1015E8000250036E0150026E0050016E0850006EEA
:0215F8001200DF
:0815FA00067E00EC02F0120075
:101602000450000A08E10550000A05E1FF0E006ED1
:101612007F0E016E12000D6A096A086A01500010FD
:10162200D8B4000C015005180A6E0ABE0D1E0B6AD2
:1016320005AE05D0041E051E042AD8B4052A01AE43
:1016420005D0001E011E002AD8B4012A015005103F
:101652000A6E0ABE10D0D4EC01F00BB020D00DAE51
:10166200000C001E011E002AD8B4012A081E091E01
:10167200082AD8B4092A000C05AE0DD001BE07D045
:101682000150096E0050086E016A006AE8D7016ACB
:10169200006A002A000C011E001E0B2ADDD7082A50
:1016A200D8B4092A0450085CD8A4D9D70550095CDB
:1016B200D8A4D5D7096A086A002AD8B4012A01AE8B
:0816C200CED70000FF0C12005E
:1016CA000A6A0350D8A40A800750D8A40A820A508A
:1016DA00D8B4C8EF0BF0030AD8B481EF0BF00AB004
:1016EA007CEF0BF006AEC6EF0BF0C4EF0BF002AEC8
:1016FA00C4EF0BF0C6EF0BF00250800B0A6E029E8D
:10170A000650800B069E0A18D8B492EF0BF00A50C6
:10171A00D8B4C4EF0BF0C6EF0BF00750035CD8B493
:10172A009CEF0BF0D8A0B8EF0BF0BEEF0BF0065011
:10173A00025CD8B4A6EF0BF0D8A0B8EF0BF0BEEF5E
:10174A000BF00550015CD8B4B0EF0BF0D8A0B8EF9D
:10175A000BF0BEEF0BF00450005CD8B4C8EF0BF0EE
:10176A00D8B0BEEF0BF00A52D8B4C6EF0BF0C4EFF4
:10177A000BF00A52D8B4C4EF0BF0C6EF0BF0D880C6
:0E178A001200D8901200D880D88412001200ED
:1017980003500718D8A4E0EF0BF002500618D8A49D
:1017A800E0EF0BF001500518D8A4E0EF0BF0005063
:0E17B8000418D8B4D8841200D894120012007D
:1017C60001014F51390806E3300E4F5D03E3010E68
:0817D600006E01D0006A120050
:1017DE000B6A0C6A0A6A086A0350D8B477EF0CF0E9
:1017EE00028E9E0E035E03BE02EF0CF0D8B402EF23
:1017FE000CF067EF0CF0036C080E035CD8A034EF0E
:10180E000CF0036E083600C008F001C000F002C0F4
:10181E0001F0026A080E035CD8A034EF0CF0036EE0
:10182E00083600C008F001C000F0016A080E035C23
:10183E00D8A034EF0CF0036E083600C008F0006A32
:10184E00080E035CD8A034EF0CF0036E0836086A5D
:10185E000350D8A4D89040EF0CF00350D8B440EF0A
:10186E000CF0D8900232013200320832032E38EFDB
:10187E000CF00BBC08A051EF0CF0D8A051EF0CF0FF
:10188E00082AD8B4002AD8B4012AD8B4022A02BE33
:10189E007BEF0CF00AAE77EF0CF0021E011E001E5D
:1018AE00081E082AD8B4002AD8B4012AD8B4022AAD
:1018BE0077EF0CF0026A016A006A086A77EF0CF0A3
:1018CE000B800BAE81EF0CF0026A0AAE81EF0CF0CA
:1018DE00026E016E006E086E0A36023281EF0CF057
:1018EE00000E0C6A82EF0CF0010E0C6EB7EC01F0DC
:1018FE0082EF0CF0FF0E0250036E0150026E00508C
:08190E00016E0850006E12008A
:101916000450000A12E10550000A0FE10650000AC1
:101926000CE10750000A09E1FF0E006EFF0E016E82
:101936007F0E026EFF0E036E1200086A096A0750D8
:10194600D8B436EF0DF00350D8B43BEF0DF002508B
:1019560006180A6E028E068E0E6A02C008F001C0D4
:101966000CF000C00DF004500D5E0550D8A0053CEB
:101976000C5E0650D8A0063C085E086A0C6A0D6A22
:10198600D8A0CDEF0CF0D8900232013200320832E6
:10199600010E0E6E0750035ED8A0DAEF0CF07E0E35
:1019A6000E240326D8B040EF0DF0E0EF0CF07E0ECB
:1019B6000E240326D8A045EF0DF0180E0B6E0D363B
:1019C6000C3608360036013602360E360450005EF6
:1019D6000550D8A0053C015E0650D8A0063C025E24
:1019E60006340E120EA0FBEF0CF00D8006EF0DF084
:1019F600045000260550D8B0053C01260650D8B044
:101A0600062802260D900B2EE2EF0CF02CEF0DF0BF
:101A1600D8900036013602360E360450005E055068
:101A2600D8A0053C015E0650D8A0063C025E0634EE
:101A36000E10010B0D26D8B00C2AD8B4082AD8A44B
:101A46002CEF0DF008320C320D32032AD8B440EFD9
:101A56000DF00AAE089E0850026E0C50016E0D5035
:101A6600006E48EF0DF0010EB3EC01F048EF0DF0FB
:101A7600020E2BEC00F048EF0DF0040E1FEC00F008
:0C1A860048EF0DF0080E12EC00F012000A
:0E1A9200ACB202D00000FCD728C1ADFF12009C
:101AA0000101476B486B346B356B2AC100F02BC1C9
:101AB00001F02CC102F0010E2A27000E2B232C234B
:101AC00000C0F6FF01C0F7FF02C0F8FF0900F5CF24
:101AD00000F000C031F10052D8B461EF1DF0315177
:101AE000250A0BE028C1E1FF29C1E2FF31C1E6FF71
:101AF000284B292B474B482BD8D7326B336B346B91
:101B0000356B23D03487010E2A27000E2B232C237C
:101B100059D03481010E2A27000E2B232C2352D0BA
:101B20003483010E2A27000E2B232C234BD035871C
:101B3000010E2A27000E2B232C2344D03485010EBE
:101B40002A27000E2B232C233DD02AC1F6FF2BC1C0
:101B5000F7FF2CC1F8FF0900F5CF01F001502D0A65
:101B6000D1E02AC1F6FF2BC1F7FF2CC1F8FF090015
:101B7000F5CF01F00150200ACCE02AC1F6FF2BC1BD
:101B8000F7FF2CC1F8FF0900F5CF01F001502B0A37
:101B9000C7E02AC1F6FF2BC1F7FF2CC1F8FF0900EF
:101BA000F5CF01F00150230AC2E02AC1F6FF2BC194
:101BB000F7FF2CC1F8FF0900F5CF01F00150300A02
:101BC000BDE001D09ED734A301D0349134A701D019
:101BD00034952AC1F6FF2BC1F7FF2CC1F8FF09008D
:101BE000F5CF00F0000E016E00C04FF1ECDD0052A9
:101BF00035E0326B336B32C100F033C101F00A0EB5
:101C0000046E000E056EE8EC05F02AC1F6FF2BC14C
:101C1000F7FF2CC1F8FF0900F5CF02F002500024B5
:101C2000326F000E0120336F300E325F000E335BD7
:101C3000010E2A27000E2B232C232AC1F6FF2BC1CD
:101C4000F7FF2CC1F8FF0900F5CF00F0000E016E80
:101C500000C04FF1B8DD0052CEE133D02AC1F6FF0B
:101C60002BC1F7FF2CC1F8FF0900F5CF01F001509F
:101C70002A0A27E12DC1E9FF2EC1EAFFEECF00F0CD
:101C8000EECF01F000C0E9FF01C0EAFFEECF32F174
:101C9000EECF33F12DC1E9FF2EC1EAFF020EEE2493
:101CA000006E000EEE20016E2DC1E1FF2EC1E2FF9D
:101CB00000C0E6FF01C0E6FF010E2A27000E2B231D
:101CC0002C232AC1F6FF2BC1F7FF2CC1F8FF090016
:101CD000F5CF01F001502E0A6FE1010E2A27000E08
:101CE0002B232C232AC1F6FF2BC1F7FF2CC1F8FFB1
:101CF0000900F5CF01F001502A0A28E12DC1E9FFC2
:101D00002EC1EAFFEECF00F0EECF01F000C0E9FFF8
:101D100001C0EAFFEECF2FF1EECF30F12DC1E9FF88
:101D20002EC1EAFF020EEE24006E000EEE20016EC0
:101D30002DC1E1FF2EC1E2FF00C0E6FF01C0E6FFBA
:101D4000010E2A27000E2B232C2335D02F6B306B4E
:101D50002AC1F6FF2BC1F7FF2CC1F8FF0900F5CF10
:101D600000F0000E016E00C04FF12DDD005223E0A7
:101D70002FC100F030C101F00A0E046E000E056E96
:101D8000E8EC05F02AC1F6FF2BC1F7FF2CC1F8FFE4
:101D90000900F5CF02F0025000242F6F000E012041
:101DA000306F300E2F5F000E305B010E2A27000EC1
:101DB0002B232C23CDD703D02F6B306B35892AC131
:101DC00000F02BC101F02CC102F0010E2A27000EF9
:101DD0002B232C2300C0F6FF01C0F7FF02C0F8FF41
:101DE0000900F5CF31F105D147C100F048C101F03C
:101DF00012003489E4D7358537D1348B358134D11D
:101E0000358332D1348D30D12FD1348B348F2CD1D6
:101E10002DC1E9FF2EC1EAFFEECF00F0EECF01F0B9
:101E200000C0E9FF01C0EAFFEECF3CF1EECF3DF18B
:101E30002DC1E9FF2EC1EAFF020EEE24006E000E56
:101E4000EE20016E2DC1E1FF2EC1E2FF00C0E6FFD2
:101E500001C0E6FF000E3D1902E1000E3C1911E140
:101E6000280E406F6E0E416F750E426F6C0E436F01
:101E70006C0E446F290E456F466B400E3C6F010E91
:101E80003D6F3E6B3F6B3E513C25E96E3F513D211E
:101E9000EA6EEE520BE0010E3E25006E000E3F2171
:101EA000016E00C03EF101C03FF1EDD72F5130115E
:101EB0000AE03F51305D02E13E512F5D04E22FC147
:101EC0003EF130C13FF133513F5D02E132513E5DA1
:101ED00005E23E51325F3F51335B02D0326B336BD0
:101EE00034B716D032C100F033C101F0010E325FB9
:101EF000000E335B005001100BE028C1E1FF29C147
:101F0000E2FF200EE66E284B292B474B482BEAD7E1
:101F10003EC102F03FC103F0010E3E5D006E000EB7
:101F20003F59016E00C03EF101C03FF10250031065
:101F300019E03CC1E9FF3DC1EAFF28C1E1FF29C129
:101F4000E2FFEECFE6FF284B292B010E3C25006E69
:101F5000000E3D21016E00C03CF101C03DF1474B38
:101F6000482BD6D734A716D032C100F033C101F0C8
:101F7000010E325F000E335B005001100BE028C1F0
:101F8000E1FF29C1E2FF200EE66E284B292B474BCB
:101F9000482BEAD78AD52DC1E9FF2EC1EAFFEECF43
:101FA00000F0EECF01F000C0E9FF01C0EAFFEECF84
:101FB00031F12DC1E9FF2EC1EAFF020EEE24006EC1
:101FC000000EEE20016E2DC1E1FF2EC1E2FF00C028
:101FD000E6FF01C0E6FF310E3C6F010E3D6F010EC2
:101FE0003E6F000E3F6F62D7C00E3413000E3513E4
:101FF0003BD03151000AD8B4F7D631516C0AD8B46D
:10200000F8D63151660AD8B4F6D63151450AD8B45B
:10201000F4D63151650AD8B4F1D63151670AD8B433
:10202000EFD631516F0AD8B4EDD63151640AD8B425
:10203000EBD63151690AD8B4E7D63151700AD8B419
:10204000E4D63151580AD8B4E0D63151780AD8B420
:10205000DDD63151730AD8B4DBD63151630A9BE027
:102060003151750AC1E0B7D7000E3415006E3551F5
:10207000070B016E00500110D8B40CEF19F035A910
:1020800004D0060E2F6F000E306F2DC1E9FF2EC158
:10209000EAFFEECF00F0EECF01F000C0E9FF01C093
:1020A000EAFFEECF36F1EECF37F1EECF38F1EECFDB
:1020B00039F12DC1E9FF2EC1EAFF040EEE24006EB6
:1020C000000EEE20016E2DC1E1FF2EC1E2FF00C027
:1020D000E6FF01C0E6FF046A056A066A076A36C1C0
:1020E00000F037C101F038C102F039C103F065ECEE
:1020F0000BF0010ED8B0000E006E005205E0387FE4
:10210000030E3413000E35133A6B3B6B36C100F0EF
:1021100037C101F038C102F039C103F0046A056A21
:10212000066A076ACCEC0BF0000ED8A4010E006E14
:102130000052D8B48AD039C100F0016A026A036A39
:10214000FF0E0016000E01167E0E005E000E015AF4
:1021500000C03AF101C03BF1010E005E000E015AD1
:1021600000C03AF101C03BF1030E046E000E056E93
:10217000E8EC05F000C03AF101C03BF10A0E046E34
:10218000000E056E01EC0BF000C03AF101C03BF10E
:10219000800E0118026E800E025C02E1000E005CEF
:1021A00005E2010E01013A5F000E3B5B01013A516D
:1021B00000084F6F10EC06F036C104F037C105F08F
:1021C00038C106F039C107F023EC01F000C03CF142
:1021D00001C03DF102C03EF103C03FF1000E046EAC
:1021E000000E056E000E066E7F0E076E3CC100F0FD
:1021F0003DC101F03EC102F03FC103F065EC0BF0C0
:10220000010ED8B0000E006E005205E0010E3A5FDC
:10221000000E3B5B1AD0000E046E000E056E200E01
:10222000066E820E076E3CC100F03DC101F03EC15A
:1022300002F03FC103F065EC0BF0000ED8B0010EC8
:10224000006E005202E03A4B3B2B800E006E800E77
:102250003B19005C02E13A51000803E3010E316FC3
:1022600002D03AC131F135B118D035A315D0800E66
:102270003B19006E7F0E005C02E1FC0E3A5D0BE341
:10228000800E3B19006E800E3019005C02E12F5168
:102290003A5D01E201D001D0F1D32F51301106E0B7
:1022A00035A304D0010E2F5F000E305B000E006ED0
:1022B0003051005C02E12F51080803E2080E316F33
:1022C00002D02FC131F136C100F037C101F038C161
:1022D00002F039C103F0046A056A066A076ACCECA9
:1022E0000BF0000ED8A4010E006E0052D8B44BD1F2
:1022F0003AC14FF110EC06F000C004F001C005F047
:1023000002C006F003C007F036C100F037C101F08B
:1023100038C102F039C103F08BEC0CF000C036F18B
:1023200001C037F102C038F103C039F10101315168
:1023300000084F6F10EC06F000C004F001C005F07B
:1023400002C006F003C007F036C100F037C101F04B
:1023500038C102F039C103F08BEC0CF000C049F138
:1023600001C04AF102C04BF103C04CF149C136F142
:102370004AC137F14BC138F14CC139F149C100F0C4
:102380004AC101F04BC102F04CC103F0EFEC0BF07D
:10239000D5EC05F000C004F001C005F002C006F065
:1023A00003C007F049C100F04AC101F04BC102F07F
:1023B0004CC103F0FDEC0AF0000E046E000E056E39
:1023C000000E066E7E0E076E65EC0BF0000ED8B0A8
:1023D000010E006E00521AE036C100F037C101F064
:1023E00038C102F039C103F0000E046E000E056E14
:1023F000000E066E7E0E076E00EC02F000C036F195
:1024000001C037F102C038F103C039F136C100F024
:1024100037C101F038C102F039C103F0EFEC0BF025
:1024200001013151010F096E0A6A000E0A2209C02A
:1024300004F00AC005F0000E0ABEFF0E066E076E1D
:102440000436049005360636073604360490053601
:10245000063607368B0E0424F66E420E0520F76E04
:10246000000E0620F86E0900F5CF05F00900F5CF43
:1024700006F00900F5CF07F00900F5CF08F0085085
:10248000035C08E10750025C05E10650015C02E1D3
:102490000550005C1EE3010136C100F037C101F0B8
:1024A00038C102F039C103F0CD0E046ECC0E056EBA
:1024B0004C0E066E7B0E076E23EC01F000C036F169
:1024C00001C037F102C038F103C039F13A4B3B2B60
:1024D0005AD036C100F037C101F038C102F039C11D
:1024E00003F0EFEC0BF031C104F0000E056E066E48
:1024F000076E043604900536063607360436049017
:102500000536063607368B0E0424F66E420E05207D
:10251000F76E000E0620F86E0900F5CF05F00900F1
:10252000F5CF06F00900F5CF07F00900F5CF08F068
:102530000850035C08E10750025C05E10650015CAD
:1025400002E10550005C1FE2010136C100F037C115
:1025500001F038C102F039C103F0000E046E000E24
:10256000056E200E066E820E076E23EC01F000C091
:1025700036F101C037F102C038F103C039F1010E64
:102580003A5F000E3B5B010135A393D035B791D084
:10259000800E000A006E800E3019005C02E12F519F
:1025A0000A0804E20A0E2F6F000E306F36C100F0E9
:1025B00037C101F038C102F039C103F0EFEC0BF084
:1025C00000C03CF101C03DF102C03EF103C03FF14B
:1025D0003C513D113E113F1142E00A0E046E000EC7
:1025E000056E066E076E3CC100F03DC101F03EC1B4
:1025F00002F03FC103F05FEC04F008C000F009C036
:1026000001F00AC002F00BC003F0000E046E0318C4
:1026100008E10450021805E10450011802E10050DD
:10262000000A1DE1010E2F5F000E305B0A0E046EE2
:10263000000E056E066E076E3CC100F03DC101F054
:102640003EC102F03FC103F05FEC04F000C03CF17A
:1026500001C03DF102C03EF103C03FF1B9D7800E89
:102660003019006E800E005C02E131512F5D21E2D5
:102670002F51315D4F6F10EC06F000C004F001C027
:1026800005F002C006F003C007F036C100F037C104
:1026900001F038C102F039C103F08BEC0CF000C03E
:1026A00036F101C037F102C038F103C039F12FC152
:1026B00031F1050E01012F25006E000E3021016E53
:1026C0000050325F0150335B2F51301103E135B7B9
:1026D00001D004D0010E325F000E335B030E3415BF
:1026E000006E35C101F0000E01160050011004E02B
:1026F000010E325F000E335B34A539D034A312D003
:1027000034A103D02D0E006E02D02B0E006E28C116
:10271000E1FF29C1E2FF00C0E6FF284B292B474B10
:10272000482B0CD034A10AD028C1E1FF29C1E2FF17
:10273000200EE66E284B292B474B482B800E006E4F
:10274000800E3319005C02E1325100080FE228C10B
:10275000E1FF29C1E2FF300EE66E284B292B474BE3
:10276000482B010E325F000E335BE8D73AD034B706
:1027700018D0800E006E800E3319005C02E13251D9
:1027800000080FE228C1E1FF29C1E2FF200EE66E3A
:10279000284B292B474B482B010E325F000E335B31
:1027A000E8D734A312D034A103D02D0E006E02D08E
:1027B0002B0E006E28C1E1FF29C1E2FF00C0E6FF39
:1027C000284B292B474B482B0CD034A10AD028C1C9
:1027D000E1FF29C1E2FF200EE66E284B292B474B73
:1027E000482B36C100F037C101F038C102F039C1C1
:1027F00003F0EFEC0BF000C03CF101C03DF102C072
:102800003EF103C03FF131C100F0000E016E026ED7
:10281000036E003600900136023603360036009013
:102820000136023603368B0E0024F66E420E01206E
:10283000F76E000E0220F86E0900F5CF04F00900D3
:10284000F5CF05F00900F5CF06F00900F5CF07F048
:102850003CC100F03DC101F03EC102F03FC103F0B8
:102860005FEC04F0300E002628C1E1FF29C1E2FF31
:1028700000C0E6FF284B292B474B482B2F51301126
:1028800003E135B701D06FD028C1E1FF29C1E2FFD4
:102890002E0EE66E284B292B474B482B31512F5FCC
:1028A000000E305B31534DE0310731C100F0000EB6
:1028B000016E026E036E003600900136023603365A
:1028C000003600900136023603368B0E0024F66E79
:1028D000420E0120F76E000E0220F86E0900F5CFBF
:1028E00004F00900F5CF05F00900F5CF06F0090066
:1028F000F5CF07F03CC100F03DC101F03EC102F050
:102900003FC103F05FEC04F00A0E046E000E056E8A
:10291000066E076E5FEC04F008C000F009C001F01D
:102920000AC002F00BC003F0300E002628C1E1FF00
:1029300029C1E2FF00C0E6FF284B292B474B482B5B
:10294000B1D72F5130110FE028C1E1FF29C1E2FFBB
:10295000300EE66E284B292B474B482B010E2F5F7C
:10296000000E305BEED734AB0BD028C1E1FF29C19C
:10297000E2FF450EE66E284B292B474B482B0AD029
:1029800028C1E1FF29C1E2FF650EE66E284B292B25
:10299000474B482B800E3B19006E800E005C02E115
:1029A000000E3A5D11E23A5100083A6F3B51000EB9
:1029B0003B5728C1E1FF29C1E2FF2D0EE66E284BEF
:1029C000292B474B482B0AD028C1E1FF29C1E2FF40
:1029D0002B0EE66E284B292B474B482B0A0E046E14
:1029E000000E056E3AC100F03BC101F001EC0BF0A6
:1029F000300E002628C1E1FF29C1E2FF00C0E6FF3A
:102A00000101284B292B474B482B0A0E046E000E60
:102A1000056E3AC100F03BC101F001EC0BF008C0BB
:102A200000F009C001F0300E002628C1E1FF29C1E5
:102A3000E2FF00C0E6FF0101284B292B474B482B42
:102A400034A71AD0800E006E800E3319005C02E1AC
:102A50003251000811E228C1E1FF29C1E2FF200E36
:102A6000E66E284B292B474B482B010E325F000E98
:102A7000335B32513311EFE155EF0DF035A3F3D055
:102A8000800E3B19006E800E005C02E1000E3A5D84
:102A90000AE2010E3A5D006E000E3B59016E0050D5
:102AA0002F5F0150305B36C100F037C101F038C1F3
:102AB00002F039C103F0EFEC0BF000C03CF101C0B3
:102AC0003DF102C03EF103C03FF1010E316F3151C3
:102AD0000A0A34E031C100F0000E016E026E036E8E
:102AE000003600900136023603360036009001367B
:102AF000023603368B0E0024F66E420E0120F76E6E
:102B0000000E0220F86E0900F5CF01F00900F5CFA4
:102B100002F00900F5CF03F00900F5CF04F00450EE
:102B20003F5D08E103503E5D05E102503D5D02E17D
:102B300001503C5D01E202D0312BC9D731512F5DEC
:102B40004D6F000E30594E6F4DC12FF14EC130F117
:102B50003CC100F03DC101F03EC102F03FC103F0B5
:102B6000D5EC05F000C004F001C005F002C006F08D
:102B700003C007F036C100F037C101F038C102F0E0
:102B800039C103F0FDEC0AF000C049F101C04AF17F
:102B900002C04BF103C04CF14DC14FF110EC06F0F7
:102BA00049C104F04AC105F04BC106F04CC107F021
:102BB00023EC01F0000E046E000E056E000E066E92
:102BC0007E0E076E00EC02F0EFEC0BF000C03CF163
:102BD00001C03DF102C03EF103C03FF12F51301161
:102BE00042E00A0E046E000E056E066E076E3CC1D2
:102BF00000F03DC101F03EC102F03FC103F05FECC7
:102C000004F008C000F009C001F00AC002F00BC0D7
:102C100003F0000E046E031808E10450021805E1E9
:102C20000450011802E10050000A1DE10A0E046E72
:102C3000000E056E066E076E3CC100F03DC101F04E
:102C40003EC102F03FC103F05FEC04F000C03CF174
:102C500001C03DF102C03EF103C03FF1010E2F5F04
:102C6000000E305BBBD7800E006E800E3019005C0A
:102C700002E12F510C0816E32FC14FF1E4EC08F0EC
:102C800036C104F037C105F038C106F039C107F08C
:102C900000EC02F000C036F101C037F102C038F19B
:102CA00003C039F136C100F037C101F038C102F07C
:102CB00039C103F0046A056A066A076ACCEC0BF0B6
:102CC000000ED8A4010E006E0052D8B477D036C1E1
:102CD00000F037C101F038C102F039C103F0EFEC68
:102CE0000BF0000E046E031808E10450021805E111
:102CF0000450011802E10050000A60E1800E006EED
:102D0000800E3B19005C02E13A51010857E23AC1DA
:102D10004FF110EC06F000C004F001C005F002C055
:102D200006F003C007F036C100F037C101F038C12A
:102D300002F039C103F08BEC0CF05F0E046E700EE4
:102D4000056E090E066E810E076E65EC0BF0010E26
:102D5000D8B0000E006E005206E0090E01013A5F85
:102D6000000E3B5B05D00101080E3A5F000E3B5B95
:102D70003AC14FF110EC06F000C004F001C005F0BC
:102D800002C006F003C007F036C100F037C101F001
:102D900038C102F039C103F08BEC0CF0EFEC0BF012
:102DA00000C03CF101C03DF102C03EF103C03FF163
:102DB0000101366B376B386B396B38D036C100F098
:102DC00037C101F038C102F039C103F0EFEC0BF06C
:102DD00000C03CF101C03DF102C03EF103C03FF133
:102DE0003CC100F03DC101F03EC102F03FC103F023
:102DF000D5EC05F000C004F001C005F002C006F0FB
:102E000003C007F036C100F037C101F038C102F04D
:102E100039C103F0FDEC0AF000C036F101C037F112
:102E200002C038F103C039F13A6B3B6B010E316FD0
:102E300031510A0A34E031C100F0000E016E026E19
:102E4000036E0036009001360236033600360090DD
:102E50000136023603368B0E0024F66E420E012038
:102E6000F76E000E0220F86E0900F5CF01F00900A0
:102E7000F5CF02F00900F5CF03F00900F5CF04F01B
:102E800004503F5D08E103503E5D05E102503D5DA9
:102E900002E101503C5D01E202D0312BC9D7315132
:102EA0002F25006E000E3021016E3A5100263B5155
:102EB00001220050325F0150335B35B704D02F51EF
:102EC000301101E104D0010E325F000E335B030EBE
:102ED0003415006E35C101F0000E011600500110CE
:102EE00004E0010E325F000E335B34A539D034A309
:102EF00012D034A103D02D0E006E02D02B0E006E26
:102F000028C1E1FF29C1E2FF00C0E6FF284B292BC1
:102F1000474B482B0CD034A10AD028C1E1FF29C16E
:102F2000E2FF200EE66E284B292B474B482B800EE4
:102F3000006E800E3319005C02E1325100080FE28E
:102F400028C1E1FF29C1E2FF300EE66E284B292B94
:102F5000474B482B010E325F000E335BE8D73AD067
:102F600034B718D0800E006E800E3319005C02E179
:102F7000325100080FE228C1E1FF29C1E2FF200E13
:102F8000E66E284B292B474B482B010E325F000E73
:102F9000335BE8D734A312D034A103D02D0E006EDA
:102FA00002D02B0E006E28C1E1FF29C1E2FF00C054
:102FB000E6FF284B292B474B482B0CD034A10AD0D5
:102FC00028C1E1FF29C1E2FF200EE66E284B292B24
:102FD000474B482B31C100F0310700524CE031C162
:102FE00000F0000E016E026E036E00360090013696
:102FF00002360336003600900136023603368B0E59
:103000000024F66E420E0120F76E000E0220F86ECC
:103010000900F5CF04F00900F5CF05F00900F5CF60
:1030200006F00900F5CF07F03CC100F03DC101F00A
:103030003EC102F03FC103F05FEC04F00A0E046EE3
:10304000000E056E066E076E5FEC04F008C000F01F
:1030500009C001F00AC002F00BC003F0300E0026D8
:1030600028C1E1FF29C1E2FF00C0E6FF284B292B60
:10307000474B482BAFD7800E006E800E3B19005C8B
:1030800002E13A5100080FE228C1E1FF29C1E2FF45
:10309000300EE66E284B292B474B482B010E3A5F2A
:1030A000000E3B5BE8D7800E000A006E800E3019E0
:1030B000005C02E12F51080803E2080E316F02D0D4
:1030C0002FC131F131512F5F000E305B315303E1DD
:1030D00035B701D00AD028C1E1FF29C1E2FF2E0E89
:1030E000E66E284B292B474B482B31C14FF110EC92
:1030F00006F036C104F037C105F038C106F039C119
:1031000007F023EC01F064EC0AF000C03CF101C0D0
:103110003DF102C03EF103C03FF131534DE03107B4
:1031200031C100F0000E016E026E036E0036009099
:103130000136023603360036009001360236033679
:103140008B0E0024F66E420E0120F76E000E022058
:10315000F86E0900F5CF04F00900F5CF05F009007D
:10316000F5CF06F00900F5CF07F03CC100F03DC1F6
:1031700001F03EC102F03FC103F05FEC04F00A0E23
:10318000046E000E056E066E076E5FEC04F008C05C
:1031900000F009C001F00AC002F00BC003F0300ECD
:1031A000002628C1E1FF29C1E2FF00C0E6FF284B4D
:1031B000292B474B482BB1D72F5130110FE028C195
:1031C000E1FF29C1E2FF300EE66E284B292B474B69
:1031D000482B010E2F5F000E305BEED734A71AD0BC
:1031E000800E006E800E3319005C02E1325100083F
:1031F00011E228C1E1FF29C1E2FF200EE66E284B53
:10320000292B474B482B010E325F000E335B3251A6
:103210003311EFE155EF0DF0C00E3415016E35C1DD
:1032200002F0000E0216000E021802E1000E011854
:10323000D8A47CD034A927D02DC1E9FF2EC1EAFF44
:10324000EECF00F0EECF01F000C0E9FF01C0EAFFD1
:10325000EECF3CF1EECF3DF1EECF3EF1EECF3FF1C0
:103260002DC1E9FF2EC1EAFF040EEE24006E000E10
:10327000EE20016E2DC1E1FF2EC1E2FF00C0E6FF8E
:1032800001C0E6FF2BD02DC1E9FF2EC1EAFFEECF32
:1032900000F0EECF01F000C0E9FF01C0EAFFEECF81
:1032A00000F0EECF01F000C03CF101C03DF1000E96
:1032B00001BEFF0E3E6F3F6F2DC1E9FF2EC1EAFF39
:1032C000020EEE24006E000EEE20016E2DC1E1FF15
:1032D0002EC1E2FF00C0E6FF01C0E6FF800E3F19ED
:1032E000006E800E005C08E1000E3E5D05E1000E00
:1032F0003D5D02E1000E3C5D18E2030E3413000E4A
:103300003513006A016A026A036A3C51005E3D514E
:10331000015A3E51025A3F51035A00C03CF101C0CC
:103320003DF102C03EF103C03FF14ED034A927D099
:103330002DC1E9FF2EC1EAFFEECF00F0EECF01F084
:1033400000C0E9FF01C0EAFFEECF3CF1EECF3DF156
:10335000EECF3EF1EECF3FF12DC1E9FF2EC1EAFFE6
:10336000040EEE24006E000EEE20016E2DC1E1FF72
:103370002EC1E2FF00C0E6FF01C0E6FF25D02DC14F
:10338000E9FF2EC1EAFFEECF00F0EECF01F000C062
:10339000E9FF01C0EAFFEECF3CF1EECF3DF1000EB8
:1033A0003E6F3F6F2DC1E9FF2EC1EAFF020EEE24F2
:1033B000006E000EEE20016E2DC1E1FF2EC1E2FF76
:1033C00000C0E6FF01C0E6FF000E301902E1000E6A
:1033D0002F190FE1000E006E3F1908E100503E1951
:1033E00005E100503D1902E13C51000A02E12F4B7A
:1033F000302BC00E3415006E00C005F0AED0010EAB
:10340000316F31510A0A34E031C100F0000E016E13
:10341000026E036E00360090013602360336003627
:1034200000900136023603368B0E0024F66E420EF3
:103430000120F76E000E0220F86E0900F5CF01F0B2
:103440000900F5CF02F00900F5CF03F00900F5CF30
:1034500004F004503F5D08E103503E5D05E1025079
:103460003D5D02E101503C5D01E202D0312BC9D744
:1034700082D0010E316F3151080A34E031C100F0C1
:10348000000E016E026E036E0036009001360236A9
:10349000033600360090013602360336B30E0024A0
:1034A000F66E420E0120F76E000E0220F86E090043
:1034B000F5CF01F00900F5CF02F00900F5CF03F0D8
:1034C0000900F5CF04F004503F5D08E103503E5D74
:1034D00005E102503D5D02E101503C5D01E202D098
:1034E000312BC9D748D0010E316F31510C0A34E06D
:1034F00031C100F0000E016E026E036E00360090C6
:1035000001360236033600360090013602360336A5
:103510005B0E0024F66E420E0120F76E000E0220B4
:10352000F86E0900F5CF01F00900F5CF02F00900AF
:10353000F5CF03F00900F5CF04F004503F5D08E13A
:1035400003503E5D05E102503D5D02E101503C5DEE
:1035500001E202D0312BC9D70ED00550000AD8B4F1
:103560004ED70550C00AD8B44AD70550800A81E02A
:103570000550400AB8E0800E006E800E3019005CE5
:1035800002E12F51315D03E22FC131F10DD0800EE8
:103590003019006E800E005C02E131512F5D04E2B3
:1035A00031C12FF1000E306F325133110EE0030E96
:1035B0003415006E35C101F0000E011600500110E7
:1035C00004E0010E325F000E335B800E3019006E96
:1035D000800E3319005C02E132512F5D05E22F515C
:1035E000325F3051335B02D0326B336BC40E341513
:1035F000016E3551080B026E0250080A02E1400EBE
:10360000011808E13251331104E0010E325F000E5F
:10361000335B1CD0C00E3415016E3551080B026EA1
:103620000250080A02E1800E011810E1800E006EBF
:10363000800E3319005C02E13251020805E2020EED
:10364000325F000E335B02D0326B336B34A55DD03A
:1036500034A312D034A103D02D0E006E02D02B0E55
:10366000006E28C1E1FF29C1E2FF00C0E6FF284B40
:10367000292B474B482B34D034A10BD028C1E1FF74
:1036800029C1E2FF200EE66E284B292B474B482B21
:1036900027D0C00E3415016E3551080B026E025052
:1036A000080A02E1800E01181BE128C1E1FF29C1CF
:1036B000E2FF300EE66E284B292B474B482B34ABEC
:1036C00003D0580E006E02D0780E006E28C1E1FFC4
:1036D00029C1E2FF00C0E6FF284B292B474B482BAE
:1036E0003251331111E028C1E1FF29C1E2FF300E50
:1036F000E66E284B292B474B482B010E325F000EFC
:10370000335B32513311EFE174D03251331113E096
:1037100034B711D028C1E1FF29C1E2FF200EE66EC7
:10372000284B292B474B482B010E325F000E335B91
:1037300032513311EFE134A312D034A103D02D0E56
:10374000006E02D02B0E006E28C1E1FF29C1E2FFFE
:1037500000C0E6FF284B292B474B482B0CD034A147
:103760000AD028C1E1FF29C1E2FF200EE66E284BF6
:10377000292B474B482BC00E3415016E3551080BD1
:10378000026E0250080A02E1400E01180BE128C146
:10379000E1FF29C1E2FF300EE66E284B292B474B93
:1037A000482B27D0C00E3415016E3551080B026E20
:1037B0000250080A02E1800E01181BE128C1E1FF56
:1037C00029C1E2FF300EE66E284B292B474B482BD0
:1037D00034AB03D0580E006E02D0780E006E28C1B4
:1037E000E1FF29C1E2FF00C0E6FF284B292B474B30
:1037F000482B800E006E800E3019005C02E12F51C4
:10380000315D0BE228C1E1FF29C1E2FF300EE66E17
:10381000284B292B474B482BECD72FC100F030C148
:1038200001F0010E2F5F000E305B00500110D8B484
:103830002AD1C00E3415006E00C049F10AD12FC143
:1038400000F030C101F0000E30BFFF0E026E036EBB
:1038500000360090013602360336003600900136FD
:10386000023603368B0E0024F66E420E0120F76EF0
:10387000000E0220F86E0900F5CF04F00900F5CF24
:1038800005F00900F5CF06F00900F5CF07F03CC1BF
:1038900000F03DC101F03EC102F03FC103F05FEC1A
:1038A00004F00A0E046E000E056E066E076E5FECE5
:1038B00004F008C000F009C001F00AC002F00BC01B
:1038C00003F0300E0024316FD3D034AB45D02FC17C
:1038D00000F030C101F0000E30BFFF0E026E036E2B
:1038E000003600900136023603360036009001366D
:1038F00002360336B30E0024F66E420E0120F76E38
:10390000000E0220F86E0900F5CF04F00900F5CF93
:1039100005F00900F5CF06F00900F5CF07F03CC12E
:1039200000F03DC101F03EC102F03FC103F05FEC89
:1039300004F00F0E0016000E011602160316D30E29
:103940000024F66E420E0120F76E000E0220F86E83
:103950000900F5CF31F144D02FC100F030C101F0A2
:10396000000E30BFFF0E026E036E0036009001366F
:103970000236033600360090013602360336B30EA7
:103980000024F66E420E0120F76E000E0220F86E43
:103990000900F5CF04F00900F5CF05F00900F5CFD7
:1039A00006F00900F5CF07F03CC100F03DC101F081
:1039B0003EC102F03FC103F05FEC04F00F0E0016B1
:1039C000000E011602160316E40E0024F66E420ED7
:1039D0000120F76E000E0220F86E0900F5CF31F1DC
:1039E00047D02FC100F030C101F0000E30BFFF0EF4
:1039F000026E036E00360090013602360336003642
:103A000000900136023603365B0E0024F66E420E3D
:103A10000120F76E000E0220F86E0900F5CF04F0C9
:103A20000900F5CF05F00900F5CF06F00900F5CF44
:103A300007F03CC100F03DC101F03EC102F03FC1C2
:103A400003F05FEC04F0070E0014316F300E3127E5
:103A50000FD04951000AD8B4F2D64951C00AD8B49F
:103A6000EED64951800AD8B430D74951400AB9E05E
:103A700028C1E1FF29C1E2FF31C1E6FF284B292B14
:103A8000474B482BCAD634A71AD0800E006E800E42
:103A90003319005C02E13251000811E228C1E1FF54
:103AA00029C1E2FF200EE66E284B292B474B482BFD
:103AB000010E325F000E335B32513311EFE155EFEF
:0C3AC0000DF047C100F048C101F01200F9
:103ACC001DC1E9FF1EC1EAFFEE5001011F1905E1FE
:103ADC001DC100F01EC101F012001D4B1E2B1DC19B
:103AEC00E9FF1EC1EAFFEECF00F00052E9E1006AE7
:043AFC00016A120049
:103B0000220E0101266F010E276F1DC128F11EC173
:103B100029F11FC12AF120C12BF121C12CF1260E60
:103B20002D6F010E2E6F50EC0DF000C024F101C07E
:103B300025F100501D25E16E01501E21E26EE66A5E
:0A3B400024C100F025C101F01200BD
:0A3B4A00000E9EBA010E006E12007C
:103B5400AECF00F1ABA202D0AB98AB8800C100F0AD
:023B640012004D
:103B66000101206B1DC1E9FF1EC1EAFFEECF1FF167
:103B76001F51000A0FE01FC128F149EC0DF00101A9
:103B8600202B20511D25E96E000E1E21EA6EEECF78
:063B96001FF1EED7120042
:103B9C001DC102F01EC103F002C000F003C001F011
:103BAC00024A032A00C0E9FF01C0EAFFEE5201E01D
:103BBC00F3D701011D51025C006E1E510358016EBA
:0A3BCC00010E005E000E015A120007
:103BD60021C100F001012107005227E01DC1E9FFC4
:103BE6001EC1EAFFEE50000A0CE01DC1E9FF1EC12E
:103BF600EAFF1FC1D9FF20C1DAFFEE50DE1801E14E
:103C06000FD01DC1E9FF1EC1EAFF1FC1D9FF20C1A8
:103C1600DAFFDE50EE5C006E016A000E015A1200F9
:103C26001D4B1E2B1F4B202BD3D7006A016A120097
:103C360001011B6B1C6B195342E01951FF0A01E08D
:103C4600190780DF0050000A01E1FBD780DF00C0C2
:103C56001AF101011B511525E16E000E1621E26EC7
:103C660000C0E6FF1B2B1C511725E96E000E18211C
:103C7600EA6EEE501A1902E11C2B09D01C6B17C113
:103C8600E9FF18C1EAFFEE501A1901E11C2B1C517D
:103C96001725E96E000E1821EA6EEE50000A0EE1B5
:103CA6001C511B5D006E016A000E015A005015255D
:103CB600E16E01501621E26EE66A1200BCD715C10C
:0A3CC600E1FF16C1E2FFE66A1200FA
:103CD0000900F5CFE6FF0006FBE10106F9E112005D
:103CE000920E0101056F1A0E066F280E076F010E66
:103CF000086F540E016F3B0E026F000E036F000E33
:103D0000046F4A0E0D6F3B0E0E6F000E0F6F000E0C
:103D1000106FFF0E096FFF0E0A6F000E0B6F000E83
:103D20000C6FAC8A900EAB6E948E949C9EAA03D0BE
:083D3000AECF00F0FBD712003A
:103D3800000E0101161902E1000E151934E015C133
:103D4800E9FF16C1EAFFEE522EE017C11DF118C1B6
:103D58001EF120DF00C021F115C11DF116C11EF1B1
:103D680017C11FF118C120F132DF000E011802E15E
:103D7800000E001805E115C100F016C101F012008F
:103D88000101010E15251D6F000E16211E6F17C1AA
:103D9800E9FF18C1EAFFEECF1FF194DE00C015F16C
:0C3DA80001C016F1C5D7006A016A1200C4
:103DB4000C0E0101286F49EC0DF0130E01011D6F6B
:103DC400010E1E6FF50E1F6F420E206F000E216F45
:103DD400F8C022F1F9C023F191DEE40E1D6F000E4C
:103DE4001E6FBFDE110E1D6F010E1E6FBADE110EA7
:103DF4001D6F010E1E6FB5DEDD0E1D6F000E1E6FF2
:103E0400B0DE110E1D6F010E1E6FABDEE00E1D6FD6
:103E1400000E1E6FA6DE110E1D6F010E1E6FA1DEB9
:103E2400620E1D6F000E1E6F9CDE110E1D6F010EC3
:103E34001E6F97DE5E0E1D6F000E1E6F92DE110E5A
:103E44001D6F010E1E6F8DDE110E1D6F010E1E6F94
:103E540088DE740E1D6F000E1E6F83DE110E1D6F43
:103E6400010E1E6F7EDE650E1D6F000E1E6F79DE65
:103E7400380E1D6F000E1E6F74DE130E1D6F010EC3
:103E84001E6F6FDE110E1D6F010E1E6F6ADE150EA2
:103E94001D6F000E1E6F65DE110E1D6F010E1E6F6D
:043EA40060DE1200CA
:103EA80015C104F016C105F004C002F005C003F006
:103EB800044A052A17C100F018C101F00101174B87
:103EC800182B00C0E9FF01C0EAFF02C0E1FF03C0F0
:103ED800E2FFEECFE6FF02C0E9FF03C0EAFFEE52C1
:0E3EE80001E0E2D715C100F016C101F0120092
:103EF6007CEC21F00D0E0101116F126B330EAF6ECB
:103F0600AC84EBDE020E0B6E040E0C6EBA0E0D6E5A
:103F16000D2EFED70C2EFCD70B2EFAD70000970ECF
:103F260001011D6F000E1E6F1BDE110E1D6F010EAF
:103F36001E6F16DEB20E156F000E166F110E176F7E
:103F4600010E186F140E196F73DE110E1D6F010E20
:103F56001E6F06DE0001FA6BFB6BB20E01011D6FD0
:103F6600000E1E6F18DE800E0001FB19026E800E19
:103F76000118025C02E10050FA5D0BE2650EFA25BB
:103F8600E16E000EFB21E26E5F0EE66EFA4BFB2B36
:103F9600E4D7B20E01011D6F000E1E6FFCDD650E2B
:103FA6000024E16E000E0120E26EE66A0001FE6B5F
:103FB600FF6BFDDEFC0E156F000E166F110E176FF0
:103FC600010E186F020E196F33DE0001FA6BFB6BE0
:103FD600B20E01011D6F000E1E6FDDDD800E0001A9
:103FE600FB19026E800E0118025C02E10050FA5DB8
:103FF60018E2B20EFA25E96E000EFB21EA6EEE50CB
:10400600FC190CE1650EFA25E16E000EFB21E26E4D
:10401600FCC0E6FF010EFE6F000EFF6FFA4BFB2B96
:10402600D7D7FE51FF1147E1010EF85F000EF95B8D
:10403600000EF91902E1030EF8190AE15E0E0101FC
:10404600156F000E166FAC0E176F000E186F29DF76
:10405600000E0001F91902E1020EF8190AE1620EDA
:104066000101156F000E166FAA0E176F000E186F5E
:1040760018DF000E0001F91902E1010EF8190AE134
:10408600E00E0101156F000E166FB00E176F000ED1
:10409600186F07DF000E0001F91902E1000EF8198A
:1040A6000AE1DD0E0101156F000E166FAE0E176FD9
:1040B600000E186FF6DE0001F851F91107E177DE00
:1040C600520E1D6F000E1E6F4BDD1DD00101650ED9
:1040D600156F000E166F5C0E176F000E186F29DE37
:1040E600000E011802E1000E00180CE160DEC10EA0
:1040F6001D6F000E1E6F34DDB20E1D6F000E1E6F9B
:084106002FDD01D053D7FFD7D4
:1042F80010EE15F0E50E006E010E016E0E0EF66E54
:0E430800410EF76E000EF86E68EC1EF012000B
:10410E002D2D2D2D2D2D2D2D2D2D2D2D2D2D2D2DD1
:10411E002D2D2D2D2D2D2D2D2D2D2D2D2D2D2D2DC1
:03412E002D2D0034
:10413100202D2054656E74617469766173207265F7
:0A4141007374616E7465733A200018
:0A414B0047414D45204F56455200F4
:024155005F0009
:044157002F205C00B9
:03415B00207C00C5
:0F415E005F5F5F5F5F5F5F5F5F5F5F5F5F5F0020
:10416D002D2D2D2D2D2D2D2D2D2D2D2D2D2D2D2D72
:10417D002D2D2D2D2D2D2D2D2D2D2D2D2D2D2D2D62
:03418D002D2D00D5
:1041900044696769746520612070616C6176726141
:0341A0003A2000C2
:0241A3002000FA
:0241A5002000F8
:0241A7002000F6
:0241A9002000F4
:0F41AB00504152414C454C4550495045444F00FE
:1041BA00564F43452056454E4345552120412050F0
:0C41CA00414C415652412045524120001A
:0341D60020560070
:0441D9002F7C5C00DB
:1041DD004A4F474F20444120464F524341202D2006
:0441ED00312E30003F
:0241F1000400C8
:1041F3000000007F000020820000488500007A88CC
:1042030000401C8C0050438F0024749280961896B3
:1042130020BC3E99286B6E9CF90215A0EC782DC149
:04422300CAF249E2B0
:104227000000007FCDCC4C7B0AD723786F12037533
:1042370017B75171ACC5276EBD37066B95BF56676B
:1042470077CC2B645F700961FFE65B5D08E53C3C5A
:044257006042221B84
:10425B000100000008000000400000000002000008
:10426B00001000000080000000000400000020008F
:10427B0000000001000000080000004000000000EA
:10428B00010000000A00000064000000E8030000C9
:10429B0010270000A086010040420F008096980076
:0842AB0000E1F50500CA9A3B91
:1042B30001000000100000000001000000100000D9
:1042C30000000100000010000000000100000010C9
:1042D3003031323334353637383941424344454639
:0142E30000DA
:1042E4003031323334353637383961626364656668
:0142F40000C9
:0342F5002564003D
:020000040030CA
:0D000100220F0EFF0181FF0FC00FE00F4026
:00000001FF
