:1000000040EF22F00000000000EF00F000000000D0
:0A0010000000000000000000F3D71C
:08001C000AAE029E000E120064
:100024000B840BAE1DEF00F0010E036E026A016A31
:0A003400006A0A360232FF0E1200C5
:0E003E00026A016A006A086A036A000E120074
:10004C000B820BAE30EF00F00368026801680068A9
:08005C000A360232FF0E120009
:100064000CB074EF00F00CA21AEF01F00E6A000E4F
:1000740002648BEF00F0F00E0214D8A456EF00F0E7
:10008400023A01380F0B02260138F00B016E0038DA
:100094000F0B01260038F00B006E08380F0B0026FA
:1000A4000838F00B086E0E84D89002BE6FEF00F093
:1000B40008360036013602360E2A02BE6FEF00F013
:1000C40008360036013602360E2A02BE6FEF00F003
:1000D40008360036013602360E2A0E50036410EF3D
:1000E40001F0035E0BBC08AE15EF01F0D880800E62
:1000F40008640030000E002201220222D8A015EF6D
:1001040001F0023201320032034A1AEF01F015EF16
:1001140001F001C002F000C001F008C000F0086A5C
:10012400000E0E860264C2EF00F0F00E0214D8A492
:10013400AAEF00F0023A01380F0B02260138F00B47
:10014400016E00380F0B01260038F00B006E0E8490
:10015400D89002BE6FEF00F00036013602360E2A48
:1001640002BE6FEF00F00036013602360E2A02BEE0
:100174006FEF00F00036013602360E2A6FEF00F002
:1001840001C002F000C001F0006A000E0E960E8855
:100194000264EFEF00F0F00E0214D8A4DAEF00F0DE
:1001A400023A01380F0B02260138F00B016E0E845F
:1001B400D89002BE6FEF00F0013602360E2A02BE5E
:1001C4006FEF00F0013602360E2A02BE6FEF00F028
:1001D400013602360E2A6FEF00F001C002F0016A08
:1001E400000E0E8602641FEF01F0F00E0214D8A474
:1001F400FEEF00F0023A0E84D89002BE6FEF00F0DA
:1002040002360E2A02BE6FEF00F002360E2A02BE3C
:100214006FEF00F002360E2A6FEF00F0010E0C6E45
:10022400FFDE22EF01F0020E0C6EF6DE22EF01F08B
:10023400040E0C6E09DF22EF01F0080E0C6EFDDED9
:020244001200A6
:10024600025006180E6E086A096A0B6A03500764A4
:1002560016EF02F006500A6E068E028E03500B6EE3
:100266000750036E000E0B6466EF01F00B50075E3D
:10027600D8B407EF02F0070E0764D5EF01F0075E6A
:1002860000C008F001C000F002C001F0026A074E8B
:1002960007EF02F00764AAEF01F0075E00C008F05E
:1002A60001C000F0016A074E07EF02F0076488EF0D
:1002B60001F0075E00C008F0006A074E07EF02F083
:1002C60007646FEF01F00AC002F005C001F004C038
:1002D60000F0086A30EF03F0030E07647AEF01F0CE
:1002E600075E08380F0B086E074E07EF02F0D8902E
:1002F6000832074E07EF02F0D8900832074E07EF94
:1003060002F0D890083207EF02F0030E076499EF67
:1003160001F0075E08380F0B086E0038F00B082650
:1003260000380F0B006E074E07EF02F0D890003230
:100336000832074E07EF02F0D89000320832074E17
:1003460007EF02F0D8900032083207EF02F0030EF2
:100356000764C1EF01F0075E08380F0B086E00381E
:10036600F00B082600380F0B006E0138F00B002644
:1003760001380F0B016E074E07EF02F0D8900132DD
:1003860000320832074E07EF02F0D89001320032F1
:100396000832074E07EF02F0D890013200320832D9
:1003A60007EF02F0030E0764F2EF01F0075E08386C
:1003B6000F0B086E0038F00B082600380F0B006E86
:1003C6000138F00B002601380F0B016E0238F00BD6
:1003D600012602380F0B026E074E07EF02F0D89087
:1003E6000232013200320832074E07EF02F0D8908F
:1003F6000232013200320832074E07EF02F0D8907F
:100406000232013200320832096A000E0EAEFBEFEC
:1004160002F0081E001E011E021E082A00220122EA
:100426000222FBEF02F00750D8A41CEF02F030EFD7
:1004360003F0096A02C00AF0028E068E0750035CBA
:10044600076ED8B4EEEF02F0070E0764BCEF02F0B9
:10045600075E0450096E0550046E0650056E066A66
:10046600074EEEEF02F0070E076491EF02F0075E0B
:100476000450096E0550046E056A074EEEEF02F051
:10048600070E07646FEF02F0075E0450096E046AF8
:10049600074EEEEF02F0070E076456EF02F00AC0B1
:1004A60002F030EF03F0030E076461EF02F0075E1F
:1004B60009380F0B096E074EEEEF02F0D89009329D
:1004C600074EEEEF02F0D8900932074EEEEF02F03B
:1004D600D8900932EEEF02F0030E076480EF02F0C7
:1004E600075E09380F0B096E0438F00B092604382D
:1004F6000F0B046E074EEEEF02F0D890043209326D
:10050600074EEEEF02F0D89004320932074EEEEFB6
:1005160002F0D89004320932EEEF02F0030E0764BF
:10052600A8EF02F0075E09380F0B096E0438F00BCE
:10053600092604380F0B046E0538F00B042605381F
:100546000F0B056E074EEEEF02F0D890053204321F
:100556000932074EEEEF02F0D89005320432093226
:10056600074EEEEF02F0D890053204320932EEEF74
:1005760002F0030E0764D9EF02F0075E09380F0B8D
:10058600096E0438F00B092604380F0B046E053883
:10059600F00B042605380F0B056E0638F00B052602
:1005A60006380F0B066E074EEEEF02F0D8900632B5
:1005B600053204320932074EEEEF02F0D8900632C9
:1005C600053204320932074EEEEF02F0D8900632B9
:1005D600053204320932086A000E0EAEFBEF02F055
:1005E600091E041E051E061E092A042205220622CD
:1005F6000950082604500022055001220650022206
:100606000EBE12EF03F0D8A021EF03F00232013242
:1006160000320832033E21EF03F02BEF03F0D8B08F
:1006260026EF03F0000E081E001E011E021E082AF9
:100636000022012202220A7E26EF03F0010E0C6E32
:100646000EDD32EF03F0020E0C6E09DD32EF03F021
:10065600040E0C6EF8DC32EF03F0000E0C6E120086
:100666000D6A086A0050D8B4000C04180A6E0ABE57
:100676000D1E0B6A04AE02D0041E042A00A002D08E
:10068600001E002A005004100A6E0ABE1FD0045035
:10069600085E003600340836045008260036060E7A
:1006A6000C6E00340836045000B0085E00A0082620
:1006B60000360C2EF6D700A008260BB015D00DAECE
:1006C600000C001E002A081E082A000C04AE09D0E1
:1006D60000BE04D00050086E006AF1D7006A002AF6
:1006E600000C001E0B2AD3D7082A0450085CD8A495
:0E06F600E6D7086A002A00AEE2D7FF0C120019
:100704000134083609360450085E0550D8A0053C6B
:10071400095E003601360F0E0C6E013408360936B8
:10072400045000A006D0085E0550D8A0053C095E20
:1007340005D008260550D8B0053C092600360136F8
:100744000C2EEBD700B006D0045008260550D8B0C4
:08075400053C0926000012001B
:10075C00086A096A000E0762036433EF04F0025062
:10076C0006180A6E075003267E0ED8A0C4EF03F0BD
:10077C00035ED8B038EF04F0C8EF03F0035ED8A0E6
:10078C003DEF04F0028E068E02C00EF001C00BF09D
:10079C0000C00DF000500402F4CF0CF00150050223
:1007AC00F4CF00F0F3CF08F00402F3500C26F45011
:1007BC000822000E00220D500502F3500C26F450B6
:1007CC000822000E002202500402F3500826F450B6
:1007DC00002202500502016A000E0122F35000268D
:1007EC00F45001220D500602F3500826F45000225A
:1007FC00026A000E012202220B500602F350002660
:10080C00F4500122000E02220E500602F350012673
:10081C00F450022202BE1BEF04F0083600360136FB
:10082C0002360306D8B43DEF04F02EEF04F0D88066
:10083C00800E08640030000E002201220222D8A093
:10084C002EEF04F0023201320032034A38EF04F08A
:10085C000AAE029E000E40EF04F0010E1FEC00F0F9
:10086C0040EF04F0020E26EC00F040EF04F0040E12
:06087C0012EC00F0120076
:100882000B800BAE4DEF04F0026A0AAEFF0E026E51
:0C089200016E006E0A360232FF0E1200EA
:08089E000B6A0B86FF0E12002D
:1008A600086A080E0C6E003408360450085ED8B08C
:0E08B60002D00826D89000360C2EF5D712007E
:1008C4000450000A12E10550000A0FE10650000A24
:1008D4000CE10750000A09E1FF0E006EFF0E016EE5
:1008E4007F0E026EFF0E036E1200086A096A07503B
:1008F400D8B40DEF05F00350D8B411EF05F0025051
:1009040006180A6E028E068E0E6A02C008F001C036
:100914000CF000C00DF004500D5E0550D8A0053C4D
:100924000C5E0650D8A0063C085E086A0C6A0D6A84
:10093400D8A0A4EF04F0D890023201320032083279
:10094400010E0E6E0750035ED8A0B1EF04F07E0EC8
:100954000E240326D8B016EF05F0B7EF04F07E0E90
:100964000E240326D8A01BEF05F0180E0B6E0D36CF
:100974000C3608360036013602360E360450005E58
:100984000550D8A0053C015E0650D8A0063C025E86
:1009940006340E120EA0D2EF04F00D80DDEF04F049
:1009A400045000260550D8B0053C01260650D8B0A6
:1009B400062802260D900B2EB9EF04F003EF05F084
:1009C400D8900036013602360E360450005E0550CB
:1009D400D8A0053C015E0650D8A0063C025E063451
:1009E4000E10010B0D26D8B00C2AD8B4082AD8A4AE
:1009F40003EF05F008320C320D32032AD8B416EF97
:100A040005F00AAE089E0850026E0C50016E0D509F
:100A1400006E1EEF05F0010E40DF1EEF05F0020E22
:100A24001FEC00F01EEF05F0040E26EC00F01EEFA4
:0A0A340005F0080E12EC00F01200AD
:100A3E00800E0101D019006E800E000A005CD8B045
:100A4E0064D1D0510008016E01C0D0F1800E0118A2
:100A5E00006E800E6E0A005CD8A0BAD0640E046ED2
:100A6E00D0C100F0F9DD120E0024056E000E00BE9E
:100A7E00FF0E066E000E062205C000F006C001F045
:100A8E00000E06BEFF0E026E036E0036009001369B
:100A9E000236033600360090013602360336470E14
:100AAE000024F66E470E0120F76E000E0220F86E3F
:100ABE000900F5CFD1F10900F5CFD2F10900F5CF3C
:100ACE00D3F10900F5CFD4F1640E046ED0C100F05D
:100ADE00C3DD08C000F00A0E046EBEDD090E002450
:100AEE00056E000E00BEFF0E066E000E062205C03D
:100AFE0000F006C001F0000E06BEFF0E026E036E81
:100B0E00003600900136023603360036009001366C
:100B1E0002360336470E0024F66E470E0120F76E9E
:100B2E00000E0220F86E0900F5CF00F00900F5CF97
:100B3E0001F00900F5CF02F00900F5CF03F0D1C1A5
:100B4E0004F0D2C105F0D3C106F0D4C107F0FFDD29
:100B5E0000C0D1F101C0D2F102C0D3F103C0D4F173
:100B6E000A0E046ED0C100F077DD08C000F000C0A0
:100B7E0001F0000E00BEFF0E026E036E046E013613
:100B8E0001900236033604360136019002360336E2
:100B9E000436470E0124F66E470E0220F76E000E45
:100BAE000320F86E0900F5CF00F00900F5CF01F033
:100BBE000900F5CF02F00900F5CF03F0D1C104F022
:100BCE00D2C105F0D3C106F0D4C107F0C0DD1200CA
:100BDE00800E0A0A006E800ED019005C6EE20A0EBC
:100BEE00046ED0C100F038DD090E0024056E000E33
:100BFE0000BEFF0E066E000E062205C000F006C0F7
:100C0E0001F0000E06BEFF0E026E036E003600905F
:100C1E0001360236033600360090013602360336B0
:100C2E00470E0024F66E470E0120F76E000E0220CE
:100C3E00F86E0900F5CFD1F10900F5CFD2F1090018
:100C4E00F5CFD3F10900F5CFD4F10A0E046ED0C161
:100C5E0000F002DD08C000F000C001F0000E00BE82
:100C6E00FF0E026E036E046E0136019002360336DD
:100C7E00043601360190023603360436470E01243F
:100C8E00F66E470E0220F76E000E0320F86E090076
:100C9E00F5CF00F00900F5CF01F00900F5CF02F015
:100CAE000900F5CF03F0D1C104F0D2C105F0D3C1D4
:100CBE0006F0D4C107F04BDD1200D0C100F0000EDB
:100CCE00D0BFFF0E016E026E036E0036009001362D
:100CDE000236033600360090013602360336470ED2
:100CEE000024F66E470E0120F76E000E0220F86EFD
:100CFE000900F5CF00F00900F5CF01F00900F5CF9E
:100D0E0002F00900F5CF03F01200800ED019006E2C
:100D1E00800E6E0A005CD8A0BAD0640E046ED0C1EC
:100D2E0000F09ADC120E0024056E000E00BEFF0EBF
:100D3E00066E000E062205C000F006C001F0000E81
:100D4E0006BEFF0E026E036E0036009001360236AE
:100D5E00033600360090013602360336130E002499
:100D6E00F66E470E0120F76E000E0220F86E090097
:100D7E00F5CFD1F10900F5CFD2F10900F5CFD3F1BE
:100D8E000900F5CFD4F1640E046ED0C100F064DC1E
:100D9E0008C000F00A0E046E5FDC090E0024056E1A
:100DAE00000E00BEFF0E066E000E062205C000F0FD
:100DBE0006C001F0000E06BEFF0E026E036E003678
:100DCE0000900136023603360036009001360236A8
:100DDE000336130E0024F66E470E0120F76E000E3A
:100DEE000220F86E0900F5CF00F00900F5CF01F0F2
:100DFE000900F5CF02F00900F5CF03F0D1C104F0E0
:100E0E00D2C105F0D3C106F0D4C107F0A0DC00C0FA
:100E1E00D1F101C0D2F102C0D3F103C0D4F10A0E58
:100E2E00046ED0C100F018DC08C000F000C001F064
:100E3E00000E00BEFF0E026E036E046E01360190B0
:100E4E000236033604360136019002360336043676
:100E5E00130E0124F66E470E0220F76E000E0320CD
:100E6E00F86E0900F5CF00F00900F5CF01F009008A
:100E7E00F5CF02F00900F5CF03F0D1C104F0D2C1D5
:100E8E0005F0D3C106F0D4C107F061DC1200800E6C
:100E9E000A0A006E800ED019005C71E20A0E046E12
:100EAE00D0C100F033EC03F0090E0024056E000EE5
:100EBE0000BEFF0E066E000E062205C000F006C034
:100ECE0001F0000E06BEFF0E026E036E003600909D
:100EDE0001360236033600360090013602360336EE
:100EEE00130E0024F66E470E0120F76E000E022040
:100EFE00F86E0900F5CFD1F10900F5CFD2F1090056
:100F0E00F5CFD3F10900F5CFD4F10A0E046ED0C19E
:100F1E0000F033EC03F008C000F000C001F0000E4A
:100F2E0000BEFF0E026E036E046E01360190023695
:100F3E000336043601360190023603360436130E9C
:100F4E000124F66E470E0220F76E000E0320F86E97
:100F5E000900F5CF00F00900F5CF01F00900F5CF3B
:100F6E0002F00900F5CF03F0D1C104F0D2C105F0B3
:100F7E00D3C106F0D4C107F0AEEC03F01200D0C11D
:100F8E0000F0000ED0BFFF0E016E026E036E003633
:100F9E0000900136023603360036009001360236D6
:100FAE000336130E0024F66E470E0120F76E000E68
:100FBE000220F86E0900F5CF00F00900F5CF01F020
:0E0FCE000900F5CF02F00900F5CF03F0120084
:100FDC000050086E0150006E0250016E0350026EFC
:100FEC00036A0B6A0C6A9E0E036E0A6A020E0C6E82
:060FFC0032EC00F01200CF
:101002000B6A0C6A0A6A086A0350D8B489EF08F0BE
:10101200028E9E0E035E03BE14EF08F0D8B414EFE6
:1010220008F079EF08F0036C080E035CD8A046EFD5
:1010320008F0036E083600C008F001C000F002C0DC
:1010420001F0026A080E035CD8A046EF08F0036EB6
:10105200083600C008F001C000F0016A080E035C07
:10106200D8A046EF08F0036E083600C008F0006A08
:10107200080E035CD8A046EF08F0036E0836086A33
:101082000350D8A4D89052EF08F00350D8B452EFCE
:1010920008F0D8900232013200320832032E4AEFB1
:1010A20008F00BBC08A063EF08F0D8A063EF08F0CB
:1010B200082AD8B4002AD8B4012AD8B4022A02BE17
:1010C2008DEF08F00AAE89EF08F0021E011E001E25
:1010D200081E082AD8B4002AD8B4012AD8B4022A91
:1010E20089EF08F0026A016A006A086A89EF08F06B
:1010F2000B800BAE93EF08F0026A0AAE93EF08F092
:10110200026E016E006E086E0A36023293EF08F02C
:10111200000E0C6A94EF08F0010E0C6E41EC04F024
:1011220094EF08F0FF0E0250036E0150026E005061
:08113200016E0850006E12006E
:10113A000450000A08E10550000A05E1FF0E006E9E
:10114A007F0E016E12000D6A096A086A01500010CA
:10115A00D8B4000C015005180A6E0ABE0D1E0B6A9F
:10116A0005AE05D0041E051E042AD8B4052A01AE10
:10117A0005D0001E011E002AD8B4012A015005100C
:10118A000A6E0ABE10D082EC03F00BB020D00DAE6E
:10119A00000C001E011E002AD8B4012A081E091ECE
:1011AA00082AD8B4092A000C05AE0DD001BE07D012
:1011BA000150096E0050086E016A006AE8D7016A98
:1011CA00006A002A000C011E001E0B2ADDD7082A1D
:1011DA00D8B4092A0450085CD8A4D9D70550095CA8
:1011EA00D8A4D5D7096A086A002AD8B4012A01AE58
:0811FA00CED70000FF0C12002B
:101202000B6A0A6A096A00500402F4CF09F0F3CFAC
:1012120008F001500502F4CF0BF0F3CF0AF00050B2
:101222000502F3500926F4500A22E86A0B22015003
:101232000402F3500926F4500A22E86A0B2208C07D
:1012420000F009C001F00AC002F00BC003F0120066
:101252000101D051390806E3300ED05D03E3010EDF
:08126200006E01D0006A1200C9
:10126A0003500718D8A449EF09F002500618D8A469
:10127A0049EF09F001500518D8A449EF09F00050C8
:0E128A000418D8B4D8841200D89412001200B0
:101298000A6A0350D8A40A800750D8A40A820A50C0
:1012A800D8B4AFEF09F0030AD8B468EF09F00AB070
:1012B80063EF09F006AEADEF09F0ABEF09F002AE4F
:1012C800ABEF09F0ADEF09F00250800B0A6E029EF9
:1012D8000650800B069E0A18D8B479EF09F00A5018
:1012E800D8B4ABEF09F0ADEF09F00750035CD8B400
:1012F80083EF09F0D8A09FEF09F0A5EF09F0065099
:10130800025CD8B48DEF09F0D8A09FEF09F0A5EFE3
:1013180009F00550015CD8B497EF09F0D8A09FEF09
:1013280009F0A5EF09F00450005CD8B4AFEF09F05C
:10133800D8B0A5EF09F00A52D8B4ADEF09F0ABEF79
:1013480009F00A52D8B4ABEF09F0ADEF09F0D88034
:0E1358001200D8901200D880D8841200120023
:101366000B6A0A6A096A086A0E6A03340836045068
:10137600085E0550D8A0053C095E0650D8A0063C7C
:101386000A5E0750D8A0073C0B5EE86AD8A0010E9B
:101396000E5E0336070E0C6E0334083609360A361F
:1013A6000B360E36045003A012D0085E0550D8A0A6
:1013B600053C095E0650D8A0063C0A5E0750D8A038
:1013C600073C0B5EE86AD8A0010E0E5E11D0082617
:1013D6000550D8B0053C09260650D8B0063C0A266A
:1013E6000750D8B0073C0B26E86AD8B0010E0E2687
:1013F60003360C2ED1D70234083609360A360B3698
:101406000E36045003A012D0085E0550D8A0053C45
:10141600095E0650D8A0063C0A5E0750D8A0073CD5
:101426000B5EE86AD8A0010E0E5E11D008260550A4
:10143600D8B0053C09260650D8B0063C0A26075007
:10144600D8B0073C0B26E86AD8B0010E0E26023645
:10145600070E0C6E0234083609360A360B360E367F
:10146600045002A012D0085E0550D8A0053C095EC3
:101476000650D8A0063C0A5E0750D8A0073C0B5E73
:10148600E86AD8A0010E0E5E11D008260550D8B025
:10149600053C09260650D8B0063C0A260750D8B0A7
:1014A600073C0B26E86AD8B0010E0E2602360C2E33
:1014B600D1D70134083609360A360B360E360450B3
:1014C60002A012D0085E0550D8A0053C095E065061
:1014D600D8A0063C0A5E0750D8A0073C0B5EE86A17
:1014E600D8A0010E0E5E11D008260550D8B0053CD6
:1014F60009260650D8B0063C0A260750D8B0073C45
:101506000B26E86AD8B0010E0E260136070E0C6EC1
:101516000134083609360A360B360E36045001A059
:1015260012D0085E0550D8A0053C095E0650D8A02A
:10153600063C0A5E0750D8A0073C0B5EE86AD8A0B6
:10154600010E0E5E11D008260550D8B0053C0926BE
:101556000650D8B0063C0A260750D8B0073C0B26E2
:10156600E86AD8B0010E0E2601360C2ED1D700340B
:10157600083609360A360B360E36045001A012D04C
:10158600085E0550D8A0053C095E0650D8A0063C6A
:101596000A5E0750D8A0073C0B5EE86AD8A0010E89
:1015A6000E5E11D008260550D8B0053C0926065017
:1015B600D8B0063C0A260750D8B0073C0B26E86A86
:1015C600D8B0010E0E260036070E0C6E0034083613
:1015D60009360A360B360E36045000A012D0085EC5
:1015E6000550D8A0053C095E0650D8A0063C0A5E08
:1015F6000750D8A0073C0B5EE86AD8A0010E0E5E25
:1016060011D008260550D8B0053C09260650D8B09A
:10161600063C0A260750D8B0073C0B26E86AD8B025
:10162600010E0E2600360C2ED1D700B00ED0045077
:1016360008260550D8B0053C09260650D8B0063C09
:0C1646000A260750D8B0073C0B26120003
:101652006E0E0101D05DD8A0CAD0640E046ED0C156
:1016620000F053EC04F0120E0024056E066A000E20
:10167200062205C000F006C001F0000E06BEFF0EF5
:10168200026E036E003600900136023603360036D3
:101692000090013602360336470E0024F66E470EDE
:1016A2000120F76E000E0220F86E0900F5CF00F05F
:1016B2000900F5CF01F00900F5CF02F00900F5CFDE
:1016C20003F0000E046E000E056E000E066E7E0E16
:1016D200076EAEEC03F000C0D1F101C0D2F102C03E
:1016E200D3F103C0D4F1640E046ED0C100F053EC08
:1016F20004F008C000F00A0E046E53EC04F0090E68
:101702000024056E066A000E062205C000F006C01F
:1017120001F0000E06BEFF0E026E036E0036009050
:1017220001360236033600360090013602360336A1
:10173200470E0024F66E470E0120F76E000E0220BF
:10174200F86E0900F5CF00F00900F5CF01F00900AD
:10175200F5CF02F00900F5CF03F0D1C104F0D2C1F8
:1017620005F0D3C106F0D4C107F0AEEC03F000C01F
:10177200D1F101C0D2F102C0D3F103C0D4F10A0EFB
:10178200046ED0C100F053EC04F008C000F000C0B9
:1017920001F0000E026E036E046E013601900236F5
:1017A2000336043601360190023603360436470EFC
:1017B2000124F66E470E0220F76E000E0320F86E2B
:1017C2000900F5CF00F00900F5CF01F00900F5CFCF
:1017D20002F00900F5CF03F0D1C104F0D2C105F047
:1017E200D3C106F0D4C107F0AEEC03F01200D05121
:1017F2000A087EE20A0E046ED0C100F053EC04F037
:10180200090E0024056E066A000E062205C000F0CD
:1018120006C001F0000E06BEFF0E026E036E003619
:101822000090013602360336003600900136023649
:101832000336470E0024F66E470E0120F76E000EA7
:101842000220F86E0900F5CF00F00900F5CF01F093
:101852000900F5CF02F00900F5CF03F0000E046E87
:10186200000E056E000E066E7E0E076EAEEC03F0E5
:1018720000C0D1F101C0D2F102C0D3F103C0D4F152
:101882000A0E046ED0C100F053EC04F008C000F060
:1018920000C001F0000E026E036E046E013601906C
:1018A2000236033604360136019002360336043618
:1018B200470E0124F66E470E0220F76E000E03203B
:1018C200F86E0900F5CF00F00900F5CF01F009002C
:1018D200F5CF02F00900F5CF03F0D1C104F0D2C177
:1018E20005F0D3C106F0D4C107F0AEEC03F012004C
:1018F200D0C100F0000E016E026E036E0036009041
:1019020001360236033600360090013602360336BF
:10191200470E0024F66E470E0120F76E000E0220DD
:10192200F86E0900F5CF00F00900F5CF01F00900CB
:10193200F5CF02F00900F5CF03F0000E046E000EA1
:10194200056E000E066E7E0E076EAEEC03F0120000
:101952000B6A0C6A086A0350D8B42DEF0DF002C06E
:101962000AF0028E9E0E035E03AE1DEF0DF0036CB5
:10197200080E035CD8A0EAEF0CF0036E083600C034
:1019820008F001C000F002C001F0026A080E035C18
:10199200D8A0EAEF0CF0036E083600C008F001C0D0
:1019A20000F0016A080E035CD8A0EAEF0CF0036EA7
:1019B200083600C008F0006A080E035CD8A0EAEFFF
:1019C2000CF0036E0836086A0350D8A4D890F6EFDC
:1019D2000CF00350D8B4F6EF0CF0D890023201327A
:1019E20000320832032EEEEF0CF00BBC08A007EF1A
:1019F2000DF0D8A007EF0DF0082AD8B4002AD8B409
:101A0200012AD8B4022A02BE31EF0DF00AAE2DEF40
:101A12000DF0021E011E001E081E082AD8B4002A5C
:101A2200D8B4012AD8B4022A2DEF0DF0026A016A55
:101A3200006A086A2DEF0DF00B800BAE38EF0DF047
:101A4200026A0AAE38EF0DF0026E016E006E086E89
:101A52000A36023238EF0DF00C6A000E39EF0DF043
:101A6200010E0C6E000E41EC04F039EF0DF0FF0E8A
:101A72000250036E0150026E0050016E0850006E5B
:021A8200120050
:081A8400067E23EC01F01200C4
:101A8C000FEE82F0EF50EFCF00F0009600C0EFFFAA
:021A9C00120036
:101A9E000101C86BC96BB56BB66BABC100F0ACC1C5
:101AAE0001F0ADC102F0010EAB27000EAC23AD2349
:101ABE0000C0F6FF01C0F7FF02C0F8FF0900F5CF26
:101ACE0000F000C0B2F10052D8B463EF1DF0B25175
:101ADE00250A0BE0A9C1E1FFAAC1E2FFB2C1E6FFF0
:101AEE00A94BAA2BC84BC92BD8D7B36BB46BB56B0C
:101AFE00B66B23D0B587010EAB27000EAC23AD23FA
:101B0E0059D0B581010EAB27000EAC23AD2352D0B8
:101B1E00B583010EAB27000EAC23AD234BD0B68799
:101B2E00010EAB27000EAC23AD2344D0B585010EBC
:101B3E00AB27000EAC23AD233DD0ABC1F6FFACC13D
:101B4E00F7FFADC1F8FF0900F5CF01F001502D0AE6
:101B5E00D1E0ABC1F6FFACC1F7FFADC1F8FF090094
:101B6E00F5CF01F00150200ACCE0ABC1F6FFACC1BD
:101B7E00F7FFADC1F8FF0900F5CF01F001502B0AB8
:101B8E00C7E0ABC1F6FFACC1F7FFADC1F8FF09006E
:101B9E00F5CF01F00150230AC2E0ABC1F6FFACC194
:101BAE00F7FFADC1F8FF0900F5CF01F00150300A83
:101BBE00BDE001D09ED7B5A301D0B591B5A701D098
:101BCE00B595ABC1F6FFACC1F7FFADC1F8FF09008B
:101BDE00F5CF00F0000E016E00C0D0F129EC09F037
:101BEE00005236E0B36BB46BB3C100F0B4C101F078
:101BFE000A0E046E000E056E01EC09F0ABC1F6FF85
:101C0E00ACC1F7FFADC1F8FF0900F5CF02F00250ED
:101C1E000024B36F000E0120B46F300EB35F000EC0
:101C2E00B45B010EAB27000EAC23AD23ABC1F6FFA8
:101C3E00ACC1F7FFADC1F8FF0900F5CF00F0000E03
:101C4E00016E00C0D0F129EC09F00052CDE133D085
:101C5E00ABC1F6FFACC1F7FFADC1F8FF0900F5CF80
:101C6E0001F001502A0A27E1AEC1E9FFAFC1EAFF38
:101C7E00EECF00F0EECF01F000C0E9FF01C0EAFFA9
:101C8E00EECFB3F1EECFB4F1AEC1E9FFAFC1EAFFD3
:101C9E00020EEE24006E000EEE20016EAEC1E1FFCC
:101CAE00AFC1E2FF00C0E6FF01C0E6FF010EAB27A9
:101CBE00000EAC23AD23ABC1F6FFACC1F7FFADC137
:101CCE00F8FF0900F5CF01F001502E0A70E1010E68
:101CDE00AB27000EAC23AD23ABC1F6FFACC1F7FFB3
:101CEE00ADC1F8FF0900F5CF01F001502A0A28E135
:101CFE00AEC1E9FFAFC1EAFFEECF00F0EECF01F0CB
:101D0E0000C0E9FF01C0EAFFEECFB0F1EECFB1F1B6
:101D1E00AEC1E9FFAFC1EAFF020EEE24006E000E67
:101D2E00EE20016EAEC1E1FFAFC1E2FF00C0E6FFE3
:101D3E0001C0E6FF010EAB27000EAC23AD2336D05B
:101D4E00B06BB16BABC1F6FFACC1F7FFADC1F8FF25
:101D5E000900F5CF00F0000E016E00C0D0F129ECA5
:101D6E0009F0005223E0B0C100F0B1C101F00A0E3B
:101D7E00046E000E056E01EC09F0ABC1F6FFACC1AE
:101D8E00F7FFADC1F8FF0900F5CF02F002500024B5
:101D9E00B06F000E0120B16F300EB05F000EB15B60
:101DAE00010EAB27000EAC23AD23CCD703D0B06B06
:101DBE00B16BB689ABC100F0ACC101F0ADC102F0A0
:101DCE00010EAB27000EAC23AD2300C0F6FF01C001
:101DDE00F7FF02C0F8FF0900F5CFB2F105D1C8C177
:101DEE0000F0C9C101F01200B589E4D7B68537D12C
:101DFE00B58BB68134D1B68332D1B58D30D12FD1DA
:101E0E00B58BB58F2CD1AEC1E9FFAFC1EAFFEECFD6
:101E1E0000F0EECF01F000C0E9FF01C0EAFFEECF07
:101E2E00BDF1EECFBEF1AEC1E9FFAFC1EAFF020ECA
:101E3E00EE24006E000EEE20016EAEC1E1FFAFC1CA
:101E4E00E2FF00C0E6FF01C0E6FF000EBE1902E190
:101E5E00000EBD1911E1280EC16F6E0EC26F750E08
:101E6E00C36F6C0EC46F6C0EC56F290EC66FC76B39
:101E7E00C10EBD6F010EBE6FBF6BC06BBF51BD25D6
:101E8E00E96EC051BE21EA6EEE520BE0010EBF2587
:101E9E00006E000EC021016E00C0BFF101C0C0F186
:101EAE00EDD7B051B1110AE0C051B15D02E1BF51A1
:101EBE00B05D04E2B0C1BFF1B1C1C0F1B451C05DBB
:101ECE0002E1B351BF5D05E2BF51B35FC051B45BD8
:101EDE0002D0B36BB46BB5B716D0B3C100F0B4C1BA
:101EEE0001F0010EB35F000EB45B005001100BE069
:101EFE00A9C1E1FFAAC1E2FF200EE66EA94BAA2BF3
:101F0E00C84BC92BEAD7BFC102F0C0C103F0010E06
:101F1E00BF5D006E000EC059016E00C0BFF101C062
:101F2E00C0F10250031019E0BDC1E9FFBEC1EAFFC6
:101F3E00A9C1E1FFAAC1E2FFEECFE6FFA94BAA2B92
:101F4E00010EBD25006E000EBE21016E00C0BDF15A
:101F5E0001C0BEF1C84BC92BD6D7B5A716D0B3C199
:101F6E0000F0B4C101F0010EB35F000EB45B00507F
:101F7E0001100BE0A9C1E1FFAAC1E2FF200EE66E3F
:101F8E00A94BAA2BC84BC92BEAD787D5AEC1E9FFFF
:101F9E00AFC1EAFFEECF00F0EECF01F000C0E9FFD7
:101FAE0001C0EAFFEECFB2F1AEC1E9FFAFC1EAFF69
:101FBE00020EEE24006E000EEE20016EAEC1E1FFA9
:101FCE00AFC1E2FF00C0E6FF01C0E6FFB20EBD6F7B
:101FDE00010EBE6F010EBF6F000EC06F62D7C00E36
:101FEE00B513000EB6133BD0B251000AD8B4F7D6D3
:101FFE00B2516C0AD8B4F8D6B251660AD8B4F6D635
:10200E00B251450AD8B4F4D6B251650AD8B4F1D655
:10201E00B251670AD8B4EFD6B2516F0AD8B4EDD622
:10202E00B251640AD8B4EBD6B251690AD8B4E7D625
:10203E00B251700AD8B4E4D6B251580AD8B4E0D628
:10204E00B251780AD8B4DDD6B251730AD8B4DBD601
:10205E00B251630A9BE0B251750AC1E0B7D7000EC8
:10206E00B515006EB651070B016E00500110D8B4B5
:10207E000EEF19F0B6A904D0060EB06F000EB16FB8
:10208E00AEC1E9FFAFC1EAFFEECF00F0EECF01F037
:10209E0000C0E9FF01C0EAFFEECFB7F1EECFB8F115
:1020AE00EECFB9F1EECFBAF1AEC1E9FFAFC1EAFFA3
:1020BE00040EEE24006E000EEE20016EAEC1E1FFA6
:1020CE00AFC1E2FF00C0E6FF01C0E6FF046A056A89
:1020DE00066A076AB7C100F0B8C101F0B9C102F0D3
:1020EE00BAC103F04CEC09F0010ED8B0000E006E30
:1020FE00005205E0B97F030EB513000EB613BB6B8D
:10210E00BC6BB7C100F0B8C101F0B9C102F0BAC1E1
:10211E0003F0046A056A066A076A35EC09F0000ED8
:10212E00D8A4010E006E0052D8B48AD0BAC100F005
:10213E00016A026A036AFF0E0016000E01167E0E79
:10214E00005E000E015A00C0BBF101C0BCF1010ED1
:10215E00005E000E015A00C0BBF101C0BCF1030EBF
:10216E00046E000E056E01EC09F000C0BBF101C05B
:10217E00BCF10A0E046E000E056E9DEC08F000C058
:10218E00BBF101C0BCF1800E0118026E800E025C24
:10219E0002E1000E005C05E2010E0101BB5F000EC4
:1021AE00BC5B0101BB510008D06F1FEC05F0B7C13D
:1021BE0004F0B8C105F0B9C106F0BAC107F0AEEC33
:1021CE0003F000C0BDF101C0BEF102C0BFF103C0FB
:1021DE00C0F1000E046E000E056E000E066E7F0E30
:1021EE00076EBDC100F0BEC101F0BFC102F0C0C19B
:1021FE0003F04CEC09F0010ED8B0000E006E005248
:10220E0005E0010EBB5F000EBC5B1AD0000E046E23
:10221E00000E056E200E066E820E076EBDC100F01A
:10222E00BEC101F0BFC102F0C0C103F04CEC09F019
:10223E00000ED8B0010E006E005202E0BB4BBC2B5C
:10224E00800E006E800EBC19005C02E1BB510008CE
:10225E0003E3010EB26F02D0BBC1B2F1B6B118D01A
:10226E00B6A315D0800EBC19006E7F0E005C02E185
:10227E00FC0EBB5D0BE3800EBC19006E800EB11917
:10228E00005C02E1B051BB5D01E201D001D0F1D39F
:10229E00B051B11106E0B6A304D0010EB05F000E2E
:1022AE00B15B000E006EB151005C02E1B051080846
:1022BE0003E2080EB26F02D0B0C1B2F1B7C100F0A6
:1022CE00B8C101F0B9C102F0BAC103F0046A056ADF
:1022DE00066A076A35EC09F0000ED8A4010E006EEE
:1022EE000052D8B44BD1BBC1D0F11FEC05F000C0E9
:1022FE0004F001C005F002C006F003C007F0B7C13C
:10230E0000F0B8C101F0B9C102F0BAC103F062EC3D
:10231E0004F000C0B7F101C0B8F102C0B9F103C0BA
:10232E00BAF10101B2510008D06F1FEC05F000C0E8
:10233E0004F001C005F002C006F003C007F0B7C1FB
:10234E0000F0B8C101F0B9C102F0BAC103F062ECFD
:10235E0004F000C0CAF101C0CBF102C0CCF103C041
:10236E00CDF1CAC1B7F1CBC1B8F1CCC1B9F1CDC174
:10237E00BAF1CAC100F0CBC101F0CCC102F0CDC19F
:10238E0003F001EC08F0EEEC07F000C004F001C021
:10239E0005F002C006F003C007F0CAC100F0CBC1C1
:1023AE0001F0CCC102F0CDC103F042EC0DF0000EF5
:1023BE00046E000E056E000E066E7E0E076E4CEC61
:1023CE0009F0000ED8B0010E006E00521AE0B7C12F
:1023DE0000F0B8C101F0B9C102F0BAC103F0000EAD
:1023EE00046E000E056E000E066E7E0E076E23EC5A
:1023FE0001F000C0B7F101C0B8F102C0B9F103C0DD
:10240E00BAF1B7C100F0B8C101F0B9C102F0BAC15A
:10241E0003F001EC08F00101B251010F096E0A6AD6
:10242E00000E0A2209C004F00AC005F0000E0ABE12
:10243E00FF0E066E076E0436049005360636073616
:10244E0004360490053606360736AB0E0424F66EB7
:10245E00470E0520F76E000E0620F86E0900F5CF28
:10246E0005F00900F5CF06F00900F5CF07F00900D9
:10247E00F5CF08F00850035C08E10750025C05E157
:10248E000650015C02E10550005C1EE30101B7C17C
:10249E0000F0B8C101F0B9C102F0BAC103F0CD0E1F
:1024AE00046ECC0E056E4C0E066E7B0E076EAEECF9
:1024BE0003F000C0B7F101C0B8F102C0B9F103C01A
:1024CE00BAF1BB4BBC2B5AD0B7C100F0B8C101F06A
:1024DE00B9C102F0BAC103F001EC08F0B2C104F0C8
:1024EE00000E056E066E076E04360490053606362F
:1024FE00073604360490053606360736AB0E04242E
:10250E00F66E470E0520F76E000E0620F86E0900D7
:10251E00F5CF05F00900F5CF06F00900F5CF07F06D
:10252E000900F5CF08F00850035C08E10750025C83
:10253E0005E10650015C02E10550005C1FE201015D
:10254E00B7C100F0B8C101F0B9C102F0BAC103F0D1
:10255E00000E046E000E056E200E066E820E076EC5
:10256E00AEEC03F000C0B7F101C0B8F102C0B9F192
:10257E0003C0BAF1010EBB5F000EBC5B0101B6A336
:10258E0093D0B6B791D0800E000A006E800EB119AE
:10259E00005C02E1B0510A0804E20A0EB06F000EB0
:1025AE00B16FB7C100F0B8C101F0B9C102F0BAC144
:1025BE0003F001EC08F000C0BDF101C0BEF102C095
:1025CE00BFF103C0C0F1BD51BE11BF11C01142E039
:1025DE000A0E046E000E056E066E076EBDC100F08B
:1025EE00BEC101F0BFC102F0C0C103F0B3EC09F0EF
:1025FE0008C000F009C001F00AC002F00BC003F0E1
:10260E00000E046E031808E10450021805E1045090
:10261E00011802E10050000A1DE1010EB05F000E2C
:10262E00B15B0A0E046E000E056E066E076EBDC11E
:10263E0000F0BEC101F0BFC102F0C0C103F0B3ECA7
:10264E0009F000C0BDF101C0BEF102C0BFF103C070
:10265E00C0F1B9D7800EB119006E800E005C02E198
:10266E00B251B05D21E2B051B25DD06F1FEC05F0FA
:10267E0000C004F001C005F002C006F003C007F070
:10268E00B7C100F0B8C101F0B9C102F0BAC103F090
:10269E0062EC04F000C0B7F101C0B8F102C0B9F1AC
:1026AE0003C0BAF1B0C1B2F1050E0101B025006E42
:1026BE00000EB121016E0050B35F0150B45BB051FA
:1026CE00B11103E1B6B701D004D0010EB35F000E15
:1026DE00B45B030EB515006EB6C101F0000E011607
:1026EE000050011004E0010EB35F000EB45BB5A5FF
:1026FE0039D0B5A312D0B5A103D02D0E006E02D0E5
:10270E002B0E006EA9C1E1FFAAC1E2FF00C0E6FFD9
:10271E00A94BAA2BC84BC92B0CD0B5A10AD0A9C165
:10272E00E1FFAAC1E2FF200EE66EA94BAA2BC84B11
:10273E00C92B800E006E800EB419005C02E1B351FD
:10274E0000080FE2A9C1E1FFAAC1E2FF300EE66E5A
:10275E00A94BAA2BC84BC92B010EB35F000EB45B5D
:10276E00E8D73AD0B5B718D0800E006E800EB419E7
:10277E00005C02E1B35100080FE2A9C1E1FFAAC15A
:10278E00E2FF200EE66EA94BAA2BC84BC92B010EF9
:10279E00B35F000EB45BE8D7B5A312D0B5A103D0DA
:1027AE002D0E006E02D02B0E006EA9C1E1FFAAC144
:1027BE00E2FF00C0E6FFA94BAA2BC84BC92B0CD0D9
:1027CE00B5A10AD0A9C1E1FFAAC1E2FF200EE66EB3
:1027DE00A94BAA2BC84BC92BB7C100F0B8C101F049
:1027EE00B9C102F0BAC103F001EC08F000C0BDF1AE
:1027FE0001C0BEF102C0BFF103C0C0F1B2C100F012
:10280E00000E016E026E036E003600900136023627
:10281E00033600360090013602360336AB0E002426
:10282E00F66E470E0120F76E000E0220F86E0900BC
:10283E00F5CF04F00900F5CF05F00900F5CF06F04D
:10284E000900F5CF07F0BDC100F0BEC101F0BFC158
:10285E0002F0C0C103F0B3EC09F0300E0026A9C19E
:10286E00E1FFAAC1E2FF00C0E6FFA94BAA2BC84BAD
:10287E00C92BB051B11103E1B6B701D06FD0A9C1C8
:10288E00E1FFAAC1E2FF2E0EE66EA94BAA2BC84BA2
:10289E00C92BB251B05F000EB15BB2534DE0B2071F
:1028AE00B2C100F0000E016E026E036E0036009093
:1028BE0001360236033600360090013602360336F4
:1028CE00AB0E0024F66E470E0120F76E000E0220AE
:1028DE00F86E0900F5CF04F00900F5CF05F00900F8
:1028EE00F5CF06F00900F5CF07F0BDC100F0BEC16F
:1028FE0001F0BFC102F0C0C103F0B3EC09F00A0E43
:10290E00046E000E056E066E076EB3EC09F008C07D
:10291E0000F009C001F00AC002F00BC003F0300E47
:10292E000026A9C1E1FFAAC1E2FF00C0E6FFA94B44
:10293E00AA2BC84BC92BB1D7B051B1110FE0A9C109
:10294E00E1FFAAC1E2FF300EE66EA94BAA2BC84BDF
:10295E00C92B010EB05F000EB15BEED7B5AB0BD03D
:10296E00A9C1E1FFAAC1E2FF450EE66EA94BAA2B53
:10297E00C84BC92B0AD0A9C1E1FFAAC1E2FF650E5F
:10298E00E66EA94BAA2BC84BC92B800EBC19006E44
:10299E00800E005C02E1000EBB5D11E2BB5100082F
:1029AE00BB6FBC51000EBC57A9C1E1FFAAC1E2FF2B
:1029BE002D0EE66EA94BAA2BC84BC92B0AD0A9C166
:1029CE00E1FFAAC1E2FF2B0EE66EA94BAA2BC84B64
:1029DE00C92B0A0E046E000E056EBBC100F0BCC101
:1029EE0001F09DEC08F0300E0026A9C1E1FFAAC14E
:1029FE00E2FF00C0E6FF0101A94BAA2BC84BC92B71
:102A0E000A0E046E000E056EBBC100F0BCC101F0D3
:102A1E009DEC08F008C000F009C001F0300E002651
:102A2E00A9C1E1FFAAC1E2FF00C0E6FF0101A94B67
:102A3E00AA2BC84BC92BB5A71AD0800E006E800EDC
:102A4E00B419005C02E1B351000811E2A9C1E1FF23
:102A5E00AAC1E2FF200EE66EA94BAA2BC84BC92BCA
:102A6E00010EB35F000EB45BB351B411EFE154EF3E
:102A7E000DF0B6A3F3D0800EBC19006E800E005C74
:102A8E0002E1000EBB5D0AE2010EBB5D006E000EA0
:102A9E00BC59016E0050B05F0150B15BB7C100F080
:102AAE00B8C101F0B9C102F0BAC103F001EC08F0EF
:102ABE0000C0BDF101C0BEF102C0BFF103C0C0F144
:102ACE00010EB26FB2510A0A34E0B2C100F0000E2C
:102ADE00016E026E036E003600900136023603362A
:102AEE0000360090013602360336AB0E0024F66E29
:102AFE00470E0120F76E000E0220F86E0900F5CF8A
:102B0E0001F00900F5CF02F00900F5CF03F009003E
:102B1E00F5CF04F00450C05D08E10350BF5D05E140
:102B2E000250BE5D02E10150BD5D01E202D0B22B4A
:102B3E00C9D7B251B05DCE6F000EB159CF6FCEC1B5
:102B4E00B0F1CFC1B1F1BDC100F0BEC101F0BFC146
:102B5E0002F0C0C103F0EEEC07F000C004F001C0BB
:102B6E0005F002C006F003C007F0B7C100F0B8C10F
:102B7E0001F0B9C102F0BAC103F042EC0DF000C091
:102B8E00CAF101C0CBF102C0CCF103C0CDF1CEC170
:102B9E00D0F11FEC05F0CAC104F0CBC105F0CCC1D9
:102BAE0006F0CDC107F0AEEC03F0000E046E000E81
:102BBE00056E000E066E7E0E076E23EC01F001EC24
:102BCE0008F000C0BDF101C0BEF102C0BFF103C0EC
:102BDE00C0F1B051B11142E00A0E046E000E056E46
:102BEE00066E076EBDC100F0BEC101F0BFC102F09E
:102BFE00C0C103F0B3EC09F008C000F009C001F049
:102C0E000AC002F00BC003F0000E046E031808E1B8
:102C1E000450021805E10450011802E10050000AA8
:102C2E001DE10A0E046E000E056E066E076EBDC126
:102C3E0000F0BEC101F0BFC102F0C0C103F0B3ECA1
:102C4E0009F000C0BDF101C0BEF102C0BFF103C06A
:102C5E00C0F1010EB05F000EB15BBBD7800E006EEF
:102C6E00800EB119005C02E1B0510C0816E3B0C140
:102C7E00D0F129EC0BF0B7C104F0B8C105F0B9C121
:102C8E0006F0BAC107F023EC01F000C0B7F101C0A5
:102C9E00B8F102C0B9F103C0BAF1B7C100F0B8C1C2
:102CAE0001F0B9C102F0BAC103F0046A056A066AFE
:102CBE00076A35EC09F0000ED8A4010E006E005222
:102CCE00D8B477D0B7C100F0B8C101F0B9C102F0E5
:102CDE00BAC103F001EC08F0000E046E031808E10F
:102CEE000450021805E10450011802E10050000AD8
:102CFE0060E1800E006E800EBC19005C02E1BB51DB
:102D0E00010857E2BBC1D0F11FEC05F000C004F082
:102D1E0001C005F002C006F003C007F0B7C100F015
:102D2E00B8C101F0B9C102F0BAC103F062EC04F00F
:102D3E005F0E046E700E056E090E066E810E076E26
:102D4E004CEC09F0010ED8B0000E006E005206E0F9
:102D5E00090E0101BB5F000EBC5B05D00101080E20
:102D6E00BB5F000EBC5BBBC1D0F11FEC05F000C019
:102D7E0004F001C005F002C006F003C007F0B7C1B1
:102D8E0000F0B8C101F0B9C102F0BAC103F062ECB3
:102D9E0004F001EC08F000C0BDF101C0BEF102C0AC
:102DAE00BFF103C0C0F10101B76BB86BB96BBA6B61
:102DBE0038D0B7C100F0B8C101F0B9C102F0BAC144
:102DCE0003F001EC08F000C0BDF101C0BEF102C07D
:102DDE00BFF103C0C0F1BDC100F0BEC101F0BFC163
:102DEE0002F0C0C103F0EEEC07F000C004F001C029
:102DFE0005F002C006F003C007F0B7C100F0B8C17D
:102E0E0001F0B9C102F0BAC103F042EC0DF000C0FE
:102E1E00B7F101C0B8F102C0B9F103C0BAF1BB6B92
:102E2E00BC6B010EB26FB2510A0A34E0B2C100F0AF
:102E3E00000E016E026E036E0036009001360236F1
:102E4E00033600360090013602360336AB0E0024F0
:102E5E00F66E470E0120F76E000E0220F86E090086
:102E6E00F5CF01F00900F5CF02F00900F5CF03F020
:102E7E000900F5CF04F00450C05D08E10350BF5DBA
:102E8E0005E10250BE5D02E10150BD5D01E202D0DE
:102E9E00B22BC9D7B251B025006E000EB121016E12
:102EAE00BB510026BC5101220050B35F0150B45BF0
:102EBE00B6B704D0B051B11101E104D0010EB35F29
:102ECE00000EB45B030EB515006EB6C101F0000E18
:102EDE0001160050011004E0010EB35F000EB45B4A
:102EEE00B5A539D0B5A312D0B5A103D02D0E006E65
:102EFE0002D02B0E006EA9C1E1FFAAC1E2FF00C0F5
:102F0E00E6FFA94BAA2BC84BC92B0CD0B5A10AD0F2
:102F1E00A9C1E1FFAAC1E2FF200EE66EA94BAA2BC2
:102F2E00C84BC92B800E006E800EB419005C02E1F6
:102F3E00B35100080FE2A9C1E1FFAAC1E2FF300EB2
:102F4E00E66EA94BAA2BC84BC92B010EB35F000E20
:102F5E00B45BE8D73AD0B5B718D0800E006E800EAD
:102F6E00B419005C02E1B35100080FE2A9C1E1FF00
:102F7E00AAC1E2FF200EE66EA94BAA2BC84BC92BA5
:102F8E00010EB35F000EB45BE8D7B5A312D0B5A1A6
:102F9E0003D02D0E006E02D02B0E006EA9C1E1FFE4
:102FAE00AAC1E2FF00C0E6FFA94BAA2BC84BC92B52
:102FBE000CD0B5A10AD0A9C1E1FFAAC1E2FF200E33
:102FCE00E66EA94BAA2BC84BC92BB2C100F0B207B3
:102FDE0000524CE0B2C100F0000E016E026E036EA4
:102FEE000036009001360236033600360090013668
:102FFE0002360336AB0E0024F66E470E0120F76E36
:10300E00000E0220F86E0900F5CF04F00900F5CF8E
:10301E0005F00900F5CF06F00900F5CF07F0BDC1A8
:10302E0000F0BEC101F0BFC102F0C0C103F0B3ECAD
:10303E0009F00A0E046E000E056E066E076EB3ECF6
:10304E0009F008C000F009C001F00AC002F00BC080
:10305E0003F0300E0026A9C1E1FFAAC1E2FF00C0B5
:10306E00E6FFA94BAA2BC84BC92BAFD7800E006E1B
:10307E00800EBC19005C02E1BB5100080FE2A9C131
:10308E00E1FFAAC1E2FF300EE66EA94BAA2BC84B98
:10309E00C92B010EBB5F000EBC5BE8D7800E000A89
:1030AE00006E800EB119005C02E1B051080803E217
:1030BE00080EB26F02D0B0C1B2F1B251B05F000EC5
:1030CE00B15BB25303E1B6B701D00AD0A9C1E1FF9B
:1030DE00AAC1E2FF2E0EE66EA94BAA2BC84BC92B36
:1030EE00B2C1D0F11FEC05F0B7C104F0B8C105F0C4
:1030FE00B9C106F0BAC107F0AEEC03F0A9EC0CF0C2
:10310E0000C0BDF101C0BEF102C0BFF103C0C0F1ED
:10311E00B2534DE0B207B2C100F0000E016E026E66
:10312E00036E0036009001360236033600360090EC
:10313E00013602360336AB0E0024F66E470E012022
:10314E00F76E000E0220F86E0900F5CF04F00900AC
:10315E00F5CF05F00900F5CF06F00900F5CF07F021
:10316E00BDC100F0BEC101F0BFC102F0C0C103F08D
:10317E00B3EC09F00A0E046E000E056E066E076EB5
:10318E00B3EC09F008C000F009C001F00AC002F06B
:10319E000BC003F0300E0026A9C1E1FFAAC1E2FF69
:1031AE0000C0E6FFA94BAA2BC84BC92BB1D7B05113
:1031BE00B1110FE0A9C1E1FFAAC1E2FF300EE66E28
:1031CE00A94BAA2BC84BC92B010EB05F000EB15BE9
:1031DE00EED7B5A71AD0800E006E800EB419005C23
:1031EE0002E1B351000811E2A9C1E1FFAAC1E2FF59
:1031FE00200EE66EA94BAA2BC84BC92B010EB35F4E
:10320E00000EB45BB351B411EFE154EF0DF0C00EEC
:10321E00B515016EB6C102F0000E0216000E0218B0
:10322E0002E1000E0118D8A47CD0B5A927D0AEC1FA
:10323E00E9FFAFC1EAFFEECF00F0EECF01F000C024
:10324E00E9FF01C0EAFFEECFBDF1EECFBEF1EECF4A
:10325E00BFF1EECFC0F1AEC1E9FFAFC1EAFF040E80
:10326E00EE24006E000EEE20016EAEC1E1FFAFC186
:10327E00E2FF00C0E6FF01C0E6FF2BD0AEC1E9FFC2
:10328E00AFC1EAFFEECF00F0EECF01F000C0E9FFD4
:10329E0001C0EAFFEECF00F0EECF01F000C0BDF1AD
:1032AE0001C0BEF1000E01BEFF0EBF6FC06FAEC1FA
:1032BE00E9FFAFC1EAFF020EEE24006E000EEE2013
:1032CE00016EAEC1E1FFAFC1E2FF00C0E6FF01C07B
:1032DE00E6FF800EC019006E800E005C08E1000E45
:1032EE00BF5D05E1000EBE5D02E1000EBD5D18E2A0
:1032FE00030EB513000EB613006A016A026A036A62
:10330E00BD51005EBE51015ABF51025AC051035AFF
:10331E0000C0BDF101C0BEF102C0BFF103C0C0F1DB
:10332E004ED0B5A927D0AEC1E9FFAFC1EAFFEECFAF
:10333E0000F0EECF01F000C0E9FF01C0EAFFEECFD2
:10334E00BDF1EECFBEF1EECFBFF1EECFC0F1AEC10B
:10335E00E9FFAFC1EAFF040EEE24006E000EEE2070
:10336E00016EAEC1E1FFAFC1E2FF00C0E6FF01C0DA
:10337E00E6FF25D0AEC1E9FFAFC1EAFFEECF00F008
:10338E00EECF01F000C0E9FF01C0EAFFEECFBDF1C4
:10339E00EECFBEF1000EBF6FC06FAEC1E9FFAFC181
:1033AE00EAFF020EEE24006E000EEE20016EAEC19C
:1033BE00E1FFAFC1E2FF00C0E6FF01C0E6FF000E75
:1033CE00B11902E1000EB0190FE1000E006EC01926
:1033DE0008E10050BF1905E10050BE1902E1BD51D0
:1033EE00000A02E1B04BB12BC00EB515006E00C045
:1033FE0005F0AED0010EB26FB2510A0A34E0B2C17E
:10340E0000F0000E016E026E036E00360090013663
:10341E000236033600360090013602360336AB0E06
:10342E000024F66E470E0120F76E000E0220F86E95
:10343E000900F5CF01F00900F5CF02F00900F5CF34
:10344E0003F00900F5CF04F00450C05D08E103500D
:10345E00BF5D05E10250BE5D02E10150BD5D01E2BE
:10346E0002D0B22BC9D782D0010EB26FB251080A68
:10347E0034E0B2C100F0000E016E026E036E003633
:10348E0000900136023603360036009001360236C1
:10349E000336D30E0024F66E470E0120F76E000E93
:1034AE000220F86E0900F5CF01F00900F5CF02F009
:1034BE000900F5CF03F00900F5CF04F00450C05D0C
:1034CE0008E10350BF5D05E10250BE5D02E101500F
:1034DE00BD5D01E202D0B22BC9D748D0010EB26F4A
:1034EE00B2510C0A34E0B2C100F0000E016E026E51
:1034FE00036E003600900136023603360036009019
:10350E000136023603367B0E0024F66E470E01207E
:10351E00F76E000E0220F86E0900F5CF01F00900DB
:10352E00F5CF02F00900F5CF03F00900F5CF04F056
:10353E000450C05D08E10350BF5D05E10250BE5D61
:10354E0002E10150BD5D01E202D0B22BC9D70ED00F
:10355E000550000AD8B44ED70550C00AD8B44AD781
:10356E000550800A81E00550400AB8E0800E006EDA
:10357E00800EB119005C02E1B051B25D03E2B0C140
:10358E00B2F10DD0800EB119006E800E005C02E11A
:10359E00B251B05D04E2B2C1B0F1000EB16FB351E1
:1035AE00B4110EE0030EB515006EB6C101F0000E9B
:1035BE0001160050011004E0010EB35F000EB45B63
:1035CE00800EB119006E800EB419005C02E1B35189
:1035DE00B05D05E2B051B35FB151B45B02D0B36BD5
:1035EE00B46BC40EB515016EB651080B026E0250C7
:1035FE00080A02E1400E011808E1B351B41104E0CB
:10360E00010EB35F000EB45B1CD0C00EB515016E7B
:10361E00B651080B026E0250080A02E1800E011824
:10362E0010E1800E006E800EB419005C02E1B35101
:10363E00020805E2020EB35F000EB45B02D0B36B5C
:10364E00B46BB5A55DD0B5A312D0B5A103D02D0E28
:10365E00006E02D02B0E006EA9C1E1FFAAC1E2FFDF
:10366E0000C0E6FFA94BAA2BC84BC92B34D0B5A17D
:10367E000BD0A9C1E1FFAAC1E2FF200EE66EA94B55
:10368E00AA2BC84BC92B27D0C00EB515016EB6514B
:10369E00080B026E0250080A02E1800E01181BE1AF
:1036AE00A9C1E1FFAAC1E2FF300EE66EA94BAA2B1B
:1036BE00C84BC92BB5AB03D0580E006E02D0780E96
:1036CE00006EA9C1E1FFAAC1E2FF00C0E6FFA94B4F
:1036DE00AA2BC84BC92BB351B41111E0A9C1E1FFFC
:1036EE00AAC1E2FF300EE66EA94BAA2BC84BC92B1E
:1036FE00010EB35F000EB45BB351B411EFE174D0A1
:10370E00B351B41113E0B5B711D0A9C1E1FFAAC1ED
:10371E00E2FF200EE66EA94BAA2BC84BC92B010E59
:10372E00B35F000EB45BB351B411EFE1B5A312D089
:10373E00B5A103D02D0E006E02D02B0E006EA9C1C6
:10374E00E1FFAAC1E2FF00C0E6FFA94BAA2BC84BBE
:10375E00C92B0CD0B5A10AD0A9C1E1FFAAC1E2FFC5
:10376E00200EE66EA94BAA2BC84BC92BC00EB51561
:10377E00016EB651080B026E0250080A02E1400EAD
:10378E0001180BE1A9C1E1FFAAC1E2FF300EE66EFE
:10379E00A94BAA2BC84BC92B27D0C00EB515016E4D
:1037AE00B651080B026E0250080A02E1800E011893
:1037BE001BE1A9C1E1FFAAC1E2FF300EE66EA94BE3
:1037CE00AA2BC84BC92BB5AB03D0580E006E02D036
:1037DE00780E006EA9C1E1FFAAC1E2FF00C0E6FFAC
:1037EE00A94BAA2BC84BC92B800E006E800EB119A7
:1037FE00005C02E1B051B25D0BE2A9C1E1FFAAC1CA
:10380E00E2FF300EE66EA94BAA2BC84BC92BECD7A4
:10381E00B0C100F0B1C101F0010EB05F000EB15B9E
:10382E0000500110D8B42AD1C00EB515006E00C0DC
:10383E00CAF10AD1B0C100F0B1C101F0000EB1BFA2
:10384E00FF0E026E036E003600900136023603360E
:10385E0000360090013602360336AB0E0024F66EAB
:10386E00470E0120F76E000E0220F86E0900F5CF0C
:10387E0004F00900F5CF05F00900F5CF06F00900B8
:10388E00F5CF07F0BDC100F0BEC101F0BFC102F01F
:10389E00C0C103F0B3EC09F00A0E046E000E056E03
:1038AE00066E076EB3EC09F008C000F009C001F017
:1038BE000AC002F00BC003F0300E0024B26FD3D05A
:1038CE00B5AB45D0B0C100F0B1C101F0000EB1BF33
:1038DE00FF0E026E036E003600900136023603367E
:1038EE0000360090013602360336D30E0024F66EF3
:1038FE00470E0120F76E000E0220F86E0900F5CF7C
:10390E0004F00900F5CF05F00900F5CF06F0090027
:10391E00F5CF07F0BDC100F0BEC101F0BFC102F08E
:10392E00C0C103F0B3EC09F00F0E0016000E011625
:10393E0002160316040E0024F66E480E0120F76ED2
:10394E00000E0220F86E0900F5CFB2F144D0B0C1DE
:10395E0000F0B1C101F0000EB1BFFF0E026E036E9A
:10396E0000360090013602360336003600900136DE
:10397E0002360336D30E0024F66E470E0120F76E84
:10398E00000E0220F86E0900F5CF04F00900F5CF05
:10399E0005F00900F5CF06F00900F5CF07F0BDC11F
:1039AE0000F0BEC101F0BFC102F0C0C103F0B3EC24
:1039BE0009F00F0E0016000E011602160316F30E76
:1039CE000024F66E470E0120F76E000E0220F86EF0
:1039DE000900F5CFB2F147D0B0C100F0B1C101F08E
:1039EE00000EB1BFFF0E026E036E00360090013660
:1039FE0002360336003600900136023603367B0E51
:103A0E000024F66E470E0120F76E000E0220F86EAF
:103A1E000900F5CF04F00900F5CF05F00900F5CF48
:103A2E0006F00900F5CF07F0BDC100F0BEC101F0F0
:103A3E00BFC102F0C0C103F0B3EC09F0070E0014D1
:103A4E00B26F300EB2270FD0CA51000AD8B4F2D6D8
:103A5E00CA51C00AD8B4EED6CA51800AD8B430D7EB
:103A6E00CA51400AB9E0A9C1E1FFAAC1E2FFB2C141
:103A7E00E6FFA94BAA2BC84BC92BCAD6B5A71AD09D
:103A8E00800E006E800EB419005C02E1B351000886
:103A9E0011E2A9C1E1FFAAC1E2FF200EE66EA94B19
:103AAE00AA2BC84BC92B010EB35F000EB45BB351EA
:103ABE00B411EFE154EF0DF0C8C100F0C9C101F02F
:023ACE001200E4
:063AD000000000001200DE
:103AD6000FEE82F0EF50EFCF00F0009800C0EFFF3E
:023AE6001200CC
:0E3AE800ACB202D00000FCD7A9C1ADFF1200A5
:103AF6009EC1E9FF9FC1EAFFEE500101A01905E151
:103B06009EC100F09FC101F012009E4B9F2B9EC1EB
:103B1600E9FF9FC1EAFFEECF00F00052E9E1006A3B
:043B2600016A12001E
:103B2A009EC102F09FC103F002C000F003C001F081
:103B3A00024A032A00C0E9FF01C0EAFFEE5201E08F
:103B4A00F3D701019E51025C006E9F510358016E2A
:0A3B5A00010E005E000E015A120079
:103B6400B8DF9498B3DFB2DF948601017C9182B60A
:103B740004D07CA101D001D0FAD7A8DFA7DFA6DF4B
:103B8400A5DFA4DFA3DFA2DFA1DF94889FDF9EDF90
:023B940012001D
:103B9600010E0101A16F000EA26F800E9F6F000E35
:103BA600A06F9F51A01124E090DF8FDF8EDF8DDFA5
:103BB60046EC0DF0949689DF88DF9F519E15006EC6
:103BC600000EA015016E0050011002E0948802D08C
:103BD6007FDF94987ADF79DF94867C9182B604D071
:103BE6007CA101D001D0FAD7A0339F33A09FD9D7AB
:103BF600A16BA26B6ADF69DF46EC0DF0949665DF78
:103C060064DF948862DF61DF60DF5FDF94867C912A
:103C160082B604D07CA101D001D0FAD7A16BA26BE9
:103C260054DF53DF82A801D0A1814FDF4EDF4DDF85
:103C36004CDF4BDF4ADF49DF48DF47DF46DF45DF42
:103C460044DF43DF42DF41DF40DF46EC0DF0949670
:0A3C56003FDF9498A1C100F01200B6
:103C6000AECF81F1ABA202D0AB98AB8881C100F09E
:023C7000120040
:0A3C7200000E9EBA010E006E120053
:103C7C00A2C100F00101A207005227E09EC1E9FF9A
:103C8C009FC1EAFFEE50000A0CE09EC1E9FF9FC104
:103C9C00EAFFA0C1D9FFA1C1DAFFEE50DE1801E1A5
:103CAC000FD09EC1E9FF9FC1EAFFA0C1D9FFA1C1FE
:103CBC00DAFFDE50EE5C006E016A000E015A120053
:103CCC009E4B9F2BA04BA12BD3D7006A016A1200ED
:103CDC009488F8DEF7DE9486F5DEF4DEF6DE949852
:0C3CEC00F1DEF0DE46EC0DF094961200C4
:103CF800A30E0101A76F010EA86F9EC1A9F19FC174
:103D0800AAF1A0C1ABF1A1C1ACF1A2C1ADF1A70E5E
:103D1800AE6F010EAF6F4FEC0DF000C0A5F101C002
:103D2800A6F100509E25E16E01509F21E26EE66AE1
:0A3D3800A5C100F0A6C101F01200C1
:103D42000101A16B9EC1E9FF9FC1EAFFEECFA0F185
:103D5200A051000A0EE0A0C1A9F1C5DE0101A12B0C
:103D6200A1519E25E96E000E9F21EA6EEECFA0F1D1
:043D7200EFD7120075
:103D76000101A06BA16B800EA26F000EA36FA25172
:103D8600A3111CE0A2DEA1DE94889FDE9EDE94864F
:103D96007C9182B604D07CA101D001D0FAD782A84A
:103DA60004D0A251A013A351A1138FDE8EDE46ECE0
:103DB6000DF09496A333A233A39FE1D7948885DEB2
:103DC60084DE9E519F1102E083DE94987EDE7DDEC6
:103DD60094867C9182B604D07CA101D001D0FAD71A
:103DE60074DE73DE46EC0DF094966FDE6EDE70DEEA
:083DF6009498A0C100F0120036
:103DFE0096C104F097C105F004C002F005C003F0AF
:103E0E00044A052A98C100F099C101F00101984BAE
:103E1E00992B00C0E9FF01C0EAFF02C0E1FF03C019
:103E2E00E2FFEECFE6FF02C0E9FF03C0EAFFEE526B
:0E3E3E0001E0E2D796C100F097C101F012003A
:103E4C0047DFA00E01019E6FA0DE96C19EF19DDEA4
:103E5C0097C19EF19ADE80DE2A0E0C6E8D0E0D6ED1
:0E3E6C000D2EFED70C2EFCD700000000120019
:103E7A0001019C6B9D6B9A5342E09A51FF0A01E043
:103E8A009A07F2DE0050000A01E1FBD7E4DE00C027
:103E9A009BF101019C519625E16E000E9721E26E7D
:103EAA0000C0E6FF9C2B9D519825E96E000E9921D2
:103EBA00EA6EEE509B1902E19D2B09D09D6B98C1C9
:103ECA00E9FF99C1EAFFEE509B1901E19D2B9D5133
:103EDA009825E96E000E9921EA6EEE50000A0EE16D
:103EEA009D519C5D006E016A000E015A0050962594
:103EFA00E16E01509721E26EE66A1200BCD796C1C4
:0A3F0A00E1FF97C1E2FFE66A120032
:103F1400000E0101971902E1000E961934E096C1D2
:103F2400E9FF97C1EAFFEE522EE098C19EF199C1D4
:103F34009FF1F9DD00C0A2F196C19EF197C19FF1F6
:103F440098C1A0F199C1A1F197DE000E011802E118
:103F5400000E001805E196C100F097C101F01200AF
:103F64000101010E96259E6F000E97219F6F98C147
:103F7400E9FF99C1EAFFEECFA0F1BBDD00C096F1E5
:0C3F840001C097F1C5D7006A016A120065
:103F90000C0E0101A96FA8DD8A0E01019E6F010EB2
:103FA0009F6F150EA06F480EA16F000EA26F76C115
:103FB000A3F177C1A4F1A0DEA30E9E6F000E9F6F48
:103FC000C0DE8E0E9E6F010E9F6FBBDE8E0E9E6F4B
:103FD000010E9F6FB6DE900E9E6F000E9F6FB1DEDA
:103FE0008E0E9E6F010E9F6FACDE8A0E9E6F000ECE
:103FF0009F6FA7DE8E0E9E6F010E9F6FA2DE710E69
:104000009E6F010E9F6F9DDE8E0E9E6F010E9F6F45
:1040100098DE6D0E9E6F010E9F6F93DE8E0E9E6F6B
:10402000010E9F6F8EDE8E0E9E6F010E9F6F89DEDA
:10403000BB0E9E6F000E9F6F84DE8E0E9E6F010E74
:104040009F6F7FDE5E0E9E6F010E9F6F7ADE1E0EEB
:104050009E6F010E9F6F75DE8A0E9E6F010E9F6F21
:1040600070DE8E0E9E6F010E9F6F6BDEFB0E9E6FDD
:10407000000E9F6F66DE8E0E9E6F010E9F6F61DEDB
:0240800012002C
:104082002CDEA00E01019E6F85DD96C19EF182DDC0
:1040920024DEA10E9E6F7EDD9E6B9F6B6BDE00C0E9
:0A40A20097F15FDD97C100F01200F6
:1040AC009486948801017C9182B604D07CA101D0C5
:0640BC0001D0FAD712004A
:1040C200E80E0101786F3A0E796FA90E7A6F010E30
:1040D2007B6F600E7D6F3C0E7E6F000E7F6F000E59
:1040E200806F720E866F3C0E876F000E886F000E17
:1040F200896FFF0E826FFF0E836F000E846F000EBA
:10410200856FAC8A900EAB6E948E949C9EAA03D05F
:08411200AECF00F0FBD7120054
:10411A000900F5CFE6FF0006FBE10106F9E112000E
:08412A0001013A6B3B6B12002E
:10413200DE0E01019E6F000E9F6F02DE8E0E9E6FDD
:10414200010E9F6FFDDD94DD0050000A01E1FBD7F7
:1041520086DD300E005E016A000E015A00C0A1F039
:1041620001C0A2F0140E046E000E056E01EC09F0FF
:1041720000C038F101C039F101018C6B8D6B800EEA
:104182008D19006E800E005C02E1140E8C5D26E239
:104192004F0E8C25946F010E8D21956F38C196F1CB
:1041A2006FDF94C1E1FF95C1E2FF00C0E6FF4F0E51
:1041B20001018C25E96E010E8D21EA6EEE50200A76
:1041C20008E14F0E8C25E16E010E8D21E26EE66A4A
:1041D20005D08C4B8D2B384B392BD1D7000E8D1936
:1041E20002E1140E8C1901E1626B8C6B8D6B4F0E28
:1041F2009E6F010E9F6F98DC800E8D19026E800EED
:104202000118025C02E100508C5D0DE25E0E8C250D
:10421200E16E010E8D21E26E5F0EE66E8C4B8D2BF0
:10422200384B392BE4D74F0E9E6F010E9F6F7CDC0B
:104232005E0E0024E16E010E0120E26EE66A1200BB
:10424200040E0101766F000E776F0101926B936B82
:104252009EDE900E966F010E976F8E0E986F010E76
:10426200996F020E9A6F08DE8C6B8D6B4F0E9E6FEC
:10427200010E9F6F59DC800E8D19026E800E01189F
:10428200025C02E100508C5D18E24F0E8C25E96E53
:10429200010E8D21EA6EEE5090190CE15E0E8C2516
:1042A200E16E010E8D21E26E90C1E6FF010E926F6A
:1042B200000E936F8C4B8D2BD9D79251931140E105
:1042C200010E765F000E775B000E771902E1030E96
:1042D200761909E16D0E966F010E976F740E986F45
:1042E200010E996F8BDD000E771902E1020E76192D
:1042F20009E1710E966F010E976F8E0E986F000E88
:10430200996F7CDD000E771902E1010E761909E141
:104312008A0E966F000E976F880E986F000E996F37
:104322006DDD000E771902E1000E761909E1900E9B
:10433200966F000E976F9F0E986F000E996F5EDD5D
:104342007651771107E123DE950E9E6F000E9F6F67
:10435200F7DC1CD05E0E966F010E976F930E986F6E
:10436200000E996FD6DD000E011802E1000E001852
:104372000CE10DDE1D0E9E6F000E9F6FE1DC4F0EF5
:0E4382009E6F010E9F6FDCDC01D05FD7120032
:104390003C0E01019E6F010E9F6FD3DC8E0E9E6F4F
:1043A000010E9F6FCEDC4F0E966F010E976F8E0E33
:1043B000986F010E996F140E9A6F5FDD8E0E9E6FCF
:1043C000010E9F6FBEDC3AC100F03BC101F0140E3C
:1043D000046E000E056E01EC09F000C038F101C05A
:1043E00039F18C6B8D6B4F0E9E6F010E9F6F95ECAC
:1043F0001DF0800E8D19026E800E0118025C02E124
:1044000000508C5D19E25E0E8C25E16E010E8D214F
:10441000E26E5F0EE66E38C196F14F0E8C25E96EA6
:10442000010E8D21EA6EEECF97F110DD01018C4B6C
:104430008D2B384B392BD7D74F0E9E6F010E9F6FA8
:1044400095EC1DF05E0E0024E16E010E0120E26E7F
:10445000E66A800E8D19006E800E005C02E1140E7B
:104460008C5D0BE238C196F1200E976FEFDC0101F5
:104470008C4B8D2B384B392BECD73A4B3B2B120006
:104480000CEC24F00D0E01018E6F8F6B330EAF6EAE
:10449000AC8417DE020E0B6E040E0C6EBA0E0D6E9F
:1044A0000D2EFED70C2EFCD70B2EFAD70000FEDD0A
:1044B0001B501C10D8B47BD00C0E0101A96F74ECFA
:1044C0001DF0150E01019E6F000E9F6F3ADC8E0EDF
:1044D0009E6F010E9F6F35DC390E9E6F000E9F6F31
:1044E00030DC8E0E9E6F010E9F6F2BDC6E0E9E6F6A
:1044F000000E9F6F26DC8E0E9E6F010E9F6F21DCDB
:10450000540E9E6F000E9F6F1CDC8E0E9E6F010E70
:104510009F6F17DC4B0E9E6F000E9F6F12DC8E0E8E
:104520009E6F010E9F6F0DDC8E0E9E6F010E9F6FB2
:1045300008DC39EC1EF00050000A01E1FAD730EC3B
:104540001EF000C08CF1000E01018D6F17D0EDDD63
:104550002DD01EDF76DE2AD0ECDD73DE27D01B6A7D
:104560001C6A0C0E0101A96F74EC1DF0B70E01015D
:104570009E6F000E9F6FA1EC1EF018D0000E8D19DB
:1045800002E1310E8C19E3E0000E8D1902E1320ECA
:104590008C19DFE0000E8D1902E1330E8C19DCE07E
:1045A000000E8D1902E1340E8C19D9E081D7FFD7A6
:1048180010EE15F0630E006E020E016EB00EF66E0D
:0E482800450EF76E000EF86E8DEC20F01200BB
:0645B0004D656E75200050
:0245B600010002
:1045B800564F43452056454E4345552120412050EE
:0C45C800414C4156524120455241200018
:1045D400312D205A65726172206D656D6F7269614B
:0245E4002000B5
:0945E600342D205361697220009C
:1045EF00332D204A6F67617220636F6D2075736F73
:0A45FF00206465206D656D2E20001C
:10460900322D204A6F6761722073656D2075736F53
:0A461900206465206D656D2E200001
:02462300200075
:044625002F7C5C008A
:0246290020006F
:03462B0020560016
:02462E005F002B
:0A46300047414D45204F564552000A
:02463A0020005E
:02463C0000007C
:10463E004A4F474F20444120464F524341202D20A0
:04464E00312E3000D9
:0446520046494D0088
:104656002D2D2D2D2D2D2D2D2D2D2D2D2D2D2D2D84
:104666002D2D2D2D2D2D2D2D2D2D2D2D2D2D2D2D74
:034676002D2D00E7
:10467900446967697465206F20ED6E64696365201C
:0D46890064612070616C617672613A2000FE
:104696002D2D2D2D2D2D2D2D2D2D2D2D2D2D2D2D44
:1046A6002D2D2D2D2D2D2D2D2D2D2D2D2D2D2D2D34
:0346B6002D2D00A7
:1046B900202D2054656E746174697661732072656A
:0A46C9007374616E7465733A20008B
:0246D3000000E5
:0246D5000000E3
:1046D70044696769746520612070616C61767261F5
:0346E7003A200076
:0F46EA00504152414C454C4550495045444F00BA
:0F46F9005F5F5F5F5F5F5F5F5F5F5F5F5F5F0080
:044708002F205C0002
:03470C00207C000E
:02470F00200088
:024711000400A2
:104713000000007F000020820000488500007A88A6
:1047230000401C8C0050438F00247492809618968E
:1047330020BC3E99286B6E9CF90215A0EC782DC124
:04474300CAF249E28B
:104747000000007FCDCC4C7B0AD723786F1203750E
:1047570017B75171ACC5276EBD37066B95BF566746
:1047670077CC2B645F700961FFE65B5D08E53C3C35
:044777006042221B5F
:10477B0001000000080000004000000000020000E3
:10478B00001000000080000000000400000020006A
:10479B0000000001000000080000004000000000C5
:1047AB00010000000A00000064000000E8030000A4
:1047BB0010270000A086010040420F008096980051
:0847CB0000E1F50500CA9A3B6C
:1047D30001000000100000000001000000100000B4
:1047E30000000100000010000000000100000010A4
:1047F3003031323334353637383961626364656654
:0148030000B4
:104804003031323334353637383941424344454602
:0148140000A3
:0348150025640017
:020000040030CA
:0D000100220F0EFF0181FF0FC00FE00F4026
:00000001FF
