:10000000CBEF22F00000000000EF00F00000000045
:0A0010000000000000000000F3D71C
:08001C000AAE029E000E120064
:100024000B820BAE1CEF00F00368026801680068E5
:080034000A360232FF0E120031
:0E003C00026A016A006A086A036A000E120076
:10004A000B840BAE30EF00F0010E036E026A016AF8
:0A005A00006A0A360232FF0E12009F
:100064000CB074EF00F00CA21AEF01F00E6A000E4F
:1000740002648BEF00F0F00E0214D8A456EF00F0E7
:10008400023A01380F0B02260138F00B016E0038DA
:100094000F0B01260038F00B006E08380F0B0026FA
:1000A4000838F00B086E0E84D89002BE6FEF00F093
:1000B40008360036013602360E2A02BE6FEF00F013
:1000C40008360036013602360E2A02BE6FEF00F003
:1000D40008360036013602360E2A0E50036410EF3D
:1000E40001F0035E0BBC08AE15EF01F0D880800E62
:1000F40008640030000E002201220222D8A015EF6D
:1001040001F0023201320032034A1AEF01F015EF16
:1001140001F001C002F000C001F008C000F0086A5C
:10012400000E0E860264C2EF00F0F00E0214D8A492
:10013400AAEF00F0023A01380F0B02260138F00B47
:10014400016E00380F0B01260038F00B006E0E8490
:10015400D89002BE6FEF00F00036013602360E2A48
:1001640002BE6FEF00F00036013602360E2A02BEE0
:100174006FEF00F00036013602360E2A6FEF00F002
:1001840001C002F000C001F0006A000E0E960E8855
:100194000264EFEF00F0F00E0214D8A4DAEF00F0DE
:1001A400023A01380F0B02260138F00B016E0E845F
:1001B400D89002BE6FEF00F0013602360E2A02BE5E
:1001C4006FEF00F0013602360E2A02BE6FEF00F028
:1001D400013602360E2A6FEF00F001C002F0016A08
:1001E400000E0E8602641FEF01F0F00E0214D8A474
:1001F400FEEF00F0023A0E84D89002BE6FEF00F0DA
:1002040002360E2A02BE6FEF00F002360E2A02BE3C
:100214006FEF00F002360E2A6FEF00F0010E0C6E45
:1002240012DF22EF01F0020E0C6EF6DE22EF01F077
:10023400040E0C6EF5DE22EF01F0080E0C6EFCDEEF
:020244001200A6
:080246000B6A0B86FF0E12008B
:10024E00086A080E0C6E003408360450085ED8B0EA
:0E025E0002D00826D89000360C2EF5D71200DC
:10026C000B800BAE42EF01F0026A0AAEFF0E026E7B
:0C027C00016E006E0A360232FF0E120006
:10028800086A096A000E07620364C9EF01F00250A8
:1002980006180A6E075003267E0ED8A05AEF01F002
:1002A800035ED8B0CDEF01F05EEF01F0035ED8A099
:1002B800D1EF01F0028E068E02C00EF001C00BF0E5
:1002C80000C00DF000500402F4CF0CF001500502FC
:1002D800F4CF00F0F3CF08F00402F3500C26F450EA
:1002E8000822000E00220D500502F3500C26F4508F
:1002F8000822000E002202500402F3500826F4508F
:10030800002202500502016A000E0122F350002665
:10031800F45001220D500602F3500826F450002232
:10032800026A000E012202220B500602F350002638
:10033800F4500122000E02220E500602F35001264C
:10034800F450022202BEB1EF01F008360036013641
:1003580002360306D8B4D1EF01F0C4EF01F0D8801B
:10036800800E08640030000E002201220222D8A06C
:10037800C4EF01F0023201320032034ACDEF01F03E
:100388000AAE029E000ED3EF01F0010E53DED3EF4A
:1003980001F0020E43DED3EF01F0040E52DE12002C
:1003A8000134083609360450085E0550D8A0053CCB
:1003B800095E003601360F0E0C6E01340836093618
:1003C800045000A006D0085E0550D8A0053C095E80
:1003D80005D008260550D8B0053C09260036013658
:1003E8000C2EEBD700B006D0045008260550D8B024
:0803F800053C0926000012007B
:100400000D6A086A0050D8B4000C04180A6E0ABEBF
:100410000D1E0B6A04AE02D0041E042A00A002D0F6
:10042000001E002A005004100A6E0ABE1FD004509D
:10043000085E003600340836045008260036060EE2
:100440000C6E00340836045000B0085E00A0082688
:1004500000360C2EF6D700A008260BB015D00DAE36
:10046000000C001E002A081E082A000C04AE09D049
:1004700000BE04D00050086E006AF1D7006A002A5E
:10048000000C001E0B2AD3D7082A0450085CD8A4FD
:0E049000E6D7086A002A00AEE2D7FF0C120081
:10049E00025006180E6E086A096A0B6A035007644A
:1004AE0042EF03F006500A6E068E028E03500B6E5C
:1004BE000750036E000E0B6492EF02F00B50075EB6
:1004CE00D8B433EF03F0070E076401EF03F0075EB5
:1004DE0000C008F001C000F002C001F0026A074E31
:1004EE0033EF03F00764D6EF02F0075E00C008F0AA
:1004FE0001C000F0016A074E33EF03F00764B4EF5A
:10050E0002F0075E00C008F0006A074E33EF03F0FA
:10051E0007649BEF02F00AC002F005C001F004C0B0
:10052E0000F0086A5FEF04F0030E0764A6EF02F016
:10053E00075E08380F0B086E074E33EF03F0D890A6
:10054E000832074E33EF03F0D8900832074E33EFE0
:10055E0003F0D890083233EF03F0030E0764C5EFB3
:10056E0002F0075E08380F0B086E0038F00B0826F5
:10057E0000380F0B006E074E33EF03F0D8900032A9
:10058E000832074E33EF03F0D89000320832074E90
:10059E0033EF03F0D8900032083233EF03F0030E3E
:1005AE000764EDEF02F0075E08380F0B086E003897
:1005BE00F00B082600380F0B006E0138F00B0026EA
:1005CE0001380F0B016E074E33EF03F0D890013256
:1005DE0000320832074E33EF03F0D890013200326A
:1005EE000832074E33EF03F0D89001320032083252
:1005FE0033EF03F0030E07641EEF03F0075E0838B7
:10060E000F0B086E0038F00B082600380F0B006E2B
:10061E000138F00B002601380F0B016E0238F00B7B
:10062E00012602380F0B026E074E33EF03F0D890FF
:10063E000232013200320832074E33EF03F0D89007
:10064E000232013200320832074E33EF03F0D890F7
:10065E000232013200320832096A000E0EAE27EF66
:10066E0004F0081E001E011E021E082A002201228E
:10067E00022227EF04F00750D8A448EF03F05FEFF3
:10068E0004F0096A02C00AF0028E068E0750035C5F
:10069E00076ED8B41AEF04F0070E0764E8EF03F004
:1006AE00075E0450096E0550046E0650056E066A0C
:1006BE00074E1AEF04F0070E0764BDEF03F0075E56
:1006CE000450096E0550046E056A074E1AEF04F0C9
:1006DE00070E07649BEF03F0075E0450096E046A71
:1006EE00074E1AEF04F0070E076482EF03F00AC0FC
:1006FE0002F05FEF04F0030E07648DEF03F0075E68
:10070E0009380F0B096E074E1AEF04F0D890093214
:10071E00074E1AEF04F0D8900932074E1AEF04F084
:10072E00D89009321AEF04F0030E0764ACEF03F011
:10073E00075E09380F0B096E0438F00B09260438D2
:10074E000F0B046E074E1AEF04F0D89004320932E4
:10075E00074E1AEF04F0D89004320932074E1AEF02
:10076E0004F0D890043209321AEF04F0030E076435
:10077E00D4EF03F0075E09380F0B096E0438F00B47
:10078E00092604380F0B046E0538F00B04260538C5
:10079E000F0B056E074E1AEF04F0D8900532043297
:1007AE000932074E1AEF04F0D8900532043209329E
:1007BE00074E1AEF04F0D8900532043209321AEFC0
:1007CE0004F0030E076405EF04F0075E09380F0B03
:1007DE00096E0438F00B092604380F0B046E053829
:1007EE00F00B042605380F0B056E0638F00B0526A8
:1007FE0006380F0B066E074E1AEF04F0D89006322D
:10080E00053204320932074E1AEF04F0D890063240
:10081E00053204320932074E1AEF04F0D890063230
:10082E00053204320932086A000E0EAE27EF04F0CC
:10083E00091E041E051E061E092A04220522062272
:10084E0009500826045000220550012206500222AB
:10085E000EBE3EEF04F0D8A04DEF04F0023201328E
:10086E0000320832033E4DEF04F059EF04F0D8B0D9
:10087E0053EF04F0000E081E001E011E021E082A71
:10088E000022012202220A7E53EF04F0010E0C6EAA
:10089E0032EC00F061EF04F0020E0C6E32EC00F060
:1008AE0061EF04F0040E0C6E12EC00F061EF04F038
:0608BE00000E0C6E12009A
:0608C400067EEBDD1200D0
:1008CA000050086E0150006E0250016E0350026E15
:1008DA00036A0B6A0C6A9E0E036E0A6A020E0C6E9B
:0608EA0032EC00F01200E8
:1008F0000A6A0350D8A40A800750D8A40A820A5072
:10090000D8B4DBEF04F0030AD8B494EF04F00AB0D3
:100910008FEF04F006AED9EF04F0D7EF04F002AE8B
:10092000D7EF04F0D9EF04F00250800B0A6E029E5C
:100930000650800B069E0A18D8B4A5EF04F00A50A2
:10094000D8B4D7EF04F0D9EF04F00750035CD8B463
:10095000AFEF04F0D8A0CBEF04F0D1EF04F00650D5
:10096000025CD8B4B9EF04F0D8A0CBEF04F0D1EF1B
:1009700004F00550015CD8B4C3EF04F0D8A0CBEF6D
:1009800004F0D1EF04F00450005CD8B4DBEF04F0C5
:10099000D8B0D1EF04F00A52D8B4D9EF04F0D7EFB1
:1009A00004F00A52D8B4D7EF04F0D9EF04F0D8809D
:0E09B0001200D8901200D880D88412001200D5
:1009BE0003500718D8A4F3EF04F002500618D8A479
:1009CE00F3EF04F001500518D8A4F3EF04F0005033
:0E09DE000418D8B4D8841200D8941200120065
:1009EC000101F951390806E3300EF95D03E3010EFC
:0809FC00006E01D0006A120038
:100A04000B6A0A6A096A00500402F4CF09F0F3CFB2
:100A140008F001500502F4CF0BF0F3CF0AF00050B8
:100A24000502F3500926F4500A22E86A0B22015009
:100A34000402F3500926F4500A22E86A0B2208C083
:100A440000F009C001F00AC002F00BC003F012006C
:100A54000450000A12E10550000A0FE10650000A92
:100A64000CE10750000A09E1FF0E006EFF0E016E53
:100A74007F0E026EFF0E036E1200086A096A0750A9
:100A8400D8B4D5EF05F00350D8B4DAEF05F002502E
:100A940006180A6E028E068E0E6A02C008F001C0A5
:100AA4000CF000C00DF004500D5E0550D8A0053CBC
:100AB4000C5E0650D8A0063C085E086A0C6A0D6AF3
:100AC400D8A06CEF05F0D89002320132003208321F
:100AD400010E0E6E0750035ED8A079EF05F07E0E6E
:100AE4000E240326D8B0DFEF05F07FEF05F07E0E6D
:100AF4000E240326D8A0E4EF05F0180E0B6E0D3675
:100B04000C3608360036013602360E360450005EC6
:100B14000550D8A0053C015E0650D8A0063C025EF4
:100B240006340E120EA09AEF05F00D80A5EF05F025
:100B3400045000260550D8B0053C01260650D8B014
:100B4400062802260D900B2E81EF05F0CBEF05F061
:100B5400D8900036013602360E360450005E055039
:100B6400D8A0053C015E0650D8A0063C025E0634BF
:100B74000E10010B0D26D8B00C2AD8B4082AD8A41C
:100B8400CBEF05F008320C320D32032AD8B4DFEF74
:100B940005F00AAE089E0850026E0C50016E0D500E
:100BA400006EE7EF05F0010E23EC01F0E7EF05F02E
:100BB400020E1EEC00F0E7EF05F0040E12EC00F05C
:0C0BC400E7EF05F0080E25EC00F0120031
:100BD0000B6A0C6A0A6A086A0350D8B470EF06F010
:100BE000028E9E0E035E03BEFBEF05F0D8B4FBEF52
:100BF00005F060EF06F0036C080E035CD8A02DEF43
:100C000006F0036E083600C008F001C000F002C014
:100C100001F0026A080E035CD8A02DEF06F0036E07
:100C2000083600C008F001C000F0016A080E035C3D
:100C3000D8A02DEF06F0036E083600C008F0006A59
:100C4000080E035CD8A02DEF06F0036E0836086A84
:100C50000350D8A4D89039EF06F00350D8B439EF38
:100C600006F0D8900232013200320832032E31EF02
:100C700006F00BBC08A04AEF06F0D8A04AEF06F039
:100C8000082AD8B4002AD8B4012AD8B4022A02BE4D
:100C900074EF06F00AAE70EF06F0021E011E001E91
:100CA000081E082AD8B4002AD8B4012AD8B4022AC7
:100CB00070EF06F0026A016A006A086A70EF06F0D7
:100CC0000B800BAE7AEF06F0026A0AAE7AEF06F0FE
:100CD000026E016E006E086E0A3602327AEF06F07E
:100CE000000E0C6A7BEF06F0010E0C6E36EC01F084
:100CF0007BEF06F0FF0E0250036E0150026E0050B3
:080D0000016E0850006E1200A4
:100D08000450000A08E10550000A05E1FF0E006ED4
:100D18007F0E016E12000D6A096A086A0150001000
:100D2800D8B4000C015005180A6E0ABE0D1E0B6AD5
:100D380005AE05D0041E051E042AD8B4052A01AE46
:100D480005D0001E011E002AD8B4012A0150051042
:100D58000A6E0ABE10D0D4EC01F00BB020D00DAE54
:100D6800000C001E011E002AD8B4012A081E091E04
:100D7800082AD8B4092A000C05AE0DD001BE07D048
:100D88000150096E0050086E016A006AE8D7016ACE
:100D9800006A002A000C011E001E0B2ADDD7082A53
:100DA800D8B4092A0450085CD8A4D9D70550095CDE
:100DB800D8A4D5D7096A086A002AD8B4012A01AE8E
:080DC800CED70000FF0C120061
:100DD000800E0101F919006E800E000A005CD8B087
:100DE0006DD1F9510008016E01C0F9F1800E0118B2
:100DF000006E800E6E0A005CD8A0C0D0640E046E37
:100E0000F9C100F000EC02F0120E0024056E000E95
:100E100000BEFF0E066E000E062205C000F006C0E2
:100E200001F0000E06BEFF0E026E036E003600904B
:100E3000013602360336003600900136023603369C
:100E4000960E0024F66E480E0120F76E000E02206A
:100E5000F86E0900F5CFFAF10900F5CFFBF10900B2
:100E6000F5CFFCF10900F5CFFDF1640E046EF9C178
:100E700000F000EC02F008C000F00A0E046E00EC76
:100E800002F0090E0024056E000E00BEFF0E066E75
:100E9000000E062205C000F006C001F0000E06BEDE
:100EA000FF0E026E036E00360090013602360336E6
:100EB00000360090013602360336960E0024F66E98
:100EC000480E0120F76E000E0220F86E0900F5CFE3
:100ED00000F00900F5CF01F00900F5CF02F009009C
:100EE000F5CF03F0FAC104F0FBC105F0FCC106F038
:100EF000FDC107F044EC01F000C0FAF101C0FBF1C4
:100F000002C0FCF103C0FDF10A0E046EF9C100F04D
:100F100000EC02F008C000F000C001F0000E00BEBE
:100F2000FF0E026E036E046E013601900236033628
:100F3000043601360190023603360436960E01243B
:100F4000F66E480E0220F76E000E0320F86E0900C0
:100F5000F5CF00F00900F5CF01F00900F5CF02F060
:100F60000900F5CF03F0FAC104F0FBC105F0FCC1A4
:100F700006F0FDC107F044EC01F01200800E0A0AF1
:100F8000006E800EF919005C71E20A0E046EF9C160
:100F900000F000EC02F0090E0024056E000E00BE09
:100FA000FF0E066E000E062205C000F006C001F01E
:100FB000000E06BEFF0E026E036E00360090013674
:100FC0000236033600360090013602360336960E9E
:100FD0000024F66E480E0120F76E000E0220F86E17
:100FE0000900F5CFFAF10900F5CFFBF10900F5CFC3
:100FF000FCF10900F5CFFDF10A0E046EF9C100F015
:1010000000EC02F008C000F000C001F0000E00BECD
:10101000FF0E026E036E046E013601900236033637
:10102000043601360190023603360436960E01244A
:10103000F66E480E0220F76E000E0320F86E0900CF
:10104000F5CF00F00900F5CF01F00900F5CF02F06F
:101050000900F5CF03F0FAC104F0FBC105F0FCC1B3
:1010600006F0FDC107F044EC01F01200F9C100F0F8
:10107000000EF9BFFF0E016E026E036E0036009087
:10108000013602360336003600900136023603364A
:10109000960E0024F66E480E0120F76E000E022018
:1010A000F86E0900F5CF00F00900F5CF01F0090056
:1010B000F5CF02F00900F5CF03F01200800EF91908
:1010C000006E800E6E0A005CD8A0C0D0640E046E64
:1010D000F9C100F000EC02F0120E0024056E000EC3
:1010E00000BEFF0E066E000E062205C000F006C010
:1010F00001F0000E06BEFF0E026E036E0036009079
:1011000001360236033600360090013602360336C9
:10111000620E0024F66E480E0120F76E000E0220CB
:10112000F86E0900F5CFFAF10900F5CFFBF10900DF
:10113000F5CFFCF10900F5CFFDF1640E046EF9C1A5
:1011400000F000EC02F008C000F00A0E046E00ECA3
:1011500002F0090E0024056E000E00BEFF0E066EA2
:10116000000E062205C000F006C001F0000E06BE0B
:10117000FF0E026E036E0036009001360236033613
:1011800000360090013602360336620E0024F66EF9
:10119000480E0120F76E000E0220F86E0900F5CF10
:1011A00000F00900F5CF01F00900F5CF02F00900C9
:1011B000F5CF03F0FAC104F0FBC105F0FCC106F065
:1011C000FDC107F044EC01F000C0FAF101C0FBF1F1
:1011D00002C0FCF103C0FDF10A0E046EF9C100F07B
:1011E00000EC02F008C000F000C001F0000E00BEEC
:1011F000FF0E026E036E046E013601900236033656
:10120000043601360190023603360436620E01249C
:10121000F66E480E0220F76E000E0320F86E0900ED
:10122000F5CF00F00900F5CF01F00900F5CF02F08D
:101230000900F5CF03F0FAC104F0FBC105F0FCC1D1
:1012400006F0FDC107F044EC01F01200800E0A0A1E
:10125000006E800EF919005C71E20A0E046EF9C18D
:1012600000F000EC02F0090E0024056E000E00BE36
:10127000FF0E066E000E062205C000F006C001F04B
:10128000000E06BEFF0E026E036E003600900136A1
:101290000236033600360090013602360336620EFF
:1012A0000024F66E480E0120F76E000E0220F86E44
:1012B0000900F5CFFAF10900F5CFFBF10900F5CFF0
:1012C000FCF10900F5CFFDF10A0E046EF9C100F042
:1012D00000EC02F008C000F000C001F0000E00BEFB
:1012E000FF0E026E036E046E013601900236033665
:1012F000043601360190023603360436620E0124AC
:10130000F66E480E0220F76E000E0320F86E0900FC
:10131000F5CF00F00900F5CF01F00900F5CF02F09C
:101320000900F5CF03F0FAC104F0FBC105F0FCC1E0
:1013300006F0FDC107F044EC01F01200F9C100F025
:10134000000EF9BFFF0E016E026E036E00360090B4
:101350000136023603360036009001360236033677
:10136000620E0024F66E480E0120F76E000E022079
:10137000F86E0900F5CF00F00900F5CF01F0090083
:0C138000F5CF02F00900F5CF03F01200D9
:10138C000B6A0C6A086A0350D8B44AEF0AF002C020
:10139C000AF0028E9E0E035E03AE3AEF0AF0036C67
:1013AC00080E035CD8A007EF0AF0036E083600C0E5
:1013BC0008F001C000F002C001F0026A080E035CE4
:1013CC00D8A007EF0AF0036E083600C008F001C081
:1013DC0000F0016A080E035CD8A007EF0AF0036E58
:1013EC00083600C008F0006A080E035CD8A007EFAE
:1013FC000AF0036E0836086A0350D8A4D89013EF8D
:10140C000AF00350D8B413EF0AF0D890023201322C
:10141C0000320832032E0BEF0AF00BBC08A024EFAD
:10142C000AF0D8A024EF0AF0082AD8B4002AD8B4BD
:10143C00012AD8B4022A02BE4EEF0AF00AAE4AEFD5
:10144C000AF0021E011E001E081E082AD8B4002A2B
:10145C00D8B4012AD8B4022A4AEF0AF0026A016A07
:10146C00006A086A4AEF0AF00B800BAE55EF0AF0DF
:10147C00026A0AAE55EF0AF0026E016E006E086E3B
:10148C000A36023255EF0AF00C6A000E56EF0AF0DB
:10149C00010E0C6E000E36EC01F056EF0AF0FF0E4A
:1014AC000250036E0150026E0050016E0850006E27
:0214BC0012001C
:1014BE006E0E0101F95DD8A0CAD0640E046EF9C19A
:1014CE0000F027EC01F0120E0024056E066A000EE5
:1014DE00062205C000F006C001F0000E06BEFF0E8B
:1014EE00026E036E00360090013602360336003669
:1014FE000090013602360336960E0024F66E480E24
:10150E000120F76E000E0220F86E0900F5CF00F0F4
:10151E000900F5CF01F00900F5CF02F00900F5CF73
:10152E0003F0000E046E000E056E000E066E7E0EAB
:10153E00076E44EC01F000C0FAF101C0FBF102C0ED
:10154E00FCF103C0FDF1640E046EF9C100F027EC4E
:10155E0001F008C000F00A0E046E27EC01F0090E2F
:10156E000024056E066A000E062205C000F006C0B5
:10157E0001F0000E06BEFF0E026E036E00360090E6
:10158E000136023603360036009001360236033637
:10159E00960E0024F66E480E0120F76E000E022005
:1015AE00F86E0900F5CF00F00900F5CF01F0090043
:1015BE00F5CF02F00900F5CF03F0FAC104F0FBC13C
:1015CE0005F0FCC106F0FDC107F044EC01F000C0CF
:1015DE00FAF101C0FBF102C0FCF103C0FDF10A0EED
:1015EE00046EF9C100F027EC01F008C000F000C055
:1015FE0001F0000E026E036E046E0136019002368B
:10160E000336043601360190023603360436960E42
:10161E000124F66E480E0220F76E000E0320F86EBF
:10162E000900F5CF00F00900F5CF01F00900F5CF64
:10163E0002F00900F5CF03F0FAC104F0FBC105F08A
:10164E00FCC106F0FDC107F044EC01F01200F951A7
:10165E000A087EE20A0E046EF9C100F027EC01F0D2
:10166E00090E0024056E066A000E062205C000F063
:10167E0006C001F0000E06BEFF0E026E036E0036AF
:10168E0000900136023603360036009001360236DF
:10169E000336960E0024F66E480E0120F76E000EED
:1016AE000220F86E0900F5CF00F00900F5CF01F029
:1016BE000900F5CF02F00900F5CF03F0000E046E1D
:1016CE00000E056E000E066E7E0E076E44EC01F0E7
:1016DE0000C0FAF101C0FBF102C0FCF103C0FDF144
:1016EE000A0E046EF9C100F027EC01F008C000F0FC
:1016FE0000C001F0000E026E036E046E0136019002
:10170E0002360336043601360190023603360436AD
:10171E00960E0124F66E480E0220F76E000E032080
:10172E00F86E0900F5CF00F00900F5CF01F00900C1
:10173E00F5CF02F00900F5CF03F0FAC104F0FBC1BA
:10174E0005F0FCC106F0FDC107F044EC01F01200FB
:10175E00F9C100F0000E016E026E036E00360090AD
:10176E000136023603360036009001360236033655
:10177E00960E0024F66E480E0120F76E000E022023
:10178E00F86E0900F5CF00F00900F5CF01F0090061
:10179E00F5CF02F00900F5CF03F0000E046E000E37
:1017AE00056E000E066E7E0E076E44EC01F0120002
:1017BE000B6A0A6A096A086A0E6A0334083604500C
:1017CE00085E0550D8A0053C095E0650D8A0063C20
:1017DE000A5E0750D8A0073C0B5EE86AD8A0010E3F
:1017EE000E5E0336070E0C6E0334083609360A36C3
:1017FE000B360E36045003A012D0085E0550D8A04A
:10180E00053C095E0650D8A0063C0A5E0750D8A0DB
:10181E00073C0B5EE86AD8A0010E0E5E11D00826BA
:10182E000550D8B0053C09260650D8B0063C0A260D
:10183E000750D8B0073C0B26E86AD8B0010E0E262A
:10184E0003360C2ED1D70234083609360A360B363B
:10185E000E36045003A012D0085E0550D8A0053CE9
:10186E00095E0650D8A0063C0A5E0750D8A0073C79
:10187E000B5EE86AD8A0010E0E5E11D00826055048
:10188E00D8B0053C09260650D8B0063C0A260750AB
:10189E00D8B0073C0B26E86AD8B0010E0E260236E9
:1018AE00070E0C6E0234083609360A360B360E3623
:1018BE00045002A012D0085E0550D8A0053C095E67
:1018CE000650D8A0063C0A5E0750D8A0073C0B5E17
:1018DE00E86AD8A0010E0E5E11D008260550D8B0C9
:1018EE00053C09260650D8B0063C0A260750D8B04B
:1018FE00073C0B26E86AD8B0010E0E2602360C2ED7
:10190E00D1D70134083609360A360B360E36045056
:10191E0002A012D0085E0550D8A0053C095E065004
:10192E00D8A0063C0A5E0750D8A0073C0B5EE86ABA
:10193E00D8A0010E0E5E11D008260550D8B0053C79
:10194E0009260650D8B0063C0A260750D8B0073CE8
:10195E000B26E86AD8B0010E0E260136070E0C6E65
:10196E000134083609360A360B360E36045001A0FD
:10197E0012D0085E0550D8A0053C095E0650D8A0CE
:10198E00063C0A5E0750D8A0073C0B5EE86AD8A05A
:10199E00010E0E5E11D008260550D8B0053C092662
:1019AE000650D8B0063C0A260750D8B0073C0B2686
:1019BE00E86AD8B0010E0E2601360C2ED1D70034AF
:1019CE00083609360A360B360E36045001A012D0F0
:1019DE00085E0550D8A0053C095E0650D8A0063C0E
:1019EE000A5E0750D8A0073C0B5EE86AD8A0010E2D
:1019FE000E5E11D008260550D8B0053C09260650BB
:101A0E00D8B0063C0A260750D8B0073C0B26E86A29
:101A1E00D8B0010E0E260036070E0C6E00340836B6
:101A2E0009360A360B360E36045000A012D0085E68
:101A3E000550D8A0053C095E0650D8A0063C0A5EAB
:101A4E000750D8A0073C0B5EE86AD8A0010E0E5EC8
:101A5E0011D008260550D8B0053C09260650D8B03E
:101A6E00063C0A260750D8B0073C0B26E86AD8B0C9
:101A7E00010E0E2600360C2ED1D700B00ED004501B
:101A8E0008260550D8B0053C09260650D8B0063CAD
:0C1A9E000A260750D8B0073C0B261200A7
:0E1AAA00ACB202D00000FCD7D2C1ADFF1200DA
:101AB8000101F16BF26BDE6BDF6BD4C100F0D5C1B5
:101AC80001F0D6C102F0010ED427000ED523D6238B
:101AD80000C0F6FF01C0F7FF02C0F8FF0900F5CF0C
:101AE80000F000C0DBF10052D8B470EF1DF0DB51FC
:101AF800250A0BE0D2C1E1FFD3C1E2FFDBC1E6FF5B
:101B0800D24BD32BF14BF22BD8D7DC6BDD6BDE6BD2
:101B1800DF6B23D0DE87010ED427000ED523D62312
:101B280059D0DE81010ED427000ED523D62352D0FA
:101B3800DE83010ED427000ED523D6234BD0DF87B2
:101B4800010ED427000ED523D62344D0DE85010EFE
:101B5800D427000ED523D6233DD0D4C1F6FFD5C156
:101B6800F7FFD6C1F8FF0900F5CF01F001502D0AA3
:101B7800D1E0D4C1F6FFD5C1F7FFD6C1F8FF0900FF
:101B8800F5CF01F00150200ACCE0D4C1F6FFD5C151
:101B9800F7FFD6C1F8FF0900F5CF01F001502B0A75
:101BA800C7E0D4C1F6FFD5C1F7FFD6C1F8FF0900D9
:101BB800F5CF01F00150230AC2E0D4C1F6FFD5C128
:101BC800F7FFD6C1F8FF0900F5CF01F00150300A40
:101BD800BDE001D09ED7DEA301D0DE91DEA701D003
:101BE800DE95D4C1F6FFD5C1F7FFD6C1F8FF0900CD
:101BF800F5CF00F0000E016E00C0F9F1F6EC04F02C
:101C0800005236E0DC6BDD6BDCC100F0DDC101F0B9
:101C18000A0E046E000E056E02EC05F0D4C1F6FF44
:101C2800D5C1F7FFD6C1F8FF0900F5CF02F0025081
:101C38000024DC6F000E0120DD6F300EDC5F000E2B
:101C4800DD5B010ED427000ED523D623D4C1F6FFC1
:101C5800D5C1F7FFD6C1F8FF0900F5CF00F0000E97
:101C6800016E00C0F9F1F6EC04F00052CDE133D07A
:101C7800D4C1F6FFD5C1F7FFD6C1F8FF0900F5CFEB
:101C880001F001502A0A27E1D7C1E9FFD8C1EAFFCC
:101C9800EECF00F0EECF01F000C0E9FF01C0EAFF8F
:101CA800EECFDCF1EECFDDF1D7C1E9FFD8C1EAFF15
:101CB800020EEE24006E000EEE20016ED7C1E1FF89
:101CC800D8C1E2FF00C0E6FF01C0E6FF010ED4273D
:101CD800000ED523D623D4C1F6FFD5C1F7FFD6C150
:101CE800F8FF0900F5CF01F001502E0A70E1010E4E
:101CF800D427000ED523D623D4C1F6FFD5C1F7FFCC
:101D0800D6C1F8FF0900F5CF01F001502A0A28E1F1
:101D1800D7C1E9FFD8C1EAFFEECF00F0EECF01F05E
:101D280000C0E9FF01C0EAFFEECFD9F1EECFDAF14A
:101D3800D7C1E9FFD8C1EAFF020EEE24006E000EFB
:101D4800EE20016ED7C1E1FFD8C1E2FF00C0E6FF77
:101D580001C0E6FF010ED427000ED523D62336D0C6
:101D6800D96BDA6BD4C1F6FFD5C1F7FFD6C1F8FF3E
:101D78000900F5CF00F0000E016E00C0F9F1F6EC95
:101D880004F0005223E0D9C100F0DAC101F00A0ED4
:101D9800046E000E056E02EC05F0D4C1F6FFD5C145
:101DA800F7FFD6C1F8FF0900F5CF02F00250002472
:101DB800D96F000E0120DA6F300ED95F000EDA5BA2
:101DC800010ED427000ED523D623CCD703D0D96B48
:101DD800DA6BDF89D4C100F0D5C101F0D6C102F0B9
:101DE800010ED427000ED523D62300C0F6FF01C06C
:101DF800F7FF02C0F8FF0900F5CFDBF105D1F1C10B
:101E080000F0F2C101F01200DE89E4D7DF8537D196
:101E1800DE8BDF8134D1DF8332D1DE8D30D12FD11B
:101E2800DE8BDE8F2CD1D7C1E9FFD8C1EAFFEECF18
:101E380000F0EECF01F000C0E9FF01C0EAFFEECFED
:101E4800E6F1EECFE7F1D7C1E9FFD8C1EAFF020E0C
:101E5800EE24006E000EEE20016ED7C1E1FFD8C15E
:101E6800E2FF00C0E6FF01C0E6FF000EE71902E14D
:101E7800000EE61911E1280EEA6F6E0EEB6F750E73
:101E8800EC6F6C0EED6F6C0EEE6F290EEF6FF06B52
:101E9800EA0EE66F010EE76FE86BE96BE851E6259D
:101EA800E96EE951E721EA6EEE520BE0010EE825F2
:101EB800006E000EE921016E00C0E8F101C0E9F1F1
:101EC800EDD7D951DA110AE0E951DA5D02E1E851BA
:101ED800D95D04E2D9C1E8F1DAC1E9F1DD51E95D82
:101EE80002E1DC51E85D05E2E851DC5FE951DD5BC8
:101EF80002D0DC6BDD6BDEB716D0DCC100F0DDC1D3
:101F080001F0010EDC5F000EDD5B005001100BE0FC
:101F1800D2C1E1FFD3C1E2FF200EE66ED24BD32B34
:101F2800F14BF22BEAD7E8C102F0E9C103F0010E48
:101F3800E85D006E000EE959016E00C0E8F101C0CD
:101F4800E9F10250031019E0E6C1E9FFE7C1EAFF31
:101F5800D2C1E1FFD3C1E2FFEECFE6FFD24BD32BD4
:101F6800010EE625006E000EE721016E00C0E6F1C5
:101F780001C0E7F1F14BF22BD6D7DEA716D0DCC1B2
:101F880000F0DDC101F0010EDC5F000EDD5B0050EA
:101F980001100BE0D2C1E1FFD3C1E2FF200EE66ED3
:101FA800D24BD32BF14BF22BEAD787D5D7C1E9FF18
:101FB800D8C1EAFFEECF00F0EECF01F000C0E9FF94
:101FC80001C0EAFFEECFDBF1D7C1E9FFD8C1EAFFD4
:101FD800020EEE24006E000EEE20016ED7C1E1FF66
:101FE800D8C1E2FF00C0E6FF01C0E6FFDB0EE66FE6
:101FF800010EE76F010EE86F000EE96F62D7C00EA1
:10200800DE13000EDF133BD0DB51000AD8B4F7D63D
:10201800DB516C0AD8B4F8D6DB51660AD8B4F6D6C8
:10202800DB51450AD8B4F4D6DB51650AD8B4F1D6E9
:10203800DB51670AD8B4EFD6DB516F0AD8B4EDD6B6
:10204800DB51640AD8B4EBD6DB51690AD8B4E7D6B9
:10205800DB51700AD8B4E4D6DB51580AD8B4E0D6BC
:10206800DB51780AD8B4DDD6DB51730AD8B4DBD695
:10207800DB51630A9BE0DB51750AC1E0B7D7000E5C
:10208800DE15006EDF51070B016E00500110D8B449
:102098001BEF19F0DFA904D0060ED96F000EDA6F16
:1020A800D7C1E9FFD8C1EAFFEECF00F0EECF01F0CB
:1020B80000C0E9FF01C0EAFFEECFE0F1EECFE1F1A9
:1020C800EECFE2F1EECFE3F1D7C1E9FFD8C1EAFFE5
:1020D800040EEE24006E000EEE20016ED7C1E1FF63
:1020E800D8C1E2FF00C0E6FF01C0E6FF046A056A46
:1020F800066A076AE0C100F0E1C101F0E2C102F03E
:10210800E3C103F078EC04F0010ED8B0000E006EC5
:10211800005205E0E27F030EDE13000EDF13E46BCE
:10212800E56BE0C100F0E1C101F0E2C102F0E3C1FA
:1021380003F0046A056A066A076ADFEC04F0000E19
:10214800D8A4010E006E0052D8B48AD0E3C100F0C2
:10215800016A026A036AFF0E0016000E01167E0E5F
:10216800005E000E015A00C0E4F101C0E5F1010E65
:10217800005E000E015A00C0E4F101C0E5F1030E53
:10218800046E000E056E02EC05F000C0E4F101C01B
:10219800E5F10A0E046E000E056E84EC06F000C030
:1021A800E4F101C0E5F1800E0118026E800E025CB8
:1021B80002E1000E005C05E2010E0101E45F000E81
:1021C800E55B0101E4510008F96FE8EC06F0E0C1B5
:1021D80004F0E1C105F0E2C106F0E3C107F044EC08
:1021E80001F000C0E6F101C0E7F102C0E8F103C068
:1021F800E9F1000E046E000E056E000E066E7F0EED
:10220800076EE6C100F0E7C101F0E8C102F0E9C1DC
:1022180003F078EC04F0010ED8B0000E006E005206
:1022280005E0010EE45F000EE55B1AD0000E046EB7
:10223800000E056E200E066E820E076EE6C100F0D7
:10224800E7C101F0E8C102F0E9C103F078EC04F05D
:10225800000ED8B0010E006E005202E0E44BE52BF0
:10226800800E006E800EE519005C02E1E451000862
:1022780003E3010EDB6F02D0E4C1DBF1DFB118D05C
:10228800DFA315D0800EE519006E7F0E005C02E119
:10229800FC0EE45D0BE3800EE519006E800EDA1982
:1022A800005C02E1D951E45D01E201D001D0F1D333
:1022B800D951DA1106E0DFA304D0010ED95F000E70
:1022C800DA5B000E006EDA51005C02E1D9510808B1
:1022D80003E2080EDB6F02D0D9C1DBF1E0C100F0E8
:1022E800E1C101F0E2C102F0E3C103F0046A056A4A
:1022F800066A076ADFEC04F0000ED8A4010E006E2F
:102308000052D8B44BD1E4C1F9F1E8EC06F000C0B2
:1023180004F001C005F002C006F003C007F0E0C1F8
:1023280000F0E1C101F0E2C102F0E3C103F02AECE0
:1023380005F000C0E0F101C0E1F102C0E2F103C024
:10234800E3F10101DB510008F96FE8EC06F000C089
:1023580004F001C005F002C006F003C007F0E0C1B8
:1023680000F0E1C101F0E2C102F0E3C103F02AECA0
:1023780005F000C0F3F101C0F4F102C0F5F103C0AB
:10238800F6F1F3C1E0F1F4C1E1F1F5C1E2F1F6C112
:10239800E3F1F3C100F0F4C101F0F5C102F0F6C1B8
:1023A80003F0E8EC05F065EC04F000C004F001C0AF
:1023B80005F002C006F003C007F0F3C100F0F4C155
:1023C80001F0F5C102F0F6C103F062EC04F0000E72
:1023D800046E000E056E000E066E7E0E076E78EC1B
:1023E80004F0000ED8B0010E006E00521AE0E0C1F1
:1023F80000F0E1C101F0E2C102F0E3C103F0000E18
:10240800046E000E056E000E066E7E0E076E4FEC13
:1024180002F000C0E0F101C0E1F102C0E2F103C046
:10242800E3F1E0C100F0E1C101F0E2C102F0E3C173
:1024380003F0E8EC05F00101DB51010F096E0A6AAF
:10244800000E0A2209C004F00AC005F0000E0ABEF8
:10245800FF0E066E076E04360490053606360736FC
:1024680004360490053606360736FA0E0424F66E4E
:10247800480E0520F76E000E0620F86E0900F5CF0D
:1024880005F00900F5CF06F00900F5CF07F00900BF
:10249800F5CF08F00850035C08E10750025C05E13D
:1024A8000650015C02E10550005C1EE30101E0C139
:1024B80000F0E1C101F0E2C102F0E3C103F0CD0E8A
:1024C800046ECC0E056E4C0E066E7B0E076E44EC49
:1024D80001F000C0E0F101C0E1F102C0E2F103C087
:1024E800E3F1E44BE52B5AD0E0C100F0E1C101F083
:1024F800E2C102F0E3C103F0E8EC05F0DBC104F04F
:10250800000E056E066E076E043604900536063614
:10251800073604360490053606360736FA0E0424C4
:10252800F66E480E0520F76E000E0620F86E0900BC
:10253800F5CF05F00900F5CF06F00900F5CF07F053
:102548000900F5CF08F00850035C08E10750025C69
:1025580005E10650015C02E10550005C1FE2010143
:10256800E0C100F0E1C101F0E2C102F0E3C103F013
:10257800000E046E000E056E200E066E820E076EAB
:1025880044EC01F000C0E0F101C0E1F102C0E2F169
:1025980003C0E3F1010EE45F000EE55B0101DFA378
:1025A80093D0DFB791D0800E000A006E800EDA1942
:1025B800005C02E1D9510A0804E20A0ED96F000E44
:1025C800DA6FE0C100F0E1C101F0E2C102F0E3C15D
:1025D80003F0E8EC05F000C0E6F101C0E7F102C045
:1025E800E8F103C0E9F1E651E711E811E91142E029
:1025F8000A0E046E000E056E066E076EE6C100F048
:10260800E7C101F0E8C102F0E9C103F0DFEC0BF02B
:1026180008C000F009C001F00AC002F00BC003F0C6
:10262800000E046E031808E10450021805E1045076
:10263800011802E10050000A1DE1010ED95F000EE9
:10264800DA5B0A0E046E000E056E066E076EE6C1B2
:1026580000F0E7C101F0E8C102F0E9C103F0DFECE6
:102668000BF000C0E6F101C0E7F102C0E8F103C0D9
:10267800E9F1B9D7800EDA19006E800E005C02E12C
:10268800DB51D95D21E2D951DB5DF96FE8EC06F049
:1026980000C004F001C005F002C006F003C007F056
:1026A800E0C100F0E1C101F0E2C102F0E3C103F0D2
:1026B8002AEC05F000C0E0F101C0E1F102C0E2F14E
:1026C80003C0E3F1D9C1DBF1050E0101D925006E84
:1026D800000EDA21016E0050DC5F0150DD5BD9513C
:1026E800DA1103E1DFB701D004D0010EDC5F000E80
:1026F800DD5B030EDE15006EDFC101F0000E011672
:102708000050011004E0010EDC5F000EDD5BDEA569
:1027180039D0DEA312D0DEA103D02D0E006E02D078
:102728002B0E006ED2C1E1FFD3C1E2FF00C0E6FF6D
:10273800D24BD32BF14BF22B0CD0DEA10AD0D2C155
:10274800E1FFD3C1E2FF200EE66ED24BD32BF14B53
:10275800F22B800E006E800EDD19005C02E1DC5168
:1027680000080FE2D2C1E1FFD3C1E2FF300EE66EEE
:10277800D24BD32BF14BF22B010EDC5F000EDD5B4D
:10278800E8D73AD0DEB718D0800E006E800EDD197B
:10279800005C02E1DC5100080FE2D2C1E1FFD3C1C5
:1027A800E2FF200EE66ED24BD32BF14BF22B010E3B
:1027B800DC5F000EDD5BE8D7DEA312D0DEA103D01C
:1027C8002D0E006E02D02B0E006ED2C1E1FFD3C1D8
:1027D800E2FF00C0E6FFD24BD32BF14BF22B0CD01B
:1027E800DEA10AD0D2C1E1FFD3C1E2FF200EE66E1E
:1027F800D24BD32BF14BF22BE0C100F0E1C101F039
:10280800E2C102F0E3C103F0E8EC05F000C0E6F134
:1028180001C0E7F102C0E8F103C0E9F1DBC100F053
:10282800000E016E026E036E00360090013602360D
:10283800033600360090013602360336FA0E0024BD
:10284800F66E480E0120F76E000E0220F86E0900A1
:10285800F5CF04F00900F5CF05F00900F5CF06F033
:102868000900F5CF07F0E6C100F0E7C101F0E8C1C3
:1028780002F0E9C103F0DFEC0BF0300E0026D2C104
:10288800E1FFD3C1E2FF00C0E6FFD24BD32BF14BEF
:10289800F22BD951DA1103E1DFB701D06FD0D2C1E1
:1028A800E1FFD3C1E2FF2E0EE66ED24BD32BF14BE4
:1028B800F22BDB51D95F000EDA5BDB534DE0DB070F
:1028C800DBC100F0000E016E026E036E0036009050
:1028D80001360236033600360090013602360336DA
:1028E800FA0E0024F66E480E0120F76E000E022044
:1028F800F86E0900F5CF04F00900F5CF05F00900DE
:10290800F5CF06F00900F5CF07F0E6C100F0E7C102
:1029180001F0E8C102F0E9C103F0DFEC0BF00A0EA8
:10292800046E000E056E066E076EDFEC0BF008C035
:1029380000F009C001F00AC002F00BC003F0300E2D
:102948000026D2C1E1FFD3C1E2FF00C0E6FFD24BAF
:10295800D32BF14BF22BB1D7D951DA110FE0D2C1F9
:10296800E1FFD3C1E2FF300EE66ED24BD32BF14B21
:10297800F22B010ED95F000EDA5BEED7DEAB0BD07F
:10298800D2C1E1FFD3C1E2FF450EE66ED24BD32B95
:10299800F14BF22B0AD0D2C1E1FFD3C1E2FF650EA1
:1029A800E66ED24BD32BF14BF22B800EE519006E5D
:1029B800800E005C02E1000EE45D11E2E4510008C3
:1029C800E46FE551000EE557D2C1E1FFD3C1E2FF44
:1029D8002D0EE66ED24BD32BF14BF22B0AD0D2C17F
:1029E800E1FFD3C1E2FF2B0EE66ED24BD32BF14BA6
:1029F800F22B0A0E046E000E056EE4C100F0E5C16C
:102A080001F084EC06F0300E0026D2C1E1FFD3C1FC
:102A1800E2FF00C0E6FF0101D24BD32BF14BF22BB2
:102A28000A0E046E000E056EE4C100F0E5C101F067
:102A380084EC06F008C000F009C001F0300E002652
:102A4800D2C1E1FFD3C1E2FF00C0E6FF0101D24BD2
:102A5800D32BF14BF22BDEA71AD0800E006E800E1E
:102A6800DD19005C02E1DC51000811E2D2C1E1FF8E
:102A7800D3C1E2FF200EE66ED24BD32BF14BF22BE3
:102A8800010EDC5F000EDD5BDC51DD11EFE161EF73
:102A98000DF0DFA3F3D0800EE519006E800E005C08
:102AA80002E1000EE45D0AE2010EE45D006E000E34
:102AB800E559016E0050D95F0150DA5BE0C100F0C2
:102AC800E1C101F0E2C102F0E3C103F0E8EC05F076
:102AD80000C0E6F101C0E7F102C0E8F103C0E9F186
:102AE800010EDB6FDB510A0A34E0DBC100F0000E97
:102AF800016E026E036E0036009001360236033610
:102B080000360090013602360336FA0E0024F66EBF
:102B1800480E0120F76E000E0220F86E0900F5CF6E
:102B280001F00900F5CF02F00900F5CF03F0090024
:102B3800F5CF04F00450E95D08E10350E85D05E1D4
:102B48000250E75D02E10150E65D01E202D0DB2BB5
:102B5800C9D7DB51D95DF76F000EDA59F86FF7C1A5
:102B6800D9F1F8C1DAF1E6C100F0E7C101F0E8C136
:102B780002F0E9C103F065EC04F000C004F001C004
:102B880005F002C006F003C007F0E0C100F0E1C1A3
:102B980001F0E2C102F0E3C103F062EC04F000C00E
:102BA800F3F101C0F4F102C0F5F103C0F6F1F7C189
:102BB800F9F1E8EC06F0F3C104F0F4C105F0F5C151
:102BC80006F0F6C107F044EC01F0000E046E000EAA
:102BD800056E000E066E7E0E076E4FEC02F0E8ECF6
:102BE80005F000C0E6F101C0E7F102C0E8F103C05A
:102BF800E9F1D951DA1142E00A0E046E000E056EB1
:102C0800066E076EE6C100F0E7C101F0E8C102F008
:102C1800E9C103F0DFEC0BF008C000F009C001F0D7
:102C28000AC002F00BC003F0000E046E031808E19E
:102C38000450021805E10450011802E10050000A8E
:102C48001DE10A0E046E000E056E066E076EE6C1E3
:102C580000F0E7C101F0E8C102F0E9C103F0DFECE0
:102C68000BF000C0E6F101C0E7F102C0E8F103C0D3
:102C7800E9F1010ED95F000EDA5BBBD7800E006E5A
:102C8800800EDA19005C02E1D9510C0816E3D9C1AB
:102C9800F9F15FEC0AF0E0C104F0E1C105F0E2C12E
:102CA80006F0E3C107F04FEC02F000C0E0F101C00C
:102CB800E1F102C0E2F103C0E3F1E0C100F0E1C1DB
:102CC80001F0E2C102F0E3C103F0046A056A066A92
:102CD800076ADFEC04F0000ED8A4010E006E005263
:102CE800D8B477D0E0C100F0E1C101F0E2C102F050
:102CF800E3C103F0E8EC05F0000E046E031808E1E8
:102D08000450021805E10450011802E10050000ABD
:102D180060E1800E006E800EE519005C02E1E4516E
:102D2800010857E2E4C1F9F1E8EC06F000C004F04C
:102D380001C005F002C006F003C007F0E0C100F0D2
:102D4800E1C101F0E2C102F0E3C103F02AEC05F0B1
:102D58005F0E046E700E056E090E066E810E076E0C
:102D680078EC04F0010ED8B0000E006E005206E0B8
:102D7800090E0101E45F000EE55B05D00101080EB4
:102D8800E45F000EE55BE4C1F9F1E8EC06F000C091
:102D980004F001C005F002C006F003C007F0E0C16E
:102DA80000F0E1C101F0E2C102F0E3C103F02AEC56
:102DB80005F0E8EC05F000C0E6F101C0E7F102C05B
:102DC800E8F103C0E9F10101E06BE16BE26BE36B51
:102DD80038D0E0C100F0E1C101F0E2C102F0E3C186
:102DE80003F0E8EC05F000C0E6F101C0E7F102C02D
:102DF800E8F103C0E9F1E6C100F0E7C101F0E8C17C
:102E080002F0E9C103F065EC04F000C004F001C071
:102E180005F002C006F003C007F0E0C100F0E1C110
:102E280001F0E2C102F0E3C103F062EC04F000C07B
:102E3800E0F101C0E1F102C0E2F103C0E3F1E46BAB
:102E4800E56B010EDB6FDB510A0A34E0DBC100F0F1
:102E5800000E016E026E036E0036009001360236D7
:102E6800033600360090013602360336FA0E002487
:102E7800F66E480E0120F76E000E0220F86E09006B
:102E8800F5CF01F00900F5CF02F00900F5CF03F006
:102E98000900F5CF04F00450E95D08E10350E85D4E
:102EA80005E10250E75D02E10150E65D01E202D072
:102EB800DB2BC9D7DB51D925006E000EDA21016E54
:102EC800E4510026E55101220050DC5F0150DD5B32
:102ED800DFB704D0D951DA1101E104D0010EDC5F6B
:102EE800000EDD5B030EDE15006EDFC101F0000E83
:102EF80001160050011004E0010EDC5F000EDD5BDE
:102F0800DEA539D0DEA312D0DEA103D02D0E006ECF
:102F180002D02B0E006ED2C1E1FFD3C1E2FF00C088
:102F2800E6FFD24BD32BF14BF22B0CD0DEA10AD00B
:102F3800D2C1E1FFD3C1E2FF200EE66ED24BD32B04
:102F4800F14BF22B800E006E800EDD19005C02E161
:102F5800DC5100080FE2D2C1E1FFD3C1E2FF300E1D
:102F6800E66ED24BD32BF14BF22B010EDC5F000E39
:102F7800DD5BE8D73AD0DEB718D0800E006E800E41
:102F8800DD19005C02E1DC5100080FE2D2C1E1FF6B
:102F9800D3C1E2FF200EE66ED24BD32BF14BF22BBE
:102FA800010EDC5F000EDD5BE8D7DEA312D0DEA1E8
:102FB80003D02D0E006E02D02B0E006ED2C1E1FFA1
:102FC800D3C1E2FF00C0E6FFD24BD32BF14BF22B6B
:102FD8000CD0DEA10AD0D2C1E1FFD3C1E2FF200E9E
:102FE800E66ED24BD32BF14BF22BDBC100F0DB07A3
:102FF80000524CE0DBC100F0000E016E026E036E61
:10300800003600900136023603360036009001364D
:1030180002360336FA0E0024F66E480E0120F76ECB
:10302800000E0220F86E0900F5CF04F00900F5CF74
:1030380005F00900F5CF06F00900F5CF07F0E6C165
:1030480000F0E7C101F0E8C102F0E9C103F0DFECEC
:103058000BF00A0E046E000E056E066E076EDFECAE
:103068000BF008C000F009C001F00AC002F00BC064
:1030780003F0300E0026D2C1E1FFD3C1E2FF00C049
:10308800E6FFD24BD32BF14BF22BAFD7800E006E5D
:10309800800EE519005C02E1E45100080FE2D2C19C
:1030A800E1FFD3C1E2FF300EE66ED24BD32BF14BDA
:1030B800F22B010EE45F000EE55BE8D7800E000AF4
:1030C800006E800EDA19005C02E1D951080803E2AB
:1030D800080EDB6F02D0D9C1DBF1DB51D95F000EDE
:1030E800DA5BDB5303E1DFB701D00AD0D2C1E1FFDD
:1030F800D3C1E2FF2E0EE66ED24BD32BF14BF22B4F
:10310800DBC1F9F1E8EC06F0E0C104F0E1C105F03B
:10311800E2C106F0E3C107F044EC01F0C6EC09F0A7
:1031280000C0E6F101C0E7F102C0E8F103C0E9F12F
:10313800DB534DE0DB07DBC100F0000E016E026ED1
:10314800036E0036009001360236033600360090D2
:10315800013602360336FA0E0024F66E480E0120B8
:10316800F76E000E0220F86E0900F5CF04F0090092
:10317800F5CF05F00900F5CF06F00900F5CF07F007
:10318800E6C100F0E7C101F0E8C102F0E9C103F0CF
:10319800DFEC0BF00A0E046E000E056E066E076E6D
:1031A800DFEC0BF008C000F009C001F00AC002F023
:1031B8000BC003F0300E0026D2C1E1FFD3C1E2FFFD
:1031C80000C0E6FFD24BD32BF14BF22BB1D7D9512C
:1031D800DA110FE0D2C1E1FFD3C1E2FF300EE66E93
:1031E800D24BD32BF14BF22B010ED95F000EDA5BD9
:1031F800EED7DEA71AD0800E006E800EDD19005CB7
:1032080002E1DC51000811E2D2C1E1FFD3C1E2FFC3
:10321800200EE66ED24BD32BF14BF22B010EDC5F66
:10322800000EDD5BDC51DD11EFE161EF0DF0C00E4A
:10323800DE15016EDFC102F0000E0216000E021844
:1032480002E1000E0118D8A47CD0DEA927D0D7C18E
:10325800E9FFD8C1EAFFEECF00F0EECF01F000C0E1
:10326800E9FF01C0EAFFEECFE6F1EECFE7F1EECFDE
:10327800E8F1EECFE9F1D7C1E9FFD8C1EAFF040EC2
:10328800EE24006E000EEE20016ED7C1E1FFD8C11A
:10329800E2FF00C0E6FF01C0E6FF2BD0D7C1E9FF7F
:1032A800D8C1EAFFEECF00F0EECF01F000C0E9FF91
:1032B80001C0EAFFEECF00F0EECF01F000C0E6F16A
:1032C80001C0E7F1000E01BEFF0EE86FE96FD7C13C
:1032D800E9FFD8C1EAFF020EEE24006E000EEE20D0
:1032E800016ED7C1E1FFD8C1E2FF00C0E6FF01C00F
:1032F800E6FF800EE919006E800E005C08E1000E02
:10330800E85D05E1000EE75D02E1000EE65D18E20A
:10331800030EDE13000EDF13006A016A026A036AF5
:10332800E651005EE751015AE851025AE951035A41
:1033380000C0E6F101C0E7F102C0E8F103C0E9F11D
:103348004ED0DEA927D0D7C1E9FFD8C1EAFFEECF1A
:1033580000F0EECF01F000C0E9FF01C0EAFFEECFB8
:10336800E6F1EECFE7F1EECFE8F1EECFE9F1D7C124
:10337800E9FFD8C1EAFF040EEE24006E000EEE202D
:10338800016ED7C1E1FFD8C1E2FF00C0E6FF01C06E
:10339800E6FF25D0D7C1E9FFD8C1EAFFEECF00F09C
:1033A800EECF01F000C0E9FF01C0EAFFEECFE6F181
:1033B800EECFE7F1000EE86FE96FD7C1E9FFD8C19A
:1033C800EAFF020EEE24006E000EEE20016ED7C159
:1033D800E1FFD8C1E2FF00C0E6FF01C0E6FF000E32
:1033E800DA1902E1000ED9190FE1000E006EE91991
:1033F80008E10050E81905E10050E71902E1E6513B
:10340800000A02E1D94BDA2BC00EDE15006E00C0AF
:1034180005F0AED0010EDB6FDB510A0A34E0DBC1E8
:1034280000F0000E016E026E036E00360090013649
:103438000236033600360090013602360336FA0E9D
:103448000024F66E480E0120F76E000E0220F86E7A
:103458000900F5CF01F00900F5CF02F00900F5CF1A
:1034680003F00900F5CF04F00450E95D08E10350CA
:10347800E85D05E10250E75D02E10150E65D01E229
:1034880002D0DB2BC9D782D0010EDB6FDB51080AD3
:1034980034E0DBC100F0000E016E026E036E0036F0
:1034A80000900136023603360036009001360236A7
:1034B8000336220E0024F66E490E0120F76E000E28
:1034C8000220F86E0900F5CF01F00900F5CF02F0EF
:1034D8000900F5CF03F00900F5CF04F00450E95DC9
:1034E80008E10350E85D05E10250E75D02E10150A3
:1034F800E65D01E202D0DB2BC9D748D0010EDB6FB5
:10350800DB510C0A34E0DBC100F0000E016E026EE4
:10351800036E0036009001360236033600360090FE
:10352800013602360336CA0E0024F66E480E012014
:10353800F76E000E0220F86E0900F5CF01F00900C1
:10354800F5CF02F00900F5CF03F00900F5CF04F03C
:103558000450E95D08E10350E85D05E10250E75DCC
:1035680002E10150E65D01E202D0DB2BC9D70ED0A3
:103578000550000AD8B44ED70550C00AD8B44AD767
:103588000550800A81E00550400AB8E0800E006EC0
:10359800800EDA19005C02E1D951DB5D03E2D9C182
:1035A800DBF10DD0800EDA19006E800E005C02E1AE
:1035B800DB51D95D04E2DBC1D9F1000EDA6FDC51D1
:1035C800DD110EE0030EDE15006EDFC101F0000E06
:1035D80001160050011004E0010EDC5F000EDD5BF7
:1035E800800EDA19006E800EDD19005C02E1DC51F4
:1035F800D95D05E2D951DC5FDA51DD5B02D0DC6BC5
:10360800DD6BC40EDE15016EDF51080B026E025031
:10361800080A02E1400E011808E1DC51DD1104E05E
:10362800010EDC5F000EDD5B1CD0C00EDE15016EE6
:10363800DF51080B026E0250080A02E1800E0118E1
:1036480010E1800E006E800EDD19005C02E1DC5195
:10365800020805E2020EDC5F000EDD5B02D0DC6BC7
:10366800DD6BDEA55DD0DEA312D0DEA103D02D0E6A
:10367800006E02D02B0E006ED2C1E1FFD3C1E2FF73
:1036880000C0E6FFD24BD32BF14BF22B34D0DEA196
:103698000BD0D2C1E1FFD3C1E2FF200EE66ED24BC0
:1036A800D32BF14BF22B27D0C00EDE15016EDF5164
:1036B800080B026E0250080A02E1800E01181BE195
:1036C800D2C1E1FFD3C1E2FF300EE66ED24BD32B5D
:1036D800F14BF22BDEAB03D0580E006E02D0780E01
:1036E800006ED2C1E1FFD3C1E2FF00C0E6FFD24BBA
:1036F800D32BF14BF22BDC51DD1111E0D2C1E1FFEC
:10370800D3C1E2FF300EE66ED24BD32BF14BF22B36
:10371800010EDC5F000EDD5BDC51DD11EFE174D0E2
:10372800DC51DD1113E0DEB711D0D2C1E1FFD3C106
:10373800E2FF200EE66ED24BD32BF14BF22B010E9B
:10374800DC5F000EDD5BDC51DD11EFE1DEA312D0A2
:10375800DEA103D02D0E006E02D02B0E006ED2C15A
:10376800E1FFD3C1E2FF00C0E6FFD24BD32BF14B00
:10377800F22B0CD0DEA10AD0D2C1E1FFD3C1E2FF07
:10378800200EE66ED24BD32BF14BF22BC00EDE157A
:10379800016EDF51080B026E0250080A02E1400E6A
:1037A80001180BE1D2C1E1FFD3C1E2FF300EE66E92
:1037B800D24BD32BF14BF22B27D0C00EDE15016E66
:1037C800DF51080B026E0250080A02E1800E011850
:1037D8001BE1D2C1E1FFD3C1E2FF300EE66ED24B4E
:1037E800D32BF14BF22BDEAB03D0580E006E02D078
:1037F800780E006ED2C1E1FFD3C1E2FF00C0E6FF40
:10380800D24BD32BF14BF22B800E006E800EDA19BF
:10381800005C02E1D951DB5D0BE2D2C1E1FFD3C10B
:10382800E2FF300EE66ED24BD32BF14BF22BECD7E6
:10383800D9C100F0DAC101F0010ED95F000EDA5BE0
:1038480000500110D8B42AD1C00EDE15006E00C099
:10385800F3F10AD1D9C100F0DAC101F0000EDABFE4
:10386800FF0E026E036E00360090013602360336F4
:1038780000360090013602360336FA0E0024F66E42
:10388800480E0120F76E000E0220F86E0900F5CFF1
:1038980004F00900F5CF05F00900F5CF06F009009E
:1038A800F5CF07F0E6C100F0E7C101F0E8C102F08A
:1038B800E9C103F0DFEC0BF00A0E046E000E056E92
:1038C800066E076EDFEC0BF008C000F009C001F0CF
:1038D8000AC002F00BC003F0300E0024DB6FD3D017
:1038E800DEAB45D0D9C100F0DAC101F0000EDABF75
:1038F800FF0E026E036E0036009001360236033664
:1039080000360090013602360336220E0024F66E89
:10391800490E0120F76E000E0220F86E0900F5CF5F
:1039280004F00900F5CF05F00900F5CF06F009000D
:10393800F5CF07F0E6C100F0E7C101F0E8C102F0F9
:10394800E9C103F0DFEC0BF00F0E0016000E0116B4
:1039580002160316530E0024F66E490E0120F76E68
:10396800000E0220F86E0900F5CFDBF144D0D9C172
:1039780000F0DAC101F0000EDABFFF0E026E036E2E
:1039880000360090013602360336003600900136C4
:1039980002360336220E0024F66E490E0120F76E19
:1039A800000E0220F86E0900F5CF04F00900F5CFEB
:1039B80005F00900F5CF06F00900F5CF07F0E6C1DC
:1039C80000F0E7C101F0E8C102F0E9C103F0DFEC63
:1039D8000BF00F0E0016000E011602160316420E0B
:1039E8000024F66E490E0120F76E000E0220F86ED4
:1039F8000900F5CFDBF147D0D9C100F0DAC101F0F9
:103A0800000EDABFFF0E026E036E0036009001361C
:103A18000236033600360090013602360336CA0EE7
:103A28000024F66E480E0120F76E000E0220F86E94
:103A38000900F5CF04F00900F5CF05F00900F5CF2E
:103A480006F00900F5CF07F0E6C100F0E7C101F084
:103A5800E8C102F0E9C103F0DFEC0BF0070E001437
:103A6800DB6F300EDB270FD0F351000AD8B4F2D643
:103A7800F351C00AD8B4EED6F351800AD8B430D77F
:103A8800F351400AB9E0D2C1E1FFD3C1E2FFDBC183
:103A9800E6FFD24BD32BF14BF22BCAD6DEA71AD0B6
:103AA800800E006E800EDD19005C02E1DC5100081A
:103AB80011E2D2C1E1FFD3C1E2FF200EE66ED24B84
:103AC800D32BF14BF22B010EDC5F000EDD5BDC51DA
:103AD800DD11EFE161EF0DF0F1C100F0F2C101F08D
:023AE8001200CA
:0A3AEA00000E9EBA010E006E1200DD
:063AF400000000001200BA
:103AFA00CC0E0101D06F010ED16FC7C1D2F1C8C17E
:103B0A00D3F1C9C1D4F1CAC1D5F1CBC1D6F1D00E16
:103B1A00D76F010ED86F5CEC0DF000C0CEF101C07A
:103B2A00CFF10050C725E16E0150C821E26EE66A66
:0A3B3A00CEC100F0CFC101F012006F
:103B44000FEE82F0EF50EFCF00F0009800C0EFFFCF
:023B540012005D
:103B56000FEE82F0EF50EFCF00F0009600C0EFFFBF
:023B660012004B
:103B6800C7C1E9FFC8C1EAFFEE500101C91905E163
:103B7800C7C100F0C8C101F01200C74BC82BC7C1AC
:103B8800E9FFC8C1EAFFEECF00F00052E9E1006AA0
:043B9800016A1200AC
:103B9C00AECFACF1ABA202D0AB98AB88ACC100F00D
:023BAC00120005
:103BAE00CBC100F00101CB07005227E0C7C1E9FFEE
:103BBE00C8C1EAFFEE50000A0CE0C7C1E9FFC8C158
:103BCE00EAFFC9C1D9FFCAC1DAFFEE50DE1801E122
:103BDE000FD0C7C1E9FFC8C1EAFFC9C1D9FFCAC129
:103BEE00DAFFDE50EE5C006E016A000E015A120022
:103BFE00C74BC82BC94BCA2BD3D7006A016A120018
:103C0E000101CA6BC7C1E9FFC8C1EAFFEECFC9F116
:103C1E00C951000A0FE0C9C1D2F155EC0DF00101F6
:103C2E00CA2BCA51C725E96E000EC821EA6EEECF27
:063C3E00C9F1EED71200EF
:103C4400C7C102F0C8C103F002C000F003C001F014
:103C5400024A032A00C0E9FF01C0EAFFEE5201E074
:103C6400F3D70101C751025C006EC8510358016EBD
:0A3C7400010E005E000E015A12005E
:103C7E00010E0101C26F000EC36F800EC06F000EE9
:103C8E00C16FC051C11123E02EDF2DDF2CDF2BDFE2
:103C9E005BDF949628DF27DFC051BF15006E000E44
:103CAE00C115016E0050011002E0948802D043DF6E
:103CBE00949819DF18DF9486A79182B604D0A7A135
:103CCE0001D001D0FAD7C133C033C19FDAD7C26B4E
:103CDE00C36B09DF08DF38DF949605DF04DF9488B5
:103CEE0002DF01DF00DFFFDE9486A79182B604D0EB
:103CFE00A7A101D001D0FAD7C26BC36BF4DEF3DEFD
:103D0E0082A801D0C281EFDEEEDEEDDEECDEEBDE70
:103D1E00EADEE9DEE8DEE7DEE6DEE5DEE4DEE3DE71
:103D2E00E2DEE1DEE0DE10DF949605DF9498C2C19C
:043D3E0000F012007F
:103D420000DF9498D6DED5DE94860101A79182B673
:103D520004D0A7A101D001D0FAD7CBDECADEC9DEDA
:103D6200C8DEC7DEC6DEC5DEC4DE9488C2DEC1DEC2
:023D720012003D
:103D74009488BEDEBDDE9486BBDEBADEE1DE9498B6
:0A3D8400B7DEB6DEE6DE949612000C
:103D8E000101C56BC66BC35342E0C351FF0A01E08C
:103D9E00C307A4DE0050000A01E1FBD7F8DE00C025
:103DAE00C4F10101C551BF25E16E000EC021E26EC6
:103DBE0000C0E6FFC52BC651C125E96E000EC2211B
:103DCE00EA6EEE50C41902E1C62B09D0C66BC1C112
:103DDE00E9FFC2C1EAFFEE50C41901E1C62BC6517C
:103DEE00C125E96E000EC221EA6EEE50000A0EE108
:103DFE00C651C55D006E016A000E015A0050BF2506
:103E0E00E16E0150C021E26EE66A1200BCD7BFC15E
:0A3E1E00E1FFC0C1E2FFE66A1200F6
:103E28000C0E0101D26F55EC0DF0B50E0101C76FF4
:103E3800010EC86F640EC96F490ECA6F000ECB6FB2
:103E480085C1CCF186C1CDF154DEBB0EC76F000E23
:103E5800C86FD9DEB70EC76F010EC86FD4DEB70EB4
:103E6800C76F010EC86FCFDE990EC76F010EC86FFE
:103E7800CADEB70EC76F010EC86FC5DE950EC76FD5
:103E8800010EC86FC0DEB70EC76F010EC86FBBDE6C
:103E9800870EC76F010EC86FB6DEB70EC76F010E6B
:103EA800C86FB1DE8E0EC76F010EC86FACDEB70EDD
:103EB800C76F010EC86FA7DEB70EC76F010EC86FB8
:103EC800A2DED30EC76F000EC86F9DDEB70EC76F98
:103ED800010EC86F98DE610EC76F010EC86F93DEC2
:103EE800320EC76F010EC86F8EDEB50EC76F010E9A
:103EF800C86F89DEB70EC76F010EC86F84DE0F0E5C
:103F0800C76F010EC86F7FDEB70EC76F010EC86F8F
:043F18007ADE12003B
:103F1C00000E0101C01902E1000EBF1934E0BFC14F
:103F2C00E9FFC0C1EAFFEE522EE0C1C1C7F1C2C128
:103F3C00C8F182DE00C0CBF1BFC1C7F1C0C1C8F16E
:103F4C00C1C1C9F1C2C1CAF12CDE000E011802E1D7
:103F5C00000E001805E1BFC100F0C0C101F0120055
:103F6C000101010EBF25C76F000EC021C86FC1C172
:103F7C00E9FFC2C1EAFFEECFC9F1F0DD00C0BFF12D
:0C3F8C0001C0C0F1C5D7006A016A120034
:103F98000101C16BC26B800EC36F000EC46FC351A9
:103FA800C4111BE0A3DDA2DD9488A0DD9FDD94860B
:103FB800A79182B604D0A7A101D001D0FAD782A8D0
:103FC80004D0C351C113C451C21390DD8FDDBFDDCE
:103FD8009496C433C333C49FE2D7948887DD86DDC3
:103FE800BF51C01102E0AADD949880DD7FDD948680
:103FF800A79182B604D0A7A101D001D0FAD776DD67
:1040080075DDA5DD949672DD71DD98DD9498C1C1EA
:0440180000F01200A2
:10401C00BFC104F0C0C105F004C002F005C003F03C
:10402C00044A052AC1C100F0C2C101F00101C14B13
:10403C00C22B00C0E9FF01C0EAFF02C0E1FF03C0D0
:10404C00E2FFEECFE6FF02C0E9FF03C0EAFFEE524B
:0E405C0001E0E2D7BFC100F0C0C101F01200C8
:10406A0084DEA00E0101BF6F05DEBDC1BFF102DE15
:10407A007CDEA10EBF6FFEDDBF6BC06B88DF00C0A8
:0A408A00BEF15ADEBEC100F01200C4
:104094006FDEA00E0101BF6FF0DDBDC1BFF1EDDD2C
:1040A400BEC1BFF1EADD4BDE2A0E0C6E8D0E0D6E25
:0E40B4000D2EFED70C2EFCD7000000001200CF
:1040C200040E0101856F000E866F990EBF6F010EFF
:1040D200C06F9C0EC16F010EC26F9FDF950EBF6F46
:1040E200010EC06F8A0EC16F010EC26F96DF870E7E
:1040F200BF6F010EC06F920EC16F010EC26F8DDFD6
:104102008E0EBF6F010EC06F4C0EC16F010EC26FDB
:1041120084DF0101A16BA26B86DE9F0EBF6F010ED1
:10412200C06FB70EC16F010EC26F020EC36F2EDEDB
:10413200B96BBA6B500EC76F010EC86F82DD800E6D
:10414200BA19026E800E0118025C02E10050B95DDC
:1041520018E2500EB925E96E010EBA21EA6EEE5050
:104162009F190CE1610EB925E16E010EBA21E26ED2
:104172009FC1E6FF010EA16F000EA26FB94BBA2BD1
:10418200D9D7A151A21140E1010E855F000E865BD5
:10419200000E861902E1030E851909E18E0EBF6F2A
:1041A200010EC06F8A0EC16F000EC26F36DF000EA5
:1041B200861902E1020E851909E1870EBF6F010E11
:1041C200C06F8C0EC16F000EC26F27DF000E861902
:1041D20002E1010E851909E1950EBF6F010EC06F54
:1041E2009A0EC16F000EC26F18DF000E861902E12F
:1041F200000E851909E1990EBF6F010EC06F980E6E
:10420200C16F000EC26F09DF8551861114E10BDE0A
:104212008E0EC76F000EC86FF9DC150E0B6E4B0EBB
:104222000C6EBE0E0D6E0D2EFED70C2EFCD70B2E75
:10423200FAD7000029D0610EBF6F010EC06F880E41
:10424200C16F000EC26F69DE000E011802E1000E9E
:10425200001819E1E8DD1D0EC76F000EC86FD6DC2D
:10426200500EC76F010EC86FD1DC150E0B6E4B0ED0
:104272000C6EBE0E0D6E0D2EFED70C2EFCD70B2E25
:0A428200FAD7000001D045D7120062
:10428C00948694880101A79182B604D0A7A101D08D
:06429C0001D0FAD7120068
:1042A2000900F5CFE6FF0006FBE10106F9E1120085
:1042B200AA0E0101A36F1A0EA46FD20EA56F010EF2
:1042C200A66F9C0EA86F3B0EA96F000EAA6F000E80
:1042D200AB6FEA0EB16F3A0EB26F000EB36F000E03
:1042E200B46FFF0EAD6FFF0EAE6F000EAF6F000E1C
:1042F200B06FAC8A900EAB6E948E949C9EAA03D043
:08430200AECF00F0FBD7120062
:10430A00720E0101C76F010EC86F7CDCB70EC76F52
:10431A00010EC86F77DC500EBF6F010EC06FB70E6B
:10432A00C16F010EC26F140EC36F2CDDB70EC76FBB
:10433A00010EC86F67DC70C100F071C101F0140E84
:10434A00046E000E056E02EC05F000C05FF101C0BC
:10435A0060F1B96BBA6B500EC76F010EC86F6DDC96
:10436A00800EBA19026E800E0118025C02E100503A
:10437A00B95D19E2610EB925E16E010EBA21E26E4C
:10438A005F0EE66E5FC1BDF1500EB925E96E010EF2
:10439A00BA21EA6EEECFBEF178DE0101B94BBA2B33
:1043AA005F4B602BD8D7500EC76F010EC86F45DC24
:1043BA00610E0024E16E010E0120E26EE66A800EB3
:1043CA00BA19006E800E005C02E1140EB95D0BE2B0
:1043DA005FC1BDF1200EBE6F58DE0101B94BBA2B89
:0E43EA005F4B602BECD7704B712B66DE120020
:1043F800000E0101711902E1000E701921E1B70EDA
:10440800C76F010EC86F07EC1EF0F60EC76F000EDF
:10441800C86F07EC1EF00B0E0B6E260E0C6E5D0EB1
:104428000D6E0D2EFED70C2EFCD70B2EFAD70000E2
:104438000000B70EC76F010EC86F07EC1EF0120020
:104448009E0EC76F000EC86F07EC1EF0B70EC76F41
:10445800010EC86F07EC1EF075EC1DF00050000A45
:1044680001E1FAD7CEEC1DF0300E005E016A000EB5
:10447800015A00C09CF001C09DF0140E046E000E9D
:10448800056E02EC05F000C05FF101C060F10101AA
:10449800B96BBA6B800EBA19006E800E005C02E12F
:1044A800140EB95D26E2500EB925BB6F010EBA2174
:1044B800BC6F5FC1BDF1D5DDBBC1E1FFBCC1E2FF8F
:1044C80000C0E6FF500E0101B925E96E010EBA21C0
:1044D800EA6EEE50200A08E1500EB925E16E010E91
:1044E800BA21E26EE66A05D0B94BBA2B5F4B602B56
:1044F800D1D7000EBA1902E1140EB91901E1636BA4
:10450800B96BBA6B500EC76F010EC86F22EC1EF064
:10451800800EBA19026E800E0118025C02E100508A
:10452800B95D0DE2610EB925E16E010EBA21E26EA8
:104538005F0EE66EB94BBA2B5F4B602BE3D7500E7C
:10454800C76F010EC86F22EC1EF0610E0024E16EE9
:0C455800010E0120E26EE66AB0DD1200E8
:104564000101B96BBA6B800EBA19006E800E711915
:10457400005C02E17051B95D09E2B9C1BDF1200EE0
:10458400BE6F86DD0101B94BBA2BEDD7706B716B31
:02459400120013
:10459600B4EC24F00D0E0101B76FB86B330EAF6E9D
:1045A600AC8484DE020E0B6E040E0C6EBA0E0D6E1B
:1045B6000D2EFED70C2EFCD70B2EFAD7000063DE8D
:1045C6001B501C10D8B484D00C0E0101D26F55ECD0
:1045D6000DF0150E0101C76F000EC86F07EC1EF037
:1045E600B70EC76F010EC86F07EC1EF0390EC76F06
:1045F600000EC86F07EC1EF0B70EC76F010EC86F2E
:1046060007EC1EF06E0EC76F000EC86F07EC1EF0AB
:10461600B70EC76F010EC86F07EC1EF0540EC76FBA
:10462600000EC86F07EC1EF0B70EC76F010EC86FFD
:1046360007EC1EF04B0EC76F000EC86F07EC1EF09E
:10464600B70EC76F010EC86F07EC1EF0B70EC76F27
:10465600010EC86F07EC1EF075EC1DF00050000A45
:1046660001E1FAD7CEEC1DF000C0B9F1000E010150
:10467600BA6F15D074DF2BD045DE29D0BADE27D02D
:104686001B6A1C6A0C0E0101D26F55EC0DF0CF0EA1
:104696000101C76F000EC86F07EC1EF018D0000EA0
:1046A600BA1902E1310EB919E5E0000EBA1902E1B4
:1046B600320EB919E1E0000EBA1902E1330EB9194A
:1046C600DDE0000EBA1902E1340EB919D9E078D747
:0246D600FFD70C
:1049680010EE15F08A0E006E020E016ED80EF66E6D
:0E497800460EF76E000EF86E51EC21F01200A4
:0646D8004D656E75200027
:0246DE000100D9
:1046E000564F43452056454E4345552120412050C5
:0C46F000414C41565241204552412000EF
:1046FC00312D205A65726172206D656D6F72696122
:02470C0020008B
:09470E00342D2053616972200072
:10471700332D204A6F67617220636F6D2075736F49
:0A472700206465206D656D2E2000F2
:10473100322D204A6F6761722073656D2075736F2A
:0A474100206465206D656D2E2000D8
:02474B005F000D
:02474D0020004A
:02474F00200048
:0A47510047414D45204F56455200E8
:02475B0020003C
:02475D0020003A
:02475F00000058
:10476100446967697465206F20696E6469636520B7
:0D47710064612070616C617672613A200015
:10477E004A4F474F20444120464F524341202D205F
:04478E00312E300098
:0447920046494D0047
:104796002D2D2D2D2D2D2D2D2D2D2D2D2D2D2D2D43
:1047A6002D2D2D2D2D2D2D2D2D2D2D2D2D2D2D2D33
:0347B6002D2D00A6
:1047B90053656D2070616C6176726173206E612042
:0947C9006D656D6F7269612100DC
:1047D2002D2D2D2D2D2D2D2D2D2D2D2D2D2D2D2D07
:1047E2002D2D2D2D2D2D2D2D2D2D2D2D2D2D2D2DF7
:0347F2002D2D006A
:1047F500202D2054656E746174697661732072652D
:0A4805007374616E7465733A20004D
:04480F002F205C00FA
:0F481300504152414C454C4550495045444F008F
:02482200000094
:0F4824005F5F5F5F5F5F5F5F5F5F5F5F5F5F0053
:02483300000083
:1048350044696769746520612070616C6176726195
:034845003A200016
:0248480004006A
:03484A00207C00CF
:04484D002F7C5C0060
:044851002F205C00B8
:03485500207C00C4
:044858002F7C5C0055
:03485C00205600E3
:03485F00205600E0
:104862000000007F000020820000488500007A8856
:1048720000401C8C0050438F00247492809618963E
:1048820020BC3E99286B6E9CF90215A0EC782DC1D4
:04489200CAF249E23B
:104896000000007FCDCC4C7B0AD723786F120375BE
:1048A60017B75171ACC5276EBD37066B95BF5667F6
:1048B60077CC2B645F700961FFE65B5D08E53C3CE5
:0448C6006042221B0F
:1048CA000100000008000000400000000002000093
:1048DA00001000000080000000000400000020001A
:1048EA000000000100000008000000400000000075
:1048FA00010000000A00000064000000E803000054
:10490A0010270000A086010040420F008096980000
:08491A0000E1F50500CA9A3B1B
:104922000100000010000000000100000010000063
:104932000000010000001000000000010000001053
:104942003031323334353637383961626364656603
:014952000064
:1049530030313233343536373839414243444546B2
:014963000053
:03496400256400C7
:020000040030CA
:0D000100220F0EFF0181FF0FC00FE00F4026
:00000001FF
